{
  "_format": "hh-sol-artifact-1",
  "contractName": "Treasury",
  "sourceName": "contracts/Treasury.sol",
  "abi": [
    {
      "inputs": [
        {
          "internalType": "address",
          "name": "_oracle",
          "type": "address"
        }
      ],
      "stateMutability": "nonpayable",
      "type": "constructor"
    },
    {
      "anonymous": false,
      "inputs": [
        {
          "indexed": true,
          "internalType": "address",
          "name": "recipient",
          "type": "address"
        },
        {
          "indexed": false,
          "internalType": "uint256",
          "name": "amount",
          "type": "uint256"
        }
      ],
      "name": "FundsDistributed",
      "type": "event"
    },
    {
      "anonymous": false,
      "inputs": [
        {
          "components": [
            {
              "internalType": "address",
              "name": "proposalOwner",
              "type": "address"
            },
            {
              "internalType": "bool",
              "name": "accepted",
              "type": "bool"
            }
          ],
          "indexed": false,
          "internalType": "struct Treasury.Proposal[]",
          "name": "result",
          "type": "tuple[]"
        }
      ],
      "name": "VotingResultSet",
      "type": "event"
    },
    {
      "inputs": [],
      "name": "distributeFunds",
      "outputs": [],
      "stateMutability": "nonpayable",
      "type": "function"
    },
    {
      "inputs": [],
      "name": "oracle",
      "outputs": [
        {
          "internalType": "address",
          "name": "",
          "type": "address"
        }
      ],
      "stateMutability": "view",
      "type": "function"
    },
    {
      "inputs": [
        {
          "internalType": "address[]",
          "name": "_proposalOwners",
          "type": "address[]"
        },
        {
          "internalType": "bool[]",
          "name": "_accepted",
          "type": "bool[]"
        }
      ],
      "name": "setVotingResult",
      "outputs": [],
      "stateMutability": "nonpayable",
      "type": "function"
    },
    {
      "inputs": [
        {
          "internalType": "uint256",
          "name": "",
          "type": "uint256"
        }
      ],
      "name": "votingResult",
      "outputs": [
        {
          "internalType": "address",
          "name": "proposalOwner",
          "type": "address"
        },
        {
          "internalType": "bool",
          "name": "accepted",
          "type": "bool"
        }
      ],
      "stateMutability": "view",
      "type": "function"
    }
  ],
  "bytecode": "0x60806040523480156200001157600080fd5b50604051620010f1380380620010f18339818101604052810190620000379190620000e8565b806000806101000a81548173ffffffffffffffffffffffffffffffffffffffff021916908373ffffffffffffffffffffffffffffffffffffffff160217905550506200011a565b600080fd5b600073ffffffffffffffffffffffffffffffffffffffff82169050919050565b6000620000b08262000083565b9050919050565b620000c281620000a3565b8114620000ce57600080fd5b50565b600081519050620000e281620000b7565b92915050565b6000602082840312156200010157620001006200007e565b5b60006200011184828501620000d1565b91505092915050565b610fc7806200012a6000396000f3fe608060405234801561001057600080fd5b506004361061004c5760003560e01c80633a6a4d2e14610051578063587daf141461005b57806361d14051146100775780637dc0d1d0146100a8575b600080fd5b6100596100c6565b005b61007560048036038101906100709190610778565b6103a3565b005b610091600480360381019061008c919061082f565b610632565b60405161009f9291906108b8565b60405180910390f35b6100b061068f565b6040516100bd91906108e1565b60405180910390f35b60006001805490501161010e576040517f08c379a000000000000000000000000000000000000000000000000000000000815260040161010590610959565b60405180910390fd5b6000805b600180549050811015610175576001818154811061013357610132610979565b5b9060005260206000200160000160149054906101000a900460ff161561016257818061015e906109d7565b9250505b808061016d906109d7565b915050610112565b50600081116101b9576040517f08c379a00000000000000000000000000000000000000000000000000000000081526004016101b090610a6b565b60405180910390fd5b600081476101c79190610aba565b905060005b60018054905081101561039e57600181815481106101ed576101ec610979565b5b9060005260206000200160000160149054906101000a900460ff161561038b5760006001828154811061022357610222610979565b5b9060005260206000200160000160009054906101000a900473ffffffffffffffffffffffffffffffffffffffff1673ffffffffffffffffffffffffffffffffffffffff168360405161027490610b1c565b60006040518083038185875af1925050503d80600081146102b1576040519150601f19603f3d011682016040523d82523d6000602084013e6102b6565b606091505b50509050806102fa576040517f08c379a00000000000000000000000000000000000000000000000000000000081526004016102f190610b7d565b60405180910390fd5b6001828154811061030e5761030d610979565b5b9060005260206000200160000160009054906101000a900473ffffffffffffffffffffffffffffffffffffffff1673ffffffffffffffffffffffffffffffffffffffff167f26536799ace2c3dbe12e638ec3ade6b4173dcf1289be0a58d51a5003015649bd846040516103819190610bac565b60405180910390a2505b8080610396906109d7565b9150506101cc565b505050565b8181905084849050146103eb576040517f08c379a00000000000000000000000000000000000000000000000000000000081526004016103e290610c13565b60405180910390fd5b600060018054905014610433576040517f08c379a000000000000000000000000000000000000000000000000000000000815260040161042a90610c7f565b60405180910390fd5b60008054906101000a900473ffffffffffffffffffffffffffffffffffffffff1673ffffffffffffffffffffffffffffffffffffffff163373ffffffffffffffffffffffffffffffffffffffff16146104c1576040517f08c379a00000000000000000000000000000000000000000000000000000000081526004016104b890610d11565b60405180910390fd5b60005b848490508110156105f357600060405180604001604052808787858181106104ef576104ee610979565b5b90506020020160208101906105049190610d5d565b73ffffffffffffffffffffffffffffffffffffffff16815260200185858581811061053257610531610979565b5b90506020020160208101906105479190610db6565b151581525090506001819080600181540180825580915050600190039060005260206000200160009091909190915060008201518160000160006101000a81548173ffffffffffffffffffffffffffffffffffffffff021916908373ffffffffffffffffffffffffffffffffffffffff16021790555060208201518160000160146101000a81548160ff02191690831515021790555050505080806105eb906109d7565b9150506104c4565b507fcec7d2ec437428a90cf67e7e0a29b25843aa749a36ef190230d629848cc3b40c60016040516106249190610f6f565b60405180910390a150505050565b6001818154811061064257600080fd5b906000526020600020016000915090508060000160009054906101000a900473ffffffffffffffffffffffffffffffffffffffff16908060000160149054906101000a900460ff16905082565b60008054906101000a900473ffffffffffffffffffffffffffffffffffffffff1681565b600080fd5b600080fd5b600080fd5b600080fd5b600080fd5b60008083601f8401126106e2576106e16106bd565b5b8235905067ffffffffffffffff8111156106ff576106fe6106c2565b5b60208301915083602082028301111561071b5761071a6106c7565b5b9250929050565b60008083601f840112610738576107376106bd565b5b8235905067ffffffffffffffff811115610755576107546106c2565b5b602083019150836020820283011115610771576107706106c7565b5b9250929050565b60008060008060408587031215610792576107916106b3565b5b600085013567ffffffffffffffff8111156107b0576107af6106b8565b5b6107bc878288016106cc565b9450945050602085013567ffffffffffffffff8111156107df576107de6106b8565b5b6107eb87828801610722565b925092505092959194509250565b6000819050919050565b61080c816107f9565b811461081757600080fd5b50565b60008135905061082981610803565b92915050565b600060208284031215610845576108446106b3565b5b60006108538482850161081a565b91505092915050565b600073ffffffffffffffffffffffffffffffffffffffff82169050919050565b60006108878261085c565b9050919050565b6108978161087c565b82525050565b60008115159050919050565b6108b28161089d565b82525050565b60006040820190506108cd600083018561088e565b6108da60208301846108a9565b9392505050565b60006020820190506108f6600083018461088e565b92915050565b600082825260208201905092915050565b7f566f74696e6720726573756c74206e6f74207365740000000000000000000000600082015250565b60006109436015836108fc565b915061094e8261090d565b602082019050919050565b6000602082019050818103600083015261097281610936565b9050919050565b7f4e487b7100000000000000000000000000000000000000000000000000000000600052603260045260246000fd5b7f4e487b7100000000000000000000000000000000000000000000000000000000600052601160045260246000fd5b60006109e2826107f9565b91507fffffffffffffffffffffffffffffffffffffffffffffffffffffffffffffffff8203610a1457610a136109a8565b5b600182019050919050565b7f4e6f2077696e6e696e672070726f706f73616c73000000000000000000000000600082015250565b6000610a556014836108fc565b9150610a6082610a1f565b602082019050919050565b60006020820190508181036000830152610a8481610a48565b9050919050565b7f4e487b7100000000000000000000000000000000000000000000000000000000600052601260045260246000fd5b6000610ac5826107f9565b9150610ad0836107f9565b925082610ae057610adf610a8b565b5b828204905092915050565b600081905092915050565b50565b6000610b06600083610aeb565b9150610b1182610af6565b600082019050919050565b6000610b2782610af9565b9150819050919050565b7f4661696c656420746f2020776974686472617700000000000000000000000000600082015250565b6000610b676013836108fc565b9150610b7282610b31565b602082019050919050565b60006020820190508181036000830152610b9681610b5a565b9050919050565b610ba6816107f9565b82525050565b6000602082019050610bc16000830184610b9d565b92915050565b7f496e707574206172726179206c656e6774687320646f206e6f74206d61746368600082015250565b6000610bfd6020836108fc565b9150610c0882610bc7565b602082019050919050565b60006020820190508181036000830152610c2c81610bf0565b9050919050565b7f566f74696e6720726573756c7420616c72656164792073657400000000000000600082015250565b6000610c696019836108fc565b9150610c7482610c33565b602082019050919050565b60006020820190508181036000830152610c9881610c5c565b9050919050565b7f4f6e6c79206f7261636c652063616e207365742074686520766f74696e67207260008201527f6573756c74000000000000000000000000000000000000000000000000000000602082015250565b6000610cfb6025836108fc565b9150610d0682610c9f565b604082019050919050565b60006020820190508181036000830152610d2a81610cee565b9050919050565b610d3a8161087c565b8114610d4557600080fd5b50565b600081359050610d5781610d31565b92915050565b600060208284031215610d7357610d726106b3565b5b6000610d8184828501610d48565b91505092915050565b610d938161089d565b8114610d9e57600080fd5b50565b600081359050610db081610d8a565b92915050565b600060208284031215610dcc57610dcb6106b3565b5b6000610dda84828501610da1565b91505092915050565b600081549050919050565b600082825260208201905092915050565b60008190508160005260206000209050919050565b60008160001c9050919050565b600073ffffffffffffffffffffffffffffffffffffffff82169050919050565b6000610e54610e4f83610e14565b610e21565b9050919050565b610e648161087c565b82525050565b60008160a01c9050919050565b600060ff82169050919050565b6000610e97610e9283610e6a565b610e77565b9050919050565b610ea78161089d565b82525050565b604082016000808301549050610ec281610e41565b610ecf6000860182610e5b565b50610ed981610e84565b610ee66020860182610e9e565b5050505050565b6000610ef98383610ead565b60408301905092915050565b6000600182019050919050565b6000610f1d82610de3565b610f278185610dee565b9350610f3283610dff565b8060005b83811015610f625781610f498882610eed565b9750610f5483610f05565b925050600181019050610f36565b5085935050505092915050565b60006020820190508181036000830152610f898184610f12565b90509291505056fea26469706673582212207bbf894c077985e70f7dfcebe25f757a2c40b9d7782c1441bac71a4e701563da64736f6c63430008110033",
  "linkReferences": {},
  "deployedLinkReferences": {}
}