{
  "_format": "hh-sol-artifact-1",
  "contractName": "Treasury",
  "sourceName": "contracts/Treasury.sol",
  "abi": [
    {
      "inputs": [
        {
          "internalType": "address",
          "name": "_oracle",
          "type": "address"
        }
      ],
      "stateMutability": "nonpayable",
      "type": "constructor"
    },
    {
      "anonymous": false,
      "inputs": [
        {
          "indexed": true,
          "internalType": "address",
          "name": "recipient",
          "type": "address"
        },
        {
          "indexed": false,
          "internalType": "uint256",
          "name": "amount",
          "type": "uint256"
        }
      ],
      "name": "FundsDistributed",
      "type": "event"
    },
    {
      "anonymous": false,
      "inputs": [
        {
          "components": [
            {
              "internalType": "address",
              "name": "proposalOwner",
              "type": "address"
            },
            {
              "internalType": "bool",
              "name": "accepted",
              "type": "bool"
            }
          ],
          "indexed": false,
          "internalType": "struct Treasury.Proposal[]",
          "name": "result",
          "type": "tuple[]"
        }
      ],
      "name": "VotingResultSet",
      "type": "event"
    },
    {
      "inputs": [],
      "name": "distributeFunds",
      "outputs": [],
      "stateMutability": "nonpayable",
      "type": "function"
    },
    {
      "inputs": [],
      "name": "distributed",
      "outputs": [
        {
          "internalType": "bool",
          "name": "",
          "type": "bool"
        }
      ],
      "stateMutability": "view",
      "type": "function"
    },
    {
      "inputs": [],
      "name": "hasVotingResult",
      "outputs": [
        {
          "internalType": "bool",
          "name": "",
          "type": "bool"
        }
      ],
      "stateMutability": "view",
      "type": "function"
    },
    {
      "inputs": [],
      "name": "oracle",
      "outputs": [
        {
          "internalType": "address",
          "name": "",
          "type": "address"
        }
      ],
      "stateMutability": "view",
      "type": "function"
    },
    {
      "inputs": [
        {
          "internalType": "address[]",
          "name": "_proposalOwners",
          "type": "address[]"
        },
        {
          "internalType": "bool[]",
          "name": "_accepted",
          "type": "bool[]"
        }
      ],
      "name": "setVotingResult",
      "outputs": [],
      "stateMutability": "nonpayable",
      "type": "function"
    },
    {
      "inputs": [
        {
          "internalType": "uint256",
          "name": "",
          "type": "uint256"
        }
      ],
      "name": "votingResult",
      "outputs": [
        {
          "internalType": "address",
          "name": "proposalOwner",
          "type": "address"
        },
        {
          "internalType": "bool",
          "name": "accepted",
          "type": "bool"
        }
      ],
      "stateMutability": "view",
      "type": "function"
    }
  ],
  "bytecode": "0x60806040523480156200001157600080fd5b506040516200124a3803806200124a8339818101604052810190620000379190620000e8565b806000806101000a81548173ffffffffffffffffffffffffffffffffffffffff021916908373ffffffffffffffffffffffffffffffffffffffff160217905550506200011a565b600080fd5b600073ffffffffffffffffffffffffffffffffffffffff82169050919050565b6000620000b08262000083565b9050919050565b620000c281620000a3565b8114620000ce57600080fd5b50565b600081519050620000e281620000b7565b92915050565b6000602082840312156200010157620001006200007e565b5b60006200011184828501620000d1565b91505092915050565b611120806200012a6000396000f3fe608060405234801561001057600080fd5b50600436106100625760003560e01c80633a6a4d2e14610067578063587daf141461007157806361d140511461008d5780637dc0d1d0146100be578063a2cd0d99146100dc578063f84b903e146100fa575b600080fd5b61006f610118565b005b61008b6004803603810190610086919061084a565b61042c565b005b6100a760048036038101906100a29190610901565b6106de565b6040516100b592919061098a565b60405180910390f35b6100c661073b565b6040516100d391906109b3565b60405180910390f35b6100e461075f565b6040516100f191906109ce565b60405180910390f35b610102610772565b60405161010f91906109ce565b60405180910390f35b600260009054906101000a900460ff16610167576040517f08c379a000000000000000000000000000000000000000000000000000000000815260040161015e90610a46565b60405180910390fd5b600260019054906101000a900460ff16156101b7576040517f08c379a00000000000000000000000000000000000000000000000000000000081526004016101ae90610ab2565b60405180910390fd5b6000805b60018054905081101561021e57600181815481106101dc576101db610ad2565b5b9060005260206000200160000160149054906101000a900460ff161561020b57818061020790610b30565b9250505b808061021690610b30565b9150506101bb565b5060008111610262576040517f08c379a000000000000000000000000000000000000000000000000000000000815260040161025990610bc4565b60405180910390fd5b600081476102709190610c13565b905060005b60018054905081101561040c576001818154811061029657610295610ad2565b5b9060005260206000200160000160149054906101000a900460ff16156103f9576000600182815481106102cc576102cb610ad2565b5b9060005260206000200160000160009054906101000a900473ffffffffffffffffffffffffffffffffffffffff16905060008173ffffffffffffffffffffffffffffffffffffffff168460405161032290610c75565b60006040518083038185875af1925050503d806000811461035f576040519150601f19603f3d011682016040523d82523d6000602084013e610364565b606091505b50509050806103a8576040517f08c379a000000000000000000000000000000000000000000000000000000000815260040161039f90610cd6565b60405180910390fd5b8173ffffffffffffffffffffffffffffffffffffffff167f26536799ace2c3dbe12e638ec3ade6b4173dcf1289be0a58d51a5003015649bd856040516103ee9190610d05565b60405180910390a250505b808061040490610b30565b915050610275565b506001600260016101000a81548160ff0219169083151502179055505050565b818190508484905014610474576040517f08c379a000000000000000000000000000000000000000000000000000000000815260040161046b90610d6c565b60405180910390fd5b600260009054906101000a900460ff16156104c4576040517f08c379a00000000000000000000000000000000000000000000000000000000081526004016104bb90610dd8565b60405180910390fd5b60008054906101000a900473ffffffffffffffffffffffffffffffffffffffff1673ffffffffffffffffffffffffffffffffffffffff163373ffffffffffffffffffffffffffffffffffffffff1614610552576040517f08c379a000000000000000000000000000000000000000000000000000000000815260040161054990610e6a565b60405180910390fd5b60005b8484905081101561068457600060405180604001604052808787858181106105805761057f610ad2565b5b90506020020160208101906105959190610eb6565b73ffffffffffffffffffffffffffffffffffffffff1681526020018585858181106105c3576105c2610ad2565b5b90506020020160208101906105d89190610f0f565b151581525090506001819080600181540180825580915050600190039060005260206000200160009091909190915060008201518160000160006101000a81548173ffffffffffffffffffffffffffffffffffffffff021916908373ffffffffffffffffffffffffffffffffffffffff16021790555060208201518160000160146101000a81548160ff021916908315150217905550505050808061067c90610b30565b915050610555565b506001600260006101000a81548160ff0219169083151502179055507fcec7d2ec437428a90cf67e7e0a29b25843aa749a36ef190230d629848cc3b40c60016040516106d091906110c8565b60405180910390a150505050565b600181815481106106ee57600080fd5b906000526020600020016000915090508060000160009054906101000a900473ffffffffffffffffffffffffffffffffffffffff16908060000160149054906101000a900460ff16905082565b60008054906101000a900473ffffffffffffffffffffffffffffffffffffffff1681565b600260009054906101000a900460ff1681565b600260019054906101000a900460ff1681565b600080fd5b600080fd5b600080fd5b600080fd5b600080fd5b60008083601f8401126107b4576107b361078f565b5b8235905067ffffffffffffffff8111156107d1576107d0610794565b5b6020830191508360208202830111156107ed576107ec610799565b5b9250929050565b60008083601f84011261080a5761080961078f565b5b8235905067ffffffffffffffff81111561082757610826610794565b5b60208301915083602082028301111561084357610842610799565b5b9250929050565b6000806000806040858703121561086457610863610785565b5b600085013567ffffffffffffffff8111156108825761088161078a565b5b61088e8782880161079e565b9450945050602085013567ffffffffffffffff8111156108b1576108b061078a565b5b6108bd878288016107f4565b925092505092959194509250565b6000819050919050565b6108de816108cb565b81146108e957600080fd5b50565b6000813590506108fb816108d5565b92915050565b60006020828403121561091757610916610785565b5b6000610925848285016108ec565b91505092915050565b600073ffffffffffffffffffffffffffffffffffffffff82169050919050565b60006109598261092e565b9050919050565b6109698161094e565b82525050565b60008115159050919050565b6109848161096f565b82525050565b600060408201905061099f6000830185610960565b6109ac602083018461097b565b9392505050565b60006020820190506109c86000830184610960565b92915050565b60006020820190506109e3600083018461097b565b92915050565b600082825260208201905092915050565b7f566f74696e6720726573756c74206e6f74207365740000000000000000000000600082015250565b6000610a306015836109e9565b9150610a3b826109fa565b602082019050919050565b60006020820190508181036000830152610a5f81610a23565b9050919050565b7f5265776172647320616c72656164792073656e74000000000000000000000000600082015250565b6000610a9c6014836109e9565b9150610aa782610a66565b602082019050919050565b60006020820190508181036000830152610acb81610a8f565b9050919050565b7f4e487b7100000000000000000000000000000000000000000000000000000000600052603260045260246000fd5b7f4e487b7100000000000000000000000000000000000000000000000000000000600052601160045260246000fd5b6000610b3b826108cb565b91507fffffffffffffffffffffffffffffffffffffffffffffffffffffffffffffffff8203610b6d57610b6c610b01565b5b600182019050919050565b7f4e6f2077696e6e696e672070726f706f73616c73000000000000000000000000600082015250565b6000610bae6014836109e9565b9150610bb982610b78565b602082019050919050565b60006020820190508181036000830152610bdd81610ba1565b9050919050565b7f4e487b7100000000000000000000000000000000000000000000000000000000600052601260045260246000fd5b6000610c1e826108cb565b9150610c29836108cb565b925082610c3957610c38610be4565b5b828204905092915050565b600081905092915050565b50565b6000610c5f600083610c44565b9150610c6a82610c4f565b600082019050919050565b6000610c8082610c52565b9150819050919050565b7f4661696c656420746f2020776974686472617700000000000000000000000000600082015250565b6000610cc06013836109e9565b9150610ccb82610c8a565b602082019050919050565b60006020820190508181036000830152610cef81610cb3565b9050919050565b610cff816108cb565b82525050565b6000602082019050610d1a6000830184610cf6565b92915050565b7f496e707574206172726179206c656e6774687320646f206e6f74206d61746368600082015250565b6000610d566020836109e9565b9150610d6182610d20565b602082019050919050565b60006020820190508181036000830152610d8581610d49565b9050919050565b7f566f74696e6720726573756c7420616c72656164792073657400000000000000600082015250565b6000610dc26019836109e9565b9150610dcd82610d8c565b602082019050919050565b60006020820190508181036000830152610df181610db5565b9050919050565b7f4f6e6c79206f7261636c652063616e207365742074686520766f74696e67207260008201527f6573756c74000000000000000000000000000000000000000000000000000000602082015250565b6000610e546025836109e9565b9150610e5f82610df8565b604082019050919050565b60006020820190508181036000830152610e8381610e47565b9050919050565b610e938161094e565b8114610e9e57600080fd5b50565b600081359050610eb081610e8a565b92915050565b600060208284031215610ecc57610ecb610785565b5b6000610eda84828501610ea1565b91505092915050565b610eec8161096f565b8114610ef757600080fd5b50565b600081359050610f0981610ee3565b92915050565b600060208284031215610f2557610f24610785565b5b6000610f3384828501610efa565b91505092915050565b600081549050919050565b600082825260208201905092915050565b60008190508160005260206000209050919050565b60008160001c9050919050565b600073ffffffffffffffffffffffffffffffffffffffff82169050919050565b6000610fad610fa883610f6d565b610f7a565b9050919050565b610fbd8161094e565b82525050565b60008160a01c9050919050565b600060ff82169050919050565b6000610ff0610feb83610fc3565b610fd0565b9050919050565b6110008161096f565b82525050565b60408201600080830154905061101b81610f9a565b6110286000860182610fb4565b5061103281610fdd565b61103f6020860182610ff7565b5050505050565b60006110528383611006565b60408301905092915050565b6000600182019050919050565b600061107682610f3c565b6110808185610f47565b935061108b83610f58565b8060005b838110156110bb57816110a28882611046565b97506110ad8361105e565b92505060018101905061108f565b5085935050505092915050565b600060208201905081810360008301526110e2818461106b565b90509291505056fea2646970667358221220d0a855c60542fbe44f51ca766513eb8a7419c9fa916703d48705fe99954c6db764736f6c63430008110033",
  "linkReferences": {},
  "deployedLinkReferences": {}
}