{"contracts/Proposals.sol":{"ProposalVoting":{"abi":[{"inputs":[],"stateMutability":"nonpayable","type":"constructor"},{"inputs":[],"name":"not_in_proposalPeriod","type":"error"},{"inputs":[],"name":"not_in_votingPeriod","type":"error"},{"anonymous":false,"inputs":[{"indexed":true,"internalType":"address","name":"recipient","type":"address"},{"indexed":false,"internalType":"string","name":"message","type":"string"}],"name":"ProposalSubmitted","type":"event"},{"anonymous":false,"inputs":[{"indexed":true,"internalType":"address","name":"sender","type":"address"},{"indexed":true,"internalType":"address","name":"proposalOwner","type":"address"},{"indexed":false,"internalType":"uint8","name":"accept","type":"uint8"}],"name":"VoteCasted","type":"event"},{"inputs":[],"name":"SUBMISSION_PERIOD","outputs":[{"internalType":"uint256","name":"","type":"uint256"}],"stateMutability":"view","type":"function"},{"inputs":[],"name":"TRANSITION_PERIOD","outputs":[{"internalType":"uint256","name":"","type":"uint256"}],"stateMutability":"view","type":"function"},{"inputs":[],"name":"VOTING_PERIOD","outputs":[{"internalType":"uint256","name":"","type":"uint256"}],"stateMutability":"view","type":"function"},{"inputs":[{"components":[{"internalType":"uint256","name":"proposalIndex","type":"uint256"},{"internalType":"uint8","name":"decision","type":"uint8"}],"internalType":"struct ProposalVoting.Vote[]","name":"_votes","type":"tuple[]"}],"name":"castVote","outputs":[],"stateMutability":"nonpayable","type":"function"},{"inputs":[],"name":"castedVotes","outputs":[{"internalType":"uint256","name":"","type":"uint256"}],"stateMutability":"view","type":"function"},{"inputs":[],"name":"hackathonEndTime","outputs":[{"internalType":"uint256","name":"","type":"uint256"}],"stateMutability":"view","type":"function"},{"inputs":[{"internalType":"uint256","name":"","type":"uint256"}],"name":"proposals","outputs":[{"internalType":"string","name":"description","type":"string"},{"internalType":"address","name":"proposalOwner","type":"address"},{"internalType":"uint256","name":"votes","type":"uint256"},{"internalType":"bool","name":"accepted","type":"bool"}],"stateMutability":"view","type":"function"},{"inputs":[],"name":"proposalsCount","outputs":[{"internalType":"uint256","name":"","type":"uint256"}],"stateMutability":"view","type":"function"},{"inputs":[{"internalType":"uint256","name":"_hackathonEndTime","type":"uint256"},{"internalType":"uint256","name":"_transitionPeriod","type":"uint256"},{"internalType":"uint256","name":"_submissionEndDate","type":"uint256"},{"internalType":"uint256","name":"votingEndDate","type":"uint256"},{"internalType":"address","name":"_votingTokenAddress","type":"address"}],"name":"setTimes","outputs":[],"stateMutability":"nonpayable","type":"function"},{"inputs":[{"internalType":"string","name":"_description","type":"string"}],"name":"submitProposal","outputs":[],"stateMutability":"nonpayable","type":"function"},{"inputs":[],"name":"votingToken","outputs":[{"internalType":"contract IERC20","name":"","type":"address"}],"stateMutability":"view","type":"function"}],"evm":{"bytecode":{"linkReferences":{},"object":"60806040526276a70060035562278d006003546200001e919062000084565b600455620d2f0060045462000034919062000084565b6005553480156200004457600080fd5b50620000bf565b6000819050919050565b7f4e487b7100000000000000000000000000000000000000000000000000000000600052601160045260246000fd5b600062000091826200004b565b91506200009e836200004b565b9250828201905080821115620000b957620000b862000055565b5b92915050565b61146980620000cf6000396000f3fe608060405234801561001057600080fd5b50600436106100a95760003560e01c8063b034012311610071578063b034012314610155578063b1610d7e14610173578063ca9ff62914610191578063ea1bf4c4146101af578063f1b095b0146101cb578063f6356d4f146101e9576100a9565b8063013cf08b146100ae5780630a9f46ad146100e15780631fe39da8146100ff578063373d6d5e1461011b5780636ead1acb14610137575b600080fd5b6100c860048036038101906100c39190610952565b610207565b6040516100d89493929190610a7a565b60405180910390f35b6100e96102fc565b6040516100f69190610ac6565b60405180910390f35b61011960048036038101906101149190610b46565b610309565b005b61013560048036038101906101309190610be9565b61067e565b005b61013f61086d565b60405161014c9190610ac6565b60405180910390f35b61015d610873565b60405161016a9190610c95565b60405180910390f35b61017b610897565b6040516101889190610ac6565b60405180910390f35b61019961089d565b6040516101a69190610ac6565b60405180910390f35b6101c960048036038101906101c49190610cdc565b6108a3565b005b6101d3610906565b6040516101e09190610ac6565b60405180910390f35b6101f161090c565b6040516101fe9190610ac6565b60405180910390f35b6001818154811061021757600080fd5b906000526020600020906004020160009150905080600001805461023a90610d86565b80601f016020809104026020016040519081016040528092919081815260200182805461026690610d86565b80156102b35780601f10610288576101008083540402835291602001916102b3565b820191906000526020600020905b81548152906001019060200180831161029657829003601f168201915b5050505050908060010160009054906101000a900473ffffffffffffffffffffffffffffffffffffffff16908060020154908060030160009054906101000a900460ff16905084565b6000600180549050905090565b4260045460025461031a9190610de6565b118061033457506005546002546103319190610de6565b42115b1561036b576040517f1fd2f97200000000000000000000000000000000000000000000000000000000815260040160405180910390fd5b60018054905082829050146103b5576040517f08c379a00000000000000000000000000000000000000000000000000000000081526004016103ac90610e66565b60405180910390fd5b60008054906101000a900473ffffffffffffffffffffffffffffffffffffffff1673ffffffffffffffffffffffffffffffffffffffff166323b872dd3330670de0b6b3a76400006040518463ffffffff1660e01b815260040161041a93929190610ec1565b6020604051808303816000875af1158015610439573d6000803e3d6000fd5b505050506040513d601f19601f8201168201806040525081019061045d9190610f24565b61049c576040517f08c379a000000000000000000000000000000000000000000000000000000000815260040161049390610f9d565b60405180910390fd5b6001600660008282546104af9190610de6565b9250508190555060005b8282905081101561067957368383838181106104d8576104d7610fbd565b5b905060400201905060008160200160208101906104f59190611025565b60ff161480610519575060018160200160208101906105149190611025565b60ff16145b610558576040517f08c379a000000000000000000000000000000000000000000000000000000000815260040161054f9061109e565b60405180910390fd5b80602001602081019061056b9190611025565b60ff166001838154811061058257610581610fbd565b5b906000526020600020906004020160020160008282546105a29190610de6565b92505081905550600182815481106105bd576105bc610fbd565b5b906000526020600020906004020160010160009054906101000a900473ffffffffffffffffffffffffffffffffffffffff1673ffffffffffffffffffffffffffffffffffffffff163373ffffffffffffffffffffffffffffffffffffffff167f295c2eecb6286510cbcce4b1c262b5ca41926994dc773db67c91f036bbf3d88f8360200160208101906106509190611025565b60405161065d91906110cd565b60405180910390a3508080610671906110e8565b9150506104b9565b505050565b4260045460025461068f9190610de6565b10806106a957506003546002546106a69190610de6565b42105b156106e0576040517f3b21115800000000000000000000000000000000000000000000000000000000815260040160405180910390fd5b6000604051806080016040528084848080601f016020809104026020016040519081016040528093929190818152602001838380828437600081840152601f19601f8201169050808301925050505050505081526020013373ffffffffffffffffffffffffffffffffffffffff16815260200160008152602001600015158152509050600181908060018154018082558091505060019003906000526020600020906004020160009091909190915060008201518160000190816107a49190611301565b5060208201518160010160006101000a81548173ffffffffffffffffffffffffffffffffffffffff021916908373ffffffffffffffffffffffffffffffffffffffff1602179055506040820151816002015560608201518160030160006101000a81548160ff02191690831515021790555050503373ffffffffffffffffffffffffffffffffffffffff167fd1efe34a534b4d45759bb8d8f7c24cb8b465b18cf3e3710c3dc9d70ddd2b2930848460405161086092919061140f565b60405180910390a2505050565b60025481565b60008054906101000a900473ffffffffffffffffffffffffffffffffffffffff1681565b60055481565b60035481565b83600381905550826004819055508160058190555084600281905550806000806101000a81548173ffffffffffffffffffffffffffffffffffffffff021916908373ffffffffffffffffffffffffffffffffffffffff1602179055505050505050565b60065481565b60045481565b600080fd5b600080fd5b6000819050919050565b61092f8161091c565b811461093a57600080fd5b50565b60008135905061094c81610926565b92915050565b60006020828403121561096857610967610912565b5b60006109768482850161093d565b91505092915050565b600081519050919050565b600082825260208201905092915050565b60005b838110156109b957808201518184015260208101905061099e565b60008484015250505050565b6000601f19601f8301169050919050565b60006109e18261097f565b6109eb818561098a565b93506109fb81856020860161099b565b610a04816109c5565b840191505092915050565b600073ffffffffffffffffffffffffffffffffffffffff82169050919050565b6000610a3a82610a0f565b9050919050565b610a4a81610a2f565b82525050565b610a598161091c565b82525050565b60008115159050919050565b610a7481610a5f565b82525050565b60006080820190508181036000830152610a9481876109d6565b9050610aa36020830186610a41565b610ab06040830185610a50565b610abd6060830184610a6b565b95945050505050565b6000602082019050610adb6000830184610a50565b92915050565b600080fd5b600080fd5b600080fd5b60008083601f840112610b0657610b05610ae1565b5b8235905067ffffffffffffffff811115610b2357610b22610ae6565b5b602083019150836040820283011115610b3f57610b3e610aeb565b5b9250929050565b60008060208385031215610b5d57610b5c610912565b5b600083013567ffffffffffffffff811115610b7b57610b7a610917565b5b610b8785828601610af0565b92509250509250929050565b60008083601f840112610ba957610ba8610ae1565b5b8235905067ffffffffffffffff811115610bc657610bc5610ae6565b5b602083019150836001820283011115610be257610be1610aeb565b5b9250929050565b60008060208385031215610c0057610bff610912565b5b600083013567ffffffffffffffff811115610c1e57610c1d610917565b5b610c2a85828601610b93565b92509250509250929050565b6000819050919050565b6000610c5b610c56610c5184610a0f565b610c36565b610a0f565b9050919050565b6000610c6d82610c40565b9050919050565b6000610c7f82610c62565b9050919050565b610c8f81610c74565b82525050565b6000602082019050610caa6000830184610c86565b92915050565b610cb981610a2f565b8114610cc457600080fd5b50565b600081359050610cd681610cb0565b92915050565b600080600080600060a08688031215610cf857610cf7610912565b5b6000610d068882890161093d565b9550506020610d178882890161093d565b9450506040610d288882890161093d565b9350506060610d398882890161093d565b9250506080610d4a88828901610cc7565b9150509295509295909350565b7f4e487b7100000000000000000000000000000000000000000000000000000000600052602260045260246000fd5b60006002820490506001821680610d9e57607f821691505b602082108103610db157610db0610d57565b5b50919050565b7f4e487b7100000000000000000000000000000000000000000000000000000000600052601160045260246000fd5b6000610df18261091c565b9150610dfc8361091c565b9250828201905080821115610e1457610e13610db7565b5b92915050565b7f496e76616c6964206e756d626572206f6620766f746573000000000000000000600082015250565b6000610e5060178361098a565b9150610e5b82610e1a565b602082019050919050565b60006020820190508181036000830152610e7f81610e43565b9050919050565b6000819050919050565b6000610eab610ea6610ea184610e86565b610c36565b61091c565b9050919050565b610ebb81610e90565b82525050565b6000606082019050610ed66000830186610a41565b610ee36020830185610a41565b610ef06040830184610eb2565b949350505050565b610f0181610a5f565b8114610f0c57600080fd5b50565b600081519050610f1e81610ef8565b92915050565b600060208284031215610f3a57610f39610912565b5b6000610f4884828501610f0f565b91505092915050565b7f4e6f20766f74657320617661696c61626c650000000000000000000000000000600082015250565b6000610f8760128361098a565b9150610f9282610f51565b602082019050919050565b60006020820190508181036000830152610fb681610f7a565b9050919050565b7f4e487b7100000000000000000000000000000000000000000000000000000000600052603260045260246000fd5b600060ff82169050919050565b61100281610fec565b811461100d57600080fd5b50565b60008135905061101f81610ff9565b92915050565b60006020828403121561103b5761103a610912565b5b600061104984828501611010565b91505092915050565b7f496e76616c696420766f7465206465636973696f6e0000000000000000000000600082015250565b600061108860158361098a565b915061109382611052565b602082019050919050565b600060208201905081810360008301526110b78161107b565b9050919050565b6110c781610fec565b82525050565b60006020820190506110e260008301846110be565b92915050565b60006110f38261091c565b91507fffffffffffffffffffffffffffffffffffffffffffffffffffffffffffffffff820361112557611124610db7565b5b600182019050919050565b7f4e487b7100000000000000000000000000000000000000000000000000000000600052604160045260246000fd5b60008190508160005260206000209050919050565b60006020601f8301049050919050565b600082821b905092915050565b6000600883026111c17fffffffffffffffffffffffffffffffffffffffffffffffffffffffffffffffff82611184565b6111cb8683611184565b95508019841693508086168417925050509392505050565b60006111fe6111f96111f48461091c565b610c36565b61091c565b9050919050565b6000819050919050565b611218836111e3565b61122c61122482611205565b848454611191565b825550505050565b600090565b611241611234565b61124c81848461120f565b505050565b5b8181101561127057611265600082611239565b600181019050611252565b5050565b601f8211156112b5576112868161115f565b61128f84611174565b8101602085101561129e578190505b6112b26112aa85611174565b830182611251565b50505b505050565b600082821c905092915050565b60006112d8600019846008026112ba565b1980831691505092915050565b60006112f183836112c7565b9150826002028217905092915050565b61130a8261097f565b67ffffffffffffffff81111561132357611322611130565b5b61132d8254610d86565b611338828285611274565b600060209050601f83116001811461136b5760008415611359578287015190505b61136385826112e5565b8655506113cb565b601f1984166113798661115f565b60005b828110156113a15784890151825560018201915060208501945060208101905061137c565b868310156113be57848901516113ba601f8916826112c7565b8355505b6001600288020188555050505b505050505050565b82818337600083830152505050565b60006113ee838561098a565b93506113fb8385846113d3565b611404836109c5565b840190509392505050565b6000602082019050818103600083015261142a8184866113e2565b9050939250505056fea2646970667358221220e360e1eda0da6e3d0812b9af63418524190d6bae11177283f78199c1c703b43c64736f6c63430008110033","opcodes":"PUSH1 0x80 PUSH1 0x40 MSTORE PUSH3 0x76A700 PUSH1 0x3 SSTORE PUSH3 0x278D00 PUSH1 0x3 SLOAD PUSH3 0x1E SWAP2 SWAP1 PUSH3 0x84 JUMP JUMPDEST PUSH1 0x4 SSTORE PUSH3 0xD2F00 PUSH1 0x4 SLOAD PUSH3 0x34 SWAP2 SWAP1 PUSH3 0x84 JUMP JUMPDEST PUSH1 0x5 SSTORE CALLVALUE DUP1 ISZERO PUSH3 0x44 JUMPI PUSH1 0x0 DUP1 REVERT JUMPDEST POP PUSH3 0xBF JUMP JUMPDEST PUSH1 0x0 DUP2 SWAP1 POP SWAP2 SWAP1 POP JUMP JUMPDEST PUSH32 0x4E487B7100000000000000000000000000000000000000000000000000000000 PUSH1 0x0 MSTORE PUSH1 0x11 PUSH1 0x4 MSTORE PUSH1 0x24 PUSH1 0x0 REVERT JUMPDEST PUSH1 0x0 PUSH3 0x91 DUP3 PUSH3 0x4B JUMP JUMPDEST SWAP2 POP PUSH3 0x9E DUP4 PUSH3 0x4B JUMP JUMPDEST SWAP3 POP DUP3 DUP3 ADD SWAP1 POP DUP1 DUP3 GT ISZERO PUSH3 0xB9 JUMPI PUSH3 0xB8 PUSH3 0x55 JUMP JUMPDEST JUMPDEST SWAP3 SWAP2 POP POP JUMP JUMPDEST PUSH2 0x1469 DUP1 PUSH3 0xCF PUSH1 0x0 CODECOPY PUSH1 0x0 RETURN INVALID PUSH1 0x80 PUSH1 0x40 MSTORE CALLVALUE DUP1 ISZERO PUSH2 0x10 JUMPI PUSH1 0x0 DUP1 REVERT JUMPDEST POP PUSH1 0x4 CALLDATASIZE LT PUSH2 0xA9 JUMPI PUSH1 0x0 CALLDATALOAD PUSH1 0xE0 SHR DUP1 PUSH4 0xB0340123 GT PUSH2 0x71 JUMPI DUP1 PUSH4 0xB0340123 EQ PUSH2 0x155 JUMPI DUP1 PUSH4 0xB1610D7E EQ PUSH2 0x173 JUMPI DUP1 PUSH4 0xCA9FF629 EQ PUSH2 0x191 JUMPI DUP1 PUSH4 0xEA1BF4C4 EQ PUSH2 0x1AF JUMPI DUP1 PUSH4 0xF1B095B0 EQ PUSH2 0x1CB JUMPI DUP1 PUSH4 0xF6356D4F EQ PUSH2 0x1E9 JUMPI PUSH2 0xA9 JUMP JUMPDEST DUP1 PUSH4 0x13CF08B EQ PUSH2 0xAE JUMPI DUP1 PUSH4 0xA9F46AD EQ PUSH2 0xE1 JUMPI DUP1 PUSH4 0x1FE39DA8 EQ PUSH2 0xFF JUMPI DUP1 PUSH4 0x373D6D5E EQ PUSH2 0x11B JUMPI DUP1 PUSH4 0x6EAD1ACB EQ PUSH2 0x137 JUMPI JUMPDEST PUSH1 0x0 DUP1 REVERT JUMPDEST PUSH2 0xC8 PUSH1 0x4 DUP1 CALLDATASIZE SUB DUP2 ADD SWAP1 PUSH2 0xC3 SWAP2 SWAP1 PUSH2 0x952 JUMP JUMPDEST PUSH2 0x207 JUMP JUMPDEST PUSH1 0x40 MLOAD PUSH2 0xD8 SWAP5 SWAP4 SWAP3 SWAP2 SWAP1 PUSH2 0xA7A JUMP JUMPDEST PUSH1 0x40 MLOAD DUP1 SWAP2 SUB SWAP1 RETURN JUMPDEST PUSH2 0xE9 PUSH2 0x2FC JUMP JUMPDEST PUSH1 0x40 MLOAD PUSH2 0xF6 SWAP2 SWAP1 PUSH2 0xAC6 JUMP JUMPDEST PUSH1 0x40 MLOAD DUP1 SWAP2 SUB SWAP1 RETURN JUMPDEST PUSH2 0x119 PUSH1 0x4 DUP1 CALLDATASIZE SUB DUP2 ADD SWAP1 PUSH2 0x114 SWAP2 SWAP1 PUSH2 0xB46 JUMP JUMPDEST PUSH2 0x309 JUMP JUMPDEST STOP JUMPDEST PUSH2 0x135 PUSH1 0x4 DUP1 CALLDATASIZE SUB DUP2 ADD SWAP1 PUSH2 0x130 SWAP2 SWAP1 PUSH2 0xBE9 JUMP JUMPDEST PUSH2 0x67E JUMP JUMPDEST STOP JUMPDEST PUSH2 0x13F PUSH2 0x86D JUMP JUMPDEST PUSH1 0x40 MLOAD PUSH2 0x14C SWAP2 SWAP1 PUSH2 0xAC6 JUMP JUMPDEST PUSH1 0x40 MLOAD DUP1 SWAP2 SUB SWAP1 RETURN JUMPDEST PUSH2 0x15D PUSH2 0x873 JUMP JUMPDEST PUSH1 0x40 MLOAD PUSH2 0x16A SWAP2 SWAP1 PUSH2 0xC95 JUMP JUMPDEST PUSH1 0x40 MLOAD DUP1 SWAP2 SUB SWAP1 RETURN JUMPDEST PUSH2 0x17B PUSH2 0x897 JUMP JUMPDEST PUSH1 0x40 MLOAD PUSH2 0x188 SWAP2 SWAP1 PUSH2 0xAC6 JUMP JUMPDEST PUSH1 0x40 MLOAD DUP1 SWAP2 SUB SWAP1 RETURN JUMPDEST PUSH2 0x199 PUSH2 0x89D JUMP JUMPDEST PUSH1 0x40 MLOAD PUSH2 0x1A6 SWAP2 SWAP1 PUSH2 0xAC6 JUMP JUMPDEST PUSH1 0x40 MLOAD DUP1 SWAP2 SUB SWAP1 RETURN JUMPDEST PUSH2 0x1C9 PUSH1 0x4 DUP1 CALLDATASIZE SUB DUP2 ADD SWAP1 PUSH2 0x1C4 SWAP2 SWAP1 PUSH2 0xCDC JUMP JUMPDEST PUSH2 0x8A3 JUMP JUMPDEST STOP JUMPDEST PUSH2 0x1D3 PUSH2 0x906 JUMP JUMPDEST PUSH1 0x40 MLOAD PUSH2 0x1E0 SWAP2 SWAP1 PUSH2 0xAC6 JUMP JUMPDEST PUSH1 0x40 MLOAD DUP1 SWAP2 SUB SWAP1 RETURN JUMPDEST PUSH2 0x1F1 PUSH2 0x90C JUMP JUMPDEST PUSH1 0x40 MLOAD PUSH2 0x1FE SWAP2 SWAP1 PUSH2 0xAC6 JUMP JUMPDEST PUSH1 0x40 MLOAD DUP1 SWAP2 SUB SWAP1 RETURN JUMPDEST PUSH1 0x1 DUP2 DUP2 SLOAD DUP2 LT PUSH2 0x217 JUMPI PUSH1 0x0 DUP1 REVERT JUMPDEST SWAP1 PUSH1 0x0 MSTORE PUSH1 0x20 PUSH1 0x0 KECCAK256 SWAP1 PUSH1 0x4 MUL ADD PUSH1 0x0 SWAP2 POP SWAP1 POP DUP1 PUSH1 0x0 ADD DUP1 SLOAD PUSH2 0x23A SWAP1 PUSH2 0xD86 JUMP JUMPDEST DUP1 PUSH1 0x1F ADD PUSH1 0x20 DUP1 SWAP2 DIV MUL PUSH1 0x20 ADD PUSH1 0x40 MLOAD SWAP1 DUP2 ADD PUSH1 0x40 MSTORE DUP1 SWAP3 SWAP2 SWAP1 DUP2 DUP2 MSTORE PUSH1 0x20 ADD DUP3 DUP1 SLOAD PUSH2 0x266 SWAP1 PUSH2 0xD86 JUMP JUMPDEST DUP1 ISZERO PUSH2 0x2B3 JUMPI DUP1 PUSH1 0x1F LT PUSH2 0x288 JUMPI PUSH2 0x100 DUP1 DUP4 SLOAD DIV MUL DUP4 MSTORE SWAP2 PUSH1 0x20 ADD SWAP2 PUSH2 0x2B3 JUMP JUMPDEST DUP3 ADD SWAP2 SWAP1 PUSH1 0x0 MSTORE PUSH1 0x20 PUSH1 0x0 KECCAK256 SWAP1 JUMPDEST DUP2 SLOAD DUP2 MSTORE SWAP1 PUSH1 0x1 ADD SWAP1 PUSH1 0x20 ADD DUP1 DUP4 GT PUSH2 0x296 JUMPI DUP3 SWAP1 SUB PUSH1 0x1F AND DUP3 ADD SWAP2 JUMPDEST POP POP POP POP POP SWAP1 DUP1 PUSH1 0x1 ADD PUSH1 0x0 SWAP1 SLOAD SWAP1 PUSH2 0x100 EXP SWAP1 DIV PUSH20 0xFFFFFFFFFFFFFFFFFFFFFFFFFFFFFFFFFFFFFFFF AND SWAP1 DUP1 PUSH1 0x2 ADD SLOAD SWAP1 DUP1 PUSH1 0x3 ADD PUSH1 0x0 SWAP1 SLOAD SWAP1 PUSH2 0x100 EXP SWAP1 DIV PUSH1 0xFF AND SWAP1 POP DUP5 JUMP JUMPDEST PUSH1 0x0 PUSH1 0x1 DUP1 SLOAD SWAP1 POP SWAP1 POP SWAP1 JUMP JUMPDEST TIMESTAMP PUSH1 0x4 SLOAD PUSH1 0x2 SLOAD PUSH2 0x31A SWAP2 SWAP1 PUSH2 0xDE6 JUMP JUMPDEST GT DUP1 PUSH2 0x334 JUMPI POP PUSH1 0x5 SLOAD PUSH1 0x2 SLOAD PUSH2 0x331 SWAP2 SWAP1 PUSH2 0xDE6 JUMP JUMPDEST TIMESTAMP GT JUMPDEST ISZERO PUSH2 0x36B JUMPI PUSH1 0x40 MLOAD PUSH32 0x1FD2F97200000000000000000000000000000000000000000000000000000000 DUP2 MSTORE PUSH1 0x4 ADD PUSH1 0x40 MLOAD DUP1 SWAP2 SUB SWAP1 REVERT JUMPDEST PUSH1 0x1 DUP1 SLOAD SWAP1 POP DUP3 DUP3 SWAP1 POP EQ PUSH2 0x3B5 JUMPI PUSH1 0x40 MLOAD PUSH32 0x8C379A000000000000000000000000000000000000000000000000000000000 DUP2 MSTORE PUSH1 0x4 ADD PUSH2 0x3AC SWAP1 PUSH2 0xE66 JUMP JUMPDEST PUSH1 0x40 MLOAD DUP1 SWAP2 SUB SWAP1 REVERT JUMPDEST PUSH1 0x0 DUP1 SLOAD SWAP1 PUSH2 0x100 EXP SWAP1 DIV PUSH20 0xFFFFFFFFFFFFFFFFFFFFFFFFFFFFFFFFFFFFFFFF AND PUSH20 0xFFFFFFFFFFFFFFFFFFFFFFFFFFFFFFFFFFFFFFFF AND PUSH4 0x23B872DD CALLER ADDRESS PUSH8 0xDE0B6B3A7640000 PUSH1 0x40 MLOAD DUP5 PUSH4 0xFFFFFFFF AND PUSH1 0xE0 SHL DUP2 MSTORE PUSH1 0x4 ADD PUSH2 0x41A SWAP4 SWAP3 SWAP2 SWAP1 PUSH2 0xEC1 JUMP JUMPDEST PUSH1 0x20 PUSH1 0x40 MLOAD DUP1 DUP4 SUB DUP2 PUSH1 0x0 DUP8 GAS CALL ISZERO DUP1 ISZERO PUSH2 0x439 JUMPI RETURNDATASIZE PUSH1 0x0 DUP1 RETURNDATACOPY RETURNDATASIZE PUSH1 0x0 REVERT JUMPDEST POP POP POP POP PUSH1 0x40 MLOAD RETURNDATASIZE PUSH1 0x1F NOT PUSH1 0x1F DUP3 ADD AND DUP3 ADD DUP1 PUSH1 0x40 MSTORE POP DUP2 ADD SWAP1 PUSH2 0x45D SWAP2 SWAP1 PUSH2 0xF24 JUMP JUMPDEST PUSH2 0x49C JUMPI PUSH1 0x40 MLOAD PUSH32 0x8C379A000000000000000000000000000000000000000000000000000000000 DUP2 MSTORE PUSH1 0x4 ADD PUSH2 0x493 SWAP1 PUSH2 0xF9D JUMP JUMPDEST PUSH1 0x40 MLOAD DUP1 SWAP2 SUB SWAP1 REVERT JUMPDEST PUSH1 0x1 PUSH1 0x6 PUSH1 0x0 DUP3 DUP3 SLOAD PUSH2 0x4AF SWAP2 SWAP1 PUSH2 0xDE6 JUMP JUMPDEST SWAP3 POP POP DUP2 SWAP1 SSTORE POP PUSH1 0x0 JUMPDEST DUP3 DUP3 SWAP1 POP DUP2 LT ISZERO PUSH2 0x679 JUMPI CALLDATASIZE DUP4 DUP4 DUP4 DUP2 DUP2 LT PUSH2 0x4D8 JUMPI PUSH2 0x4D7 PUSH2 0xFBD JUMP JUMPDEST JUMPDEST SWAP1 POP PUSH1 0x40 MUL ADD SWAP1 POP PUSH1 0x0 DUP2 PUSH1 0x20 ADD PUSH1 0x20 DUP2 ADD SWAP1 PUSH2 0x4F5 SWAP2 SWAP1 PUSH2 0x1025 JUMP JUMPDEST PUSH1 0xFF AND EQ DUP1 PUSH2 0x519 JUMPI POP PUSH1 0x1 DUP2 PUSH1 0x20 ADD PUSH1 0x20 DUP2 ADD SWAP1 PUSH2 0x514 SWAP2 SWAP1 PUSH2 0x1025 JUMP JUMPDEST PUSH1 0xFF AND EQ JUMPDEST PUSH2 0x558 JUMPI PUSH1 0x40 MLOAD PUSH32 0x8C379A000000000000000000000000000000000000000000000000000000000 DUP2 MSTORE PUSH1 0x4 ADD PUSH2 0x54F SWAP1 PUSH2 0x109E JUMP JUMPDEST PUSH1 0x40 MLOAD DUP1 SWAP2 SUB SWAP1 REVERT JUMPDEST DUP1 PUSH1 0x20 ADD PUSH1 0x20 DUP2 ADD SWAP1 PUSH2 0x56B SWAP2 SWAP1 PUSH2 0x1025 JUMP JUMPDEST PUSH1 0xFF AND PUSH1 0x1 DUP4 DUP2 SLOAD DUP2 LT PUSH2 0x582 JUMPI PUSH2 0x581 PUSH2 0xFBD JUMP JUMPDEST JUMPDEST SWAP1 PUSH1 0x0 MSTORE PUSH1 0x20 PUSH1 0x0 KECCAK256 SWAP1 PUSH1 0x4 MUL ADD PUSH1 0x2 ADD PUSH1 0x0 DUP3 DUP3 SLOAD PUSH2 0x5A2 SWAP2 SWAP1 PUSH2 0xDE6 JUMP JUMPDEST SWAP3 POP POP DUP2 SWAP1 SSTORE POP PUSH1 0x1 DUP3 DUP2 SLOAD DUP2 LT PUSH2 0x5BD JUMPI PUSH2 0x5BC PUSH2 0xFBD JUMP JUMPDEST JUMPDEST SWAP1 PUSH1 0x0 MSTORE PUSH1 0x20 PUSH1 0x0 KECCAK256 SWAP1 PUSH1 0x4 MUL ADD PUSH1 0x1 ADD PUSH1 0x0 SWAP1 SLOAD SWAP1 PUSH2 0x100 EXP SWAP1 DIV PUSH20 0xFFFFFFFFFFFFFFFFFFFFFFFFFFFFFFFFFFFFFFFF AND PUSH20 0xFFFFFFFFFFFFFFFFFFFFFFFFFFFFFFFFFFFFFFFF AND CALLER PUSH20 0xFFFFFFFFFFFFFFFFFFFFFFFFFFFFFFFFFFFFFFFF AND PUSH32 0x295C2EECB6286510CBCCE4B1C262B5CA41926994DC773DB67C91F036BBF3D88F DUP4 PUSH1 0x20 ADD PUSH1 0x20 DUP2 ADD SWAP1 PUSH2 0x650 SWAP2 SWAP1 PUSH2 0x1025 JUMP JUMPDEST PUSH1 0x40 MLOAD PUSH2 0x65D SWAP2 SWAP1 PUSH2 0x10CD JUMP JUMPDEST PUSH1 0x40 MLOAD DUP1 SWAP2 SUB SWAP1 LOG3 POP DUP1 DUP1 PUSH2 0x671 SWAP1 PUSH2 0x10E8 JUMP JUMPDEST SWAP2 POP POP PUSH2 0x4B9 JUMP JUMPDEST POP POP POP JUMP JUMPDEST TIMESTAMP PUSH1 0x4 SLOAD PUSH1 0x2 SLOAD PUSH2 0x68F SWAP2 SWAP1 PUSH2 0xDE6 JUMP JUMPDEST LT DUP1 PUSH2 0x6A9 JUMPI POP PUSH1 0x3 SLOAD PUSH1 0x2 SLOAD PUSH2 0x6A6 SWAP2 SWAP1 PUSH2 0xDE6 JUMP JUMPDEST TIMESTAMP LT JUMPDEST ISZERO PUSH2 0x6E0 JUMPI PUSH1 0x40 MLOAD PUSH32 0x3B21115800000000000000000000000000000000000000000000000000000000 DUP2 MSTORE PUSH1 0x4 ADD PUSH1 0x40 MLOAD DUP1 SWAP2 SUB SWAP1 REVERT JUMPDEST PUSH1 0x0 PUSH1 0x40 MLOAD DUP1 PUSH1 0x80 ADD PUSH1 0x40 MSTORE DUP1 DUP5 DUP5 DUP1 DUP1 PUSH1 0x1F ADD PUSH1 0x20 DUP1 SWAP2 DIV MUL PUSH1 0x20 ADD PUSH1 0x40 MLOAD SWAP1 DUP2 ADD PUSH1 0x40 MSTORE DUP1 SWAP4 SWAP3 SWAP2 SWAP1 DUP2 DUP2 MSTORE PUSH1 0x20 ADD DUP4 DUP4 DUP1 DUP3 DUP5 CALLDATACOPY PUSH1 0x0 DUP2 DUP5 ADD MSTORE PUSH1 0x1F NOT PUSH1 0x1F DUP3 ADD AND SWAP1 POP DUP1 DUP4 ADD SWAP3 POP POP POP POP POP POP POP DUP2 MSTORE PUSH1 0x20 ADD CALLER PUSH20 0xFFFFFFFFFFFFFFFFFFFFFFFFFFFFFFFFFFFFFFFF AND DUP2 MSTORE PUSH1 0x20 ADD PUSH1 0x0 DUP2 MSTORE PUSH1 0x20 ADD PUSH1 0x0 ISZERO ISZERO DUP2 MSTORE POP SWAP1 POP PUSH1 0x1 DUP2 SWAP1 DUP1 PUSH1 0x1 DUP2 SLOAD ADD DUP1 DUP3 SSTORE DUP1 SWAP2 POP POP PUSH1 0x1 SWAP1 SUB SWAP1 PUSH1 0x0 MSTORE PUSH1 0x20 PUSH1 0x0 KECCAK256 SWAP1 PUSH1 0x4 MUL ADD PUSH1 0x0 SWAP1 SWAP2 SWAP1 SWAP2 SWAP1 SWAP2 POP PUSH1 0x0 DUP3 ADD MLOAD DUP2 PUSH1 0x0 ADD SWAP1 DUP2 PUSH2 0x7A4 SWAP2 SWAP1 PUSH2 0x1301 JUMP JUMPDEST POP PUSH1 0x20 DUP3 ADD MLOAD DUP2 PUSH1 0x1 ADD PUSH1 0x0 PUSH2 0x100 EXP DUP2 SLOAD DUP2 PUSH20 0xFFFFFFFFFFFFFFFFFFFFFFFFFFFFFFFFFFFFFFFF MUL NOT AND SWAP1 DUP4 PUSH20 0xFFFFFFFFFFFFFFFFFFFFFFFFFFFFFFFFFFFFFFFF AND MUL OR SWAP1 SSTORE POP PUSH1 0x40 DUP3 ADD MLOAD DUP2 PUSH1 0x2 ADD SSTORE PUSH1 0x60 DUP3 ADD MLOAD DUP2 PUSH1 0x3 ADD PUSH1 0x0 PUSH2 0x100 EXP DUP2 SLOAD DUP2 PUSH1 0xFF MUL NOT AND SWAP1 DUP4 ISZERO ISZERO MUL OR SWAP1 SSTORE POP POP POP CALLER PUSH20 0xFFFFFFFFFFFFFFFFFFFFFFFFFFFFFFFFFFFFFFFF AND PUSH32 0xD1EFE34A534B4D45759BB8D8F7C24CB8B465B18CF3E3710C3DC9D70DDD2B2930 DUP5 DUP5 PUSH1 0x40 MLOAD PUSH2 0x860 SWAP3 SWAP2 SWAP1 PUSH2 0x140F JUMP JUMPDEST PUSH1 0x40 MLOAD DUP1 SWAP2 SUB SWAP1 LOG2 POP POP POP JUMP JUMPDEST PUSH1 0x2 SLOAD DUP2 JUMP JUMPDEST PUSH1 0x0 DUP1 SLOAD SWAP1 PUSH2 0x100 EXP SWAP1 DIV PUSH20 0xFFFFFFFFFFFFFFFFFFFFFFFFFFFFFFFFFFFFFFFF AND DUP2 JUMP JUMPDEST PUSH1 0x5 SLOAD DUP2 JUMP JUMPDEST PUSH1 0x3 SLOAD DUP2 JUMP JUMPDEST DUP4 PUSH1 0x3 DUP2 SWAP1 SSTORE POP DUP3 PUSH1 0x4 DUP2 SWAP1 SSTORE POP DUP2 PUSH1 0x5 DUP2 SWAP1 SSTORE POP DUP5 PUSH1 0x2 DUP2 SWAP1 SSTORE POP DUP1 PUSH1 0x0 DUP1 PUSH2 0x100 EXP DUP2 SLOAD DUP2 PUSH20 0xFFFFFFFFFFFFFFFFFFFFFFFFFFFFFFFFFFFFFFFF MUL NOT AND SWAP1 DUP4 PUSH20 0xFFFFFFFFFFFFFFFFFFFFFFFFFFFFFFFFFFFFFFFF AND MUL OR SWAP1 SSTORE POP POP POP POP POP POP JUMP JUMPDEST PUSH1 0x6 SLOAD DUP2 JUMP JUMPDEST PUSH1 0x4 SLOAD DUP2 JUMP JUMPDEST PUSH1 0x0 DUP1 REVERT JUMPDEST PUSH1 0x0 DUP1 REVERT JUMPDEST PUSH1 0x0 DUP2 SWAP1 POP SWAP2 SWAP1 POP JUMP JUMPDEST PUSH2 0x92F DUP2 PUSH2 0x91C JUMP JUMPDEST DUP2 EQ PUSH2 0x93A JUMPI PUSH1 0x0 DUP1 REVERT JUMPDEST POP JUMP JUMPDEST PUSH1 0x0 DUP2 CALLDATALOAD SWAP1 POP PUSH2 0x94C DUP2 PUSH2 0x926 JUMP JUMPDEST SWAP3 SWAP2 POP POP JUMP JUMPDEST PUSH1 0x0 PUSH1 0x20 DUP3 DUP5 SUB SLT ISZERO PUSH2 0x968 JUMPI PUSH2 0x967 PUSH2 0x912 JUMP JUMPDEST JUMPDEST PUSH1 0x0 PUSH2 0x976 DUP5 DUP3 DUP6 ADD PUSH2 0x93D JUMP JUMPDEST SWAP2 POP POP SWAP3 SWAP2 POP POP JUMP JUMPDEST PUSH1 0x0 DUP2 MLOAD SWAP1 POP SWAP2 SWAP1 POP JUMP JUMPDEST PUSH1 0x0 DUP3 DUP3 MSTORE PUSH1 0x20 DUP3 ADD SWAP1 POP SWAP3 SWAP2 POP POP JUMP JUMPDEST PUSH1 0x0 JUMPDEST DUP4 DUP2 LT ISZERO PUSH2 0x9B9 JUMPI DUP1 DUP3 ADD MLOAD DUP2 DUP5 ADD MSTORE PUSH1 0x20 DUP2 ADD SWAP1 POP PUSH2 0x99E JUMP JUMPDEST PUSH1 0x0 DUP5 DUP5 ADD MSTORE POP POP POP POP JUMP JUMPDEST PUSH1 0x0 PUSH1 0x1F NOT PUSH1 0x1F DUP4 ADD AND SWAP1 POP SWAP2 SWAP1 POP JUMP JUMPDEST PUSH1 0x0 PUSH2 0x9E1 DUP3 PUSH2 0x97F JUMP JUMPDEST PUSH2 0x9EB DUP2 DUP6 PUSH2 0x98A JUMP JUMPDEST SWAP4 POP PUSH2 0x9FB DUP2 DUP6 PUSH1 0x20 DUP7 ADD PUSH2 0x99B JUMP JUMPDEST PUSH2 0xA04 DUP2 PUSH2 0x9C5 JUMP JUMPDEST DUP5 ADD SWAP2 POP POP SWAP3 SWAP2 POP POP JUMP JUMPDEST PUSH1 0x0 PUSH20 0xFFFFFFFFFFFFFFFFFFFFFFFFFFFFFFFFFFFFFFFF DUP3 AND SWAP1 POP SWAP2 SWAP1 POP JUMP JUMPDEST PUSH1 0x0 PUSH2 0xA3A DUP3 PUSH2 0xA0F JUMP JUMPDEST SWAP1 POP SWAP2 SWAP1 POP JUMP JUMPDEST PUSH2 0xA4A DUP2 PUSH2 0xA2F JUMP JUMPDEST DUP3 MSTORE POP POP JUMP JUMPDEST PUSH2 0xA59 DUP2 PUSH2 0x91C JUMP JUMPDEST DUP3 MSTORE POP POP JUMP JUMPDEST PUSH1 0x0 DUP2 ISZERO ISZERO SWAP1 POP SWAP2 SWAP1 POP JUMP JUMPDEST PUSH2 0xA74 DUP2 PUSH2 0xA5F JUMP JUMPDEST DUP3 MSTORE POP POP JUMP JUMPDEST PUSH1 0x0 PUSH1 0x80 DUP3 ADD SWAP1 POP DUP2 DUP2 SUB PUSH1 0x0 DUP4 ADD MSTORE PUSH2 0xA94 DUP2 DUP8 PUSH2 0x9D6 JUMP JUMPDEST SWAP1 POP PUSH2 0xAA3 PUSH1 0x20 DUP4 ADD DUP7 PUSH2 0xA41 JUMP JUMPDEST PUSH2 0xAB0 PUSH1 0x40 DUP4 ADD DUP6 PUSH2 0xA50 JUMP JUMPDEST PUSH2 0xABD PUSH1 0x60 DUP4 ADD DUP5 PUSH2 0xA6B JUMP JUMPDEST SWAP6 SWAP5 POP POP POP POP POP JUMP JUMPDEST PUSH1 0x0 PUSH1 0x20 DUP3 ADD SWAP1 POP PUSH2 0xADB PUSH1 0x0 DUP4 ADD DUP5 PUSH2 0xA50 JUMP JUMPDEST SWAP3 SWAP2 POP POP JUMP JUMPDEST PUSH1 0x0 DUP1 REVERT JUMPDEST PUSH1 0x0 DUP1 REVERT JUMPDEST PUSH1 0x0 DUP1 REVERT JUMPDEST PUSH1 0x0 DUP1 DUP4 PUSH1 0x1F DUP5 ADD SLT PUSH2 0xB06 JUMPI PUSH2 0xB05 PUSH2 0xAE1 JUMP JUMPDEST JUMPDEST DUP3 CALLDATALOAD SWAP1 POP PUSH8 0xFFFFFFFFFFFFFFFF DUP2 GT ISZERO PUSH2 0xB23 JUMPI PUSH2 0xB22 PUSH2 0xAE6 JUMP JUMPDEST JUMPDEST PUSH1 0x20 DUP4 ADD SWAP2 POP DUP4 PUSH1 0x40 DUP3 MUL DUP4 ADD GT ISZERO PUSH2 0xB3F JUMPI PUSH2 0xB3E PUSH2 0xAEB JUMP JUMPDEST JUMPDEST SWAP3 POP SWAP3 SWAP1 POP JUMP JUMPDEST PUSH1 0x0 DUP1 PUSH1 0x20 DUP4 DUP6 SUB SLT ISZERO PUSH2 0xB5D JUMPI PUSH2 0xB5C PUSH2 0x912 JUMP JUMPDEST JUMPDEST PUSH1 0x0 DUP4 ADD CALLDATALOAD PUSH8 0xFFFFFFFFFFFFFFFF DUP2 GT ISZERO PUSH2 0xB7B JUMPI PUSH2 0xB7A PUSH2 0x917 JUMP JUMPDEST JUMPDEST PUSH2 0xB87 DUP6 DUP3 DUP7 ADD PUSH2 0xAF0 JUMP JUMPDEST SWAP3 POP SWAP3 POP POP SWAP3 POP SWAP3 SWAP1 POP JUMP JUMPDEST PUSH1 0x0 DUP1 DUP4 PUSH1 0x1F DUP5 ADD SLT PUSH2 0xBA9 JUMPI PUSH2 0xBA8 PUSH2 0xAE1 JUMP JUMPDEST JUMPDEST DUP3 CALLDATALOAD SWAP1 POP PUSH8 0xFFFFFFFFFFFFFFFF DUP2 GT ISZERO PUSH2 0xBC6 JUMPI PUSH2 0xBC5 PUSH2 0xAE6 JUMP JUMPDEST JUMPDEST PUSH1 0x20 DUP4 ADD SWAP2 POP DUP4 PUSH1 0x1 DUP3 MUL DUP4 ADD GT ISZERO PUSH2 0xBE2 JUMPI PUSH2 0xBE1 PUSH2 0xAEB JUMP JUMPDEST JUMPDEST SWAP3 POP SWAP3 SWAP1 POP JUMP JUMPDEST PUSH1 0x0 DUP1 PUSH1 0x20 DUP4 DUP6 SUB SLT ISZERO PUSH2 0xC00 JUMPI PUSH2 0xBFF PUSH2 0x912 JUMP JUMPDEST JUMPDEST PUSH1 0x0 DUP4 ADD CALLDATALOAD PUSH8 0xFFFFFFFFFFFFFFFF DUP2 GT ISZERO PUSH2 0xC1E JUMPI PUSH2 0xC1D PUSH2 0x917 JUMP JUMPDEST JUMPDEST PUSH2 0xC2A DUP6 DUP3 DUP7 ADD PUSH2 0xB93 JUMP JUMPDEST SWAP3 POP SWAP3 POP POP SWAP3 POP SWAP3 SWAP1 POP JUMP JUMPDEST PUSH1 0x0 DUP2 SWAP1 POP SWAP2 SWAP1 POP JUMP JUMPDEST PUSH1 0x0 PUSH2 0xC5B PUSH2 0xC56 PUSH2 0xC51 DUP5 PUSH2 0xA0F JUMP JUMPDEST PUSH2 0xC36 JUMP JUMPDEST PUSH2 0xA0F JUMP JUMPDEST SWAP1 POP SWAP2 SWAP1 POP JUMP JUMPDEST PUSH1 0x0 PUSH2 0xC6D DUP3 PUSH2 0xC40 JUMP JUMPDEST SWAP1 POP SWAP2 SWAP1 POP JUMP JUMPDEST PUSH1 0x0 PUSH2 0xC7F DUP3 PUSH2 0xC62 JUMP JUMPDEST SWAP1 POP SWAP2 SWAP1 POP JUMP JUMPDEST PUSH2 0xC8F DUP2 PUSH2 0xC74 JUMP JUMPDEST DUP3 MSTORE POP POP JUMP JUMPDEST PUSH1 0x0 PUSH1 0x20 DUP3 ADD SWAP1 POP PUSH2 0xCAA PUSH1 0x0 DUP4 ADD DUP5 PUSH2 0xC86 JUMP JUMPDEST SWAP3 SWAP2 POP POP JUMP JUMPDEST PUSH2 0xCB9 DUP2 PUSH2 0xA2F JUMP JUMPDEST DUP2 EQ PUSH2 0xCC4 JUMPI PUSH1 0x0 DUP1 REVERT JUMPDEST POP JUMP JUMPDEST PUSH1 0x0 DUP2 CALLDATALOAD SWAP1 POP PUSH2 0xCD6 DUP2 PUSH2 0xCB0 JUMP JUMPDEST SWAP3 SWAP2 POP POP JUMP JUMPDEST PUSH1 0x0 DUP1 PUSH1 0x0 DUP1 PUSH1 0x0 PUSH1 0xA0 DUP7 DUP9 SUB SLT ISZERO PUSH2 0xCF8 JUMPI PUSH2 0xCF7 PUSH2 0x912 JUMP JUMPDEST JUMPDEST PUSH1 0x0 PUSH2 0xD06 DUP9 DUP3 DUP10 ADD PUSH2 0x93D JUMP JUMPDEST SWAP6 POP POP PUSH1 0x20 PUSH2 0xD17 DUP9 DUP3 DUP10 ADD PUSH2 0x93D JUMP JUMPDEST SWAP5 POP POP PUSH1 0x40 PUSH2 0xD28 DUP9 DUP3 DUP10 ADD PUSH2 0x93D JUMP JUMPDEST SWAP4 POP POP PUSH1 0x60 PUSH2 0xD39 DUP9 DUP3 DUP10 ADD PUSH2 0x93D JUMP JUMPDEST SWAP3 POP POP PUSH1 0x80 PUSH2 0xD4A DUP9 DUP3 DUP10 ADD PUSH2 0xCC7 JUMP JUMPDEST SWAP2 POP POP SWAP3 SWAP6 POP SWAP3 SWAP6 SWAP1 SWAP4 POP JUMP JUMPDEST PUSH32 0x4E487B7100000000000000000000000000000000000000000000000000000000 PUSH1 0x0 MSTORE PUSH1 0x22 PUSH1 0x4 MSTORE PUSH1 0x24 PUSH1 0x0 REVERT JUMPDEST PUSH1 0x0 PUSH1 0x2 DUP3 DIV SWAP1 POP PUSH1 0x1 DUP3 AND DUP1 PUSH2 0xD9E JUMPI PUSH1 0x7F DUP3 AND SWAP2 POP JUMPDEST PUSH1 0x20 DUP3 LT DUP2 SUB PUSH2 0xDB1 JUMPI PUSH2 0xDB0 PUSH2 0xD57 JUMP JUMPDEST JUMPDEST POP SWAP2 SWAP1 POP JUMP JUMPDEST PUSH32 0x4E487B7100000000000000000000000000000000000000000000000000000000 PUSH1 0x0 MSTORE PUSH1 0x11 PUSH1 0x4 MSTORE PUSH1 0x24 PUSH1 0x0 REVERT JUMPDEST PUSH1 0x0 PUSH2 0xDF1 DUP3 PUSH2 0x91C JUMP JUMPDEST SWAP2 POP PUSH2 0xDFC DUP4 PUSH2 0x91C JUMP JUMPDEST SWAP3 POP DUP3 DUP3 ADD SWAP1 POP DUP1 DUP3 GT ISZERO PUSH2 0xE14 JUMPI PUSH2 0xE13 PUSH2 0xDB7 JUMP JUMPDEST JUMPDEST SWAP3 SWAP2 POP POP JUMP JUMPDEST PUSH32 0x496E76616C6964206E756D626572206F6620766F746573000000000000000000 PUSH1 0x0 DUP3 ADD MSTORE POP JUMP JUMPDEST PUSH1 0x0 PUSH2 0xE50 PUSH1 0x17 DUP4 PUSH2 0x98A JUMP JUMPDEST SWAP2 POP PUSH2 0xE5B DUP3 PUSH2 0xE1A JUMP JUMPDEST PUSH1 0x20 DUP3 ADD SWAP1 POP SWAP2 SWAP1 POP JUMP JUMPDEST PUSH1 0x0 PUSH1 0x20 DUP3 ADD SWAP1 POP DUP2 DUP2 SUB PUSH1 0x0 DUP4 ADD MSTORE PUSH2 0xE7F DUP2 PUSH2 0xE43 JUMP JUMPDEST SWAP1 POP SWAP2 SWAP1 POP JUMP JUMPDEST PUSH1 0x0 DUP2 SWAP1 POP SWAP2 SWAP1 POP JUMP JUMPDEST PUSH1 0x0 PUSH2 0xEAB PUSH2 0xEA6 PUSH2 0xEA1 DUP5 PUSH2 0xE86 JUMP JUMPDEST PUSH2 0xC36 JUMP JUMPDEST PUSH2 0x91C JUMP JUMPDEST SWAP1 POP SWAP2 SWAP1 POP JUMP JUMPDEST PUSH2 0xEBB DUP2 PUSH2 0xE90 JUMP JUMPDEST DUP3 MSTORE POP POP JUMP JUMPDEST PUSH1 0x0 PUSH1 0x60 DUP3 ADD SWAP1 POP PUSH2 0xED6 PUSH1 0x0 DUP4 ADD DUP7 PUSH2 0xA41 JUMP JUMPDEST PUSH2 0xEE3 PUSH1 0x20 DUP4 ADD DUP6 PUSH2 0xA41 JUMP JUMPDEST PUSH2 0xEF0 PUSH1 0x40 DUP4 ADD DUP5 PUSH2 0xEB2 JUMP JUMPDEST SWAP5 SWAP4 POP POP POP POP JUMP JUMPDEST PUSH2 0xF01 DUP2 PUSH2 0xA5F JUMP JUMPDEST DUP2 EQ PUSH2 0xF0C JUMPI PUSH1 0x0 DUP1 REVERT JUMPDEST POP JUMP JUMPDEST PUSH1 0x0 DUP2 MLOAD SWAP1 POP PUSH2 0xF1E DUP2 PUSH2 0xEF8 JUMP JUMPDEST SWAP3 SWAP2 POP POP JUMP JUMPDEST PUSH1 0x0 PUSH1 0x20 DUP3 DUP5 SUB SLT ISZERO PUSH2 0xF3A JUMPI PUSH2 0xF39 PUSH2 0x912 JUMP JUMPDEST JUMPDEST PUSH1 0x0 PUSH2 0xF48 DUP5 DUP3 DUP6 ADD PUSH2 0xF0F JUMP JUMPDEST SWAP2 POP POP SWAP3 SWAP2 POP POP JUMP JUMPDEST PUSH32 0x4E6F20766F74657320617661696C61626C650000000000000000000000000000 PUSH1 0x0 DUP3 ADD MSTORE POP JUMP JUMPDEST PUSH1 0x0 PUSH2 0xF87 PUSH1 0x12 DUP4 PUSH2 0x98A JUMP JUMPDEST SWAP2 POP PUSH2 0xF92 DUP3 PUSH2 0xF51 JUMP JUMPDEST PUSH1 0x20 DUP3 ADD SWAP1 POP SWAP2 SWAP1 POP JUMP JUMPDEST PUSH1 0x0 PUSH1 0x20 DUP3 ADD SWAP1 POP DUP2 DUP2 SUB PUSH1 0x0 DUP4 ADD MSTORE PUSH2 0xFB6 DUP2 PUSH2 0xF7A JUMP JUMPDEST SWAP1 POP SWAP2 SWAP1 POP JUMP JUMPDEST PUSH32 0x4E487B7100000000000000000000000000000000000000000000000000000000 PUSH1 0x0 MSTORE PUSH1 0x32 PUSH1 0x4 MSTORE PUSH1 0x24 PUSH1 0x0 REVERT JUMPDEST PUSH1 0x0 PUSH1 0xFF DUP3 AND SWAP1 POP SWAP2 SWAP1 POP JUMP JUMPDEST PUSH2 0x1002 DUP2 PUSH2 0xFEC JUMP JUMPDEST DUP2 EQ PUSH2 0x100D JUMPI PUSH1 0x0 DUP1 REVERT JUMPDEST POP JUMP JUMPDEST PUSH1 0x0 DUP2 CALLDATALOAD SWAP1 POP PUSH2 0x101F DUP2 PUSH2 0xFF9 JUMP JUMPDEST SWAP3 SWAP2 POP POP JUMP JUMPDEST PUSH1 0x0 PUSH1 0x20 DUP3 DUP5 SUB SLT ISZERO PUSH2 0x103B JUMPI PUSH2 0x103A PUSH2 0x912 JUMP JUMPDEST JUMPDEST PUSH1 0x0 PUSH2 0x1049 DUP5 DUP3 DUP6 ADD PUSH2 0x1010 JUMP JUMPDEST SWAP2 POP POP SWAP3 SWAP2 POP POP JUMP JUMPDEST PUSH32 0x496E76616C696420766F7465206465636973696F6E0000000000000000000000 PUSH1 0x0 DUP3 ADD MSTORE POP JUMP JUMPDEST PUSH1 0x0 PUSH2 0x1088 PUSH1 0x15 DUP4 PUSH2 0x98A JUMP JUMPDEST SWAP2 POP PUSH2 0x1093 DUP3 PUSH2 0x1052 JUMP JUMPDEST PUSH1 0x20 DUP3 ADD SWAP1 POP SWAP2 SWAP1 POP JUMP JUMPDEST PUSH1 0x0 PUSH1 0x20 DUP3 ADD SWAP1 POP DUP2 DUP2 SUB PUSH1 0x0 DUP4 ADD MSTORE PUSH2 0x10B7 DUP2 PUSH2 0x107B JUMP JUMPDEST SWAP1 POP SWAP2 SWAP1 POP JUMP JUMPDEST PUSH2 0x10C7 DUP2 PUSH2 0xFEC JUMP JUMPDEST DUP3 MSTORE POP POP JUMP JUMPDEST PUSH1 0x0 PUSH1 0x20 DUP3 ADD SWAP1 POP PUSH2 0x10E2 PUSH1 0x0 DUP4 ADD DUP5 PUSH2 0x10BE JUMP JUMPDEST SWAP3 SWAP2 POP POP JUMP JUMPDEST PUSH1 0x0 PUSH2 0x10F3 DUP3 PUSH2 0x91C JUMP JUMPDEST SWAP2 POP PUSH32 0xFFFFFFFFFFFFFFFFFFFFFFFFFFFFFFFFFFFFFFFFFFFFFFFFFFFFFFFFFFFFFFFF DUP3 SUB PUSH2 0x1125 JUMPI PUSH2 0x1124 PUSH2 0xDB7 JUMP JUMPDEST JUMPDEST PUSH1 0x1 DUP3 ADD SWAP1 POP SWAP2 SWAP1 POP JUMP JUMPDEST PUSH32 0x4E487B7100000000000000000000000000000000000000000000000000000000 PUSH1 0x0 MSTORE PUSH1 0x41 PUSH1 0x4 MSTORE PUSH1 0x24 PUSH1 0x0 REVERT JUMPDEST PUSH1 0x0 DUP2 SWAP1 POP DUP2 PUSH1 0x0 MSTORE PUSH1 0x20 PUSH1 0x0 KECCAK256 SWAP1 POP SWAP2 SWAP1 POP JUMP JUMPDEST PUSH1 0x0 PUSH1 0x20 PUSH1 0x1F DUP4 ADD DIV SWAP1 POP SWAP2 SWAP1 POP JUMP JUMPDEST PUSH1 0x0 DUP3 DUP3 SHL SWAP1 POP SWAP3 SWAP2 POP POP JUMP JUMPDEST PUSH1 0x0 PUSH1 0x8 DUP4 MUL PUSH2 0x11C1 PUSH32 0xFFFFFFFFFFFFFFFFFFFFFFFFFFFFFFFFFFFFFFFFFFFFFFFFFFFFFFFFFFFFFFFF DUP3 PUSH2 0x1184 JUMP JUMPDEST PUSH2 0x11CB DUP7 DUP4 PUSH2 0x1184 JUMP JUMPDEST SWAP6 POP DUP1 NOT DUP5 AND SWAP4 POP DUP1 DUP7 AND DUP5 OR SWAP3 POP POP POP SWAP4 SWAP3 POP POP POP JUMP JUMPDEST PUSH1 0x0 PUSH2 0x11FE PUSH2 0x11F9 PUSH2 0x11F4 DUP5 PUSH2 0x91C JUMP JUMPDEST PUSH2 0xC36 JUMP JUMPDEST PUSH2 0x91C JUMP JUMPDEST SWAP1 POP SWAP2 SWAP1 POP JUMP JUMPDEST PUSH1 0x0 DUP2 SWAP1 POP SWAP2 SWAP1 POP JUMP JUMPDEST PUSH2 0x1218 DUP4 PUSH2 0x11E3 JUMP JUMPDEST PUSH2 0x122C PUSH2 0x1224 DUP3 PUSH2 0x1205 JUMP JUMPDEST DUP5 DUP5 SLOAD PUSH2 0x1191 JUMP JUMPDEST DUP3 SSTORE POP POP POP POP JUMP JUMPDEST PUSH1 0x0 SWAP1 JUMP JUMPDEST PUSH2 0x1241 PUSH2 0x1234 JUMP JUMPDEST PUSH2 0x124C DUP2 DUP5 DUP5 PUSH2 0x120F JUMP JUMPDEST POP POP POP JUMP JUMPDEST JUMPDEST DUP2 DUP2 LT ISZERO PUSH2 0x1270 JUMPI PUSH2 0x1265 PUSH1 0x0 DUP3 PUSH2 0x1239 JUMP JUMPDEST PUSH1 0x1 DUP2 ADD SWAP1 POP PUSH2 0x1252 JUMP JUMPDEST POP POP JUMP JUMPDEST PUSH1 0x1F DUP3 GT ISZERO PUSH2 0x12B5 JUMPI PUSH2 0x1286 DUP2 PUSH2 0x115F JUMP JUMPDEST PUSH2 0x128F DUP5 PUSH2 0x1174 JUMP JUMPDEST DUP2 ADD PUSH1 0x20 DUP6 LT ISZERO PUSH2 0x129E JUMPI DUP2 SWAP1 POP JUMPDEST PUSH2 0x12B2 PUSH2 0x12AA DUP6 PUSH2 0x1174 JUMP JUMPDEST DUP4 ADD DUP3 PUSH2 0x1251 JUMP JUMPDEST POP POP JUMPDEST POP POP POP JUMP JUMPDEST PUSH1 0x0 DUP3 DUP3 SHR SWAP1 POP SWAP3 SWAP2 POP POP JUMP JUMPDEST PUSH1 0x0 PUSH2 0x12D8 PUSH1 0x0 NOT DUP5 PUSH1 0x8 MUL PUSH2 0x12BA JUMP JUMPDEST NOT DUP1 DUP4 AND SWAP2 POP POP SWAP3 SWAP2 POP POP JUMP JUMPDEST PUSH1 0x0 PUSH2 0x12F1 DUP4 DUP4 PUSH2 0x12C7 JUMP JUMPDEST SWAP2 POP DUP3 PUSH1 0x2 MUL DUP3 OR SWAP1 POP SWAP3 SWAP2 POP POP JUMP JUMPDEST PUSH2 0x130A DUP3 PUSH2 0x97F JUMP JUMPDEST PUSH8 0xFFFFFFFFFFFFFFFF DUP2 GT ISZERO PUSH2 0x1323 JUMPI PUSH2 0x1322 PUSH2 0x1130 JUMP JUMPDEST JUMPDEST PUSH2 0x132D DUP3 SLOAD PUSH2 0xD86 JUMP JUMPDEST PUSH2 0x1338 DUP3 DUP3 DUP6 PUSH2 0x1274 JUMP JUMPDEST PUSH1 0x0 PUSH1 0x20 SWAP1 POP PUSH1 0x1F DUP4 GT PUSH1 0x1 DUP2 EQ PUSH2 0x136B JUMPI PUSH1 0x0 DUP5 ISZERO PUSH2 0x1359 JUMPI DUP3 DUP8 ADD MLOAD SWAP1 POP JUMPDEST PUSH2 0x1363 DUP6 DUP3 PUSH2 0x12E5 JUMP JUMPDEST DUP7 SSTORE POP PUSH2 0x13CB JUMP JUMPDEST PUSH1 0x1F NOT DUP5 AND PUSH2 0x1379 DUP7 PUSH2 0x115F JUMP JUMPDEST PUSH1 0x0 JUMPDEST DUP3 DUP2 LT ISZERO PUSH2 0x13A1 JUMPI DUP5 DUP10 ADD MLOAD DUP3 SSTORE PUSH1 0x1 DUP3 ADD SWAP2 POP PUSH1 0x20 DUP6 ADD SWAP5 POP PUSH1 0x20 DUP2 ADD SWAP1 POP PUSH2 0x137C JUMP JUMPDEST DUP7 DUP4 LT ISZERO PUSH2 0x13BE JUMPI DUP5 DUP10 ADD MLOAD PUSH2 0x13BA PUSH1 0x1F DUP10 AND DUP3 PUSH2 0x12C7 JUMP JUMPDEST DUP4 SSTORE POP JUMPDEST PUSH1 0x1 PUSH1 0x2 DUP9 MUL ADD DUP9 SSTORE POP POP POP JUMPDEST POP POP POP POP POP POP JUMP JUMPDEST DUP3 DUP2 DUP4 CALLDATACOPY PUSH1 0x0 DUP4 DUP4 ADD MSTORE POP POP POP JUMP JUMPDEST PUSH1 0x0 PUSH2 0x13EE DUP4 DUP6 PUSH2 0x98A JUMP JUMPDEST SWAP4 POP PUSH2 0x13FB DUP4 DUP6 DUP5 PUSH2 0x13D3 JUMP JUMPDEST PUSH2 0x1404 DUP4 PUSH2 0x9C5 JUMP JUMPDEST DUP5 ADD SWAP1 POP SWAP4 SWAP3 POP POP POP JUMP JUMPDEST PUSH1 0x0 PUSH1 0x20 DUP3 ADD SWAP1 POP DUP2 DUP2 SUB PUSH1 0x0 DUP4 ADD MSTORE PUSH2 0x142A DUP2 DUP5 DUP7 PUSH2 0x13E2 JUMP JUMPDEST SWAP1 POP SWAP4 SWAP3 POP POP POP JUMP INVALID LOG2 PUSH5 0x6970667358 0x22 SLT KECCAK256 0xE3 PUSH1 0xE1 0xED LOG0 0xDA PUSH15 0x3D0812B9AF63418524190D6BAE1117 PUSH19 0x83F78199C1C703B43C64736F6C634300081100 CALLER "},"methodIdentifiers":{"SUBMISSION_PERIOD()":"f6356d4f","TRANSITION_PERIOD()":"ca9ff629","VOTING_PERIOD()":"b1610d7e","castVote((uint256,uint8)[])":"1fe39da8","castedVotes()":"f1b095b0","hackathonEndTime()":"6ead1acb","proposals(uint256)":"013cf08b","proposalsCount()":"0a9f46ad","setTimes(uint256,uint256,uint256,uint256,address)":"ea1bf4c4","submitProposal(string)":"373d6d5e","votingToken()":"b0340123"}}}}}