{"contracts/Treasury.sol":{"Treasury":{"abi":[{"inputs":[{"internalType":"address","name":"_oracle","type":"address"}],"stateMutability":"nonpayable","type":"constructor"},{"anonymous":false,"inputs":[{"indexed":true,"internalType":"address","name":"recipient","type":"address"},{"indexed":false,"internalType":"uint256","name":"amount","type":"uint256"}],"name":"FundsDistributed","type":"event"},{"anonymous":false,"inputs":[{"components":[{"internalType":"address","name":"proposalOwner","type":"address"},{"internalType":"bool","name":"accepted","type":"bool"}],"indexed":false,"internalType":"struct Treasury.Proposal[]","name":"result","type":"tuple[]"}],"name":"VotingResultSet","type":"event"},{"inputs":[],"name":"distributeFunds","outputs":[],"stateMutability":"nonpayable","type":"function"},{"inputs":[],"name":"oracle","outputs":[{"internalType":"address","name":"","type":"address"}],"stateMutability":"view","type":"function"},{"inputs":[{"internalType":"address[]","name":"_proposalOwners","type":"address[]"},{"internalType":"bool[]","name":"_accepted","type":"bool[]"}],"name":"setVotingResult","outputs":[],"stateMutability":"nonpayable","type":"function"},{"inputs":[{"internalType":"uint256","name":"","type":"uint256"}],"name":"votingResult","outputs":[{"internalType":"address","name":"proposalOwner","type":"address"},{"internalType":"bool","name":"accepted","type":"bool"}],"stateMutability":"view","type":"function"}],"evm":{"bytecode":{"linkReferences":{},"object":"60806040523480156200001157600080fd5b50604051620010f1380380620010f18339818101604052810190620000379190620000e8565b806000806101000a81548173ffffffffffffffffffffffffffffffffffffffff021916908373ffffffffffffffffffffffffffffffffffffffff160217905550506200011a565b600080fd5b600073ffffffffffffffffffffffffffffffffffffffff82169050919050565b6000620000b08262000083565b9050919050565b620000c281620000a3565b8114620000ce57600080fd5b50565b600081519050620000e281620000b7565b92915050565b6000602082840312156200010157620001006200007e565b5b60006200011184828501620000d1565b91505092915050565b610fc7806200012a6000396000f3fe608060405234801561001057600080fd5b506004361061004c5760003560e01c80633a6a4d2e14610051578063587daf141461005b57806361d14051146100775780637dc0d1d0146100a8575b600080fd5b6100596100c6565b005b61007560048036038101906100709190610778565b6103a3565b005b610091600480360381019061008c919061082f565b610632565b60405161009f9291906108b8565b60405180910390f35b6100b061068f565b6040516100bd91906108e1565b60405180910390f35b60006001805490501161010e576040517f08c379a000000000000000000000000000000000000000000000000000000000815260040161010590610959565b60405180910390fd5b6000805b600180549050811015610175576001818154811061013357610132610979565b5b9060005260206000200160000160149054906101000a900460ff161561016257818061015e906109d7565b9250505b808061016d906109d7565b915050610112565b50600081116101b9576040517f08c379a00000000000000000000000000000000000000000000000000000000081526004016101b090610a6b565b60405180910390fd5b600081476101c79190610aba565b905060005b60018054905081101561039e57600181815481106101ed576101ec610979565b5b9060005260206000200160000160149054906101000a900460ff161561038b5760006001828154811061022357610222610979565b5b9060005260206000200160000160009054906101000a900473ffffffffffffffffffffffffffffffffffffffff1673ffffffffffffffffffffffffffffffffffffffff168360405161027490610b1c565b60006040518083038185875af1925050503d80600081146102b1576040519150601f19603f3d011682016040523d82523d6000602084013e6102b6565b606091505b50509050806102fa576040517f08c379a00000000000000000000000000000000000000000000000000000000081526004016102f190610b7d565b60405180910390fd5b6001828154811061030e5761030d610979565b5b9060005260206000200160000160009054906101000a900473ffffffffffffffffffffffffffffffffffffffff1673ffffffffffffffffffffffffffffffffffffffff167f26536799ace2c3dbe12e638ec3ade6b4173dcf1289be0a58d51a5003015649bd846040516103819190610bac565b60405180910390a2505b8080610396906109d7565b9150506101cc565b505050565b8181905084849050146103eb576040517f08c379a00000000000000000000000000000000000000000000000000000000081526004016103e290610c13565b60405180910390fd5b600060018054905014610433576040517f08c379a000000000000000000000000000000000000000000000000000000000815260040161042a90610c7f565b60405180910390fd5b60008054906101000a900473ffffffffffffffffffffffffffffffffffffffff1673ffffffffffffffffffffffffffffffffffffffff163373ffffffffffffffffffffffffffffffffffffffff16146104c1576040517f08c379a00000000000000000000000000000000000000000000000000000000081526004016104b890610d11565b60405180910390fd5b60005b848490508110156105f357600060405180604001604052808787858181106104ef576104ee610979565b5b90506020020160208101906105049190610d5d565b73ffffffffffffffffffffffffffffffffffffffff16815260200185858581811061053257610531610979565b5b90506020020160208101906105479190610db6565b151581525090506001819080600181540180825580915050600190039060005260206000200160009091909190915060008201518160000160006101000a81548173ffffffffffffffffffffffffffffffffffffffff021916908373ffffffffffffffffffffffffffffffffffffffff16021790555060208201518160000160146101000a81548160ff02191690831515021790555050505080806105eb906109d7565b9150506104c4565b507fcec7d2ec437428a90cf67e7e0a29b25843aa749a36ef190230d629848cc3b40c60016040516106249190610f6f565b60405180910390a150505050565b6001818154811061064257600080fd5b906000526020600020016000915090508060000160009054906101000a900473ffffffffffffffffffffffffffffffffffffffff16908060000160149054906101000a900460ff16905082565b60008054906101000a900473ffffffffffffffffffffffffffffffffffffffff1681565b600080fd5b600080fd5b600080fd5b600080fd5b600080fd5b60008083601f8401126106e2576106e16106bd565b5b8235905067ffffffffffffffff8111156106ff576106fe6106c2565b5b60208301915083602082028301111561071b5761071a6106c7565b5b9250929050565b60008083601f840112610738576107376106bd565b5b8235905067ffffffffffffffff811115610755576107546106c2565b5b602083019150836020820283011115610771576107706106c7565b5b9250929050565b60008060008060408587031215610792576107916106b3565b5b600085013567ffffffffffffffff8111156107b0576107af6106b8565b5b6107bc878288016106cc565b9450945050602085013567ffffffffffffffff8111156107df576107de6106b8565b5b6107eb87828801610722565b925092505092959194509250565b6000819050919050565b61080c816107f9565b811461081757600080fd5b50565b60008135905061082981610803565b92915050565b600060208284031215610845576108446106b3565b5b60006108538482850161081a565b91505092915050565b600073ffffffffffffffffffffffffffffffffffffffff82169050919050565b60006108878261085c565b9050919050565b6108978161087c565b82525050565b60008115159050919050565b6108b28161089d565b82525050565b60006040820190506108cd600083018561088e565b6108da60208301846108a9565b9392505050565b60006020820190506108f6600083018461088e565b92915050565b600082825260208201905092915050565b7f566f74696e6720726573756c74206e6f74207365740000000000000000000000600082015250565b60006109436015836108fc565b915061094e8261090d565b602082019050919050565b6000602082019050818103600083015261097281610936565b9050919050565b7f4e487b7100000000000000000000000000000000000000000000000000000000600052603260045260246000fd5b7f4e487b7100000000000000000000000000000000000000000000000000000000600052601160045260246000fd5b60006109e2826107f9565b91507fffffffffffffffffffffffffffffffffffffffffffffffffffffffffffffffff8203610a1457610a136109a8565b5b600182019050919050565b7f4e6f2077696e6e696e672070726f706f73616c73000000000000000000000000600082015250565b6000610a556014836108fc565b9150610a6082610a1f565b602082019050919050565b60006020820190508181036000830152610a8481610a48565b9050919050565b7f4e487b7100000000000000000000000000000000000000000000000000000000600052601260045260246000fd5b6000610ac5826107f9565b9150610ad0836107f9565b925082610ae057610adf610a8b565b5b828204905092915050565b600081905092915050565b50565b6000610b06600083610aeb565b9150610b1182610af6565b600082019050919050565b6000610b2782610af9565b9150819050919050565b7f4661696c656420746f2020776974686472617700000000000000000000000000600082015250565b6000610b676013836108fc565b9150610b7282610b31565b602082019050919050565b60006020820190508181036000830152610b9681610b5a565b9050919050565b610ba6816107f9565b82525050565b6000602082019050610bc16000830184610b9d565b92915050565b7f496e707574206172726179206c656e6774687320646f206e6f74206d61746368600082015250565b6000610bfd6020836108fc565b9150610c0882610bc7565b602082019050919050565b60006020820190508181036000830152610c2c81610bf0565b9050919050565b7f566f74696e6720726573756c7420616c72656164792073657400000000000000600082015250565b6000610c696019836108fc565b9150610c7482610c33565b602082019050919050565b60006020820190508181036000830152610c9881610c5c565b9050919050565b7f4f6e6c79206f7261636c652063616e207365742074686520766f74696e67207260008201527f6573756c74000000000000000000000000000000000000000000000000000000602082015250565b6000610cfb6025836108fc565b9150610d0682610c9f565b604082019050919050565b60006020820190508181036000830152610d2a81610cee565b9050919050565b610d3a8161087c565b8114610d4557600080fd5b50565b600081359050610d5781610d31565b92915050565b600060208284031215610d7357610d726106b3565b5b6000610d8184828501610d48565b91505092915050565b610d938161089d565b8114610d9e57600080fd5b50565b600081359050610db081610d8a565b92915050565b600060208284031215610dcc57610dcb6106b3565b5b6000610dda84828501610da1565b91505092915050565b600081549050919050565b600082825260208201905092915050565b60008190508160005260206000209050919050565b60008160001c9050919050565b600073ffffffffffffffffffffffffffffffffffffffff82169050919050565b6000610e54610e4f83610e14565b610e21565b9050919050565b610e648161087c565b82525050565b60008160a01c9050919050565b600060ff82169050919050565b6000610e97610e9283610e6a565b610e77565b9050919050565b610ea78161089d565b82525050565b604082016000808301549050610ec281610e41565b610ecf6000860182610e5b565b50610ed981610e84565b610ee66020860182610e9e565b5050505050565b6000610ef98383610ead565b60408301905092915050565b6000600182019050919050565b6000610f1d82610de3565b610f278185610dee565b9350610f3283610dff565b8060005b83811015610f625781610f498882610eed565b9750610f5483610f05565b925050600181019050610f36565b5085935050505092915050565b60006020820190508181036000830152610f898184610f12565b90509291505056fea26469706673582212207bbf894c077985e70f7dfcebe25f757a2c40b9d7782c1441bac71a4e701563da64736f6c63430008110033","opcodes":"PUSH1 0x80 PUSH1 0x40 MSTORE CALLVALUE DUP1 ISZERO PUSH3 0x11 JUMPI PUSH1 0x0 DUP1 REVERT JUMPDEST POP PUSH1 0x40 MLOAD PUSH3 0x10F1 CODESIZE SUB DUP1 PUSH3 0x10F1 DUP4 CODECOPY DUP2 DUP2 ADD PUSH1 0x40 MSTORE DUP2 ADD SWAP1 PUSH3 0x37 SWAP2 SWAP1 PUSH3 0xE8 JUMP JUMPDEST DUP1 PUSH1 0x0 DUP1 PUSH2 0x100 EXP DUP2 SLOAD DUP2 PUSH20 0xFFFFFFFFFFFFFFFFFFFFFFFFFFFFFFFFFFFFFFFF MUL NOT AND SWAP1 DUP4 PUSH20 0xFFFFFFFFFFFFFFFFFFFFFFFFFFFFFFFFFFFFFFFF AND MUL OR SWAP1 SSTORE POP POP PUSH3 0x11A JUMP JUMPDEST PUSH1 0x0 DUP1 REVERT JUMPDEST PUSH1 0x0 PUSH20 0xFFFFFFFFFFFFFFFFFFFFFFFFFFFFFFFFFFFFFFFF DUP3 AND SWAP1 POP SWAP2 SWAP1 POP JUMP JUMPDEST PUSH1 0x0 PUSH3 0xB0 DUP3 PUSH3 0x83 JUMP JUMPDEST SWAP1 POP SWAP2 SWAP1 POP JUMP JUMPDEST PUSH3 0xC2 DUP2 PUSH3 0xA3 JUMP JUMPDEST DUP2 EQ PUSH3 0xCE JUMPI PUSH1 0x0 DUP1 REVERT JUMPDEST POP JUMP JUMPDEST PUSH1 0x0 DUP2 MLOAD SWAP1 POP PUSH3 0xE2 DUP2 PUSH3 0xB7 JUMP JUMPDEST SWAP3 SWAP2 POP POP JUMP JUMPDEST PUSH1 0x0 PUSH1 0x20 DUP3 DUP5 SUB SLT ISZERO PUSH3 0x101 JUMPI PUSH3 0x100 PUSH3 0x7E JUMP JUMPDEST JUMPDEST PUSH1 0x0 PUSH3 0x111 DUP5 DUP3 DUP6 ADD PUSH3 0xD1 JUMP JUMPDEST SWAP2 POP POP SWAP3 SWAP2 POP POP JUMP JUMPDEST PUSH2 0xFC7 DUP1 PUSH3 0x12A PUSH1 0x0 CODECOPY PUSH1 0x0 RETURN INVALID PUSH1 0x80 PUSH1 0x40 MSTORE CALLVALUE DUP1 ISZERO PUSH2 0x10 JUMPI PUSH1 0x0 DUP1 REVERT JUMPDEST POP PUSH1 0x4 CALLDATASIZE LT PUSH2 0x4C JUMPI PUSH1 0x0 CALLDATALOAD PUSH1 0xE0 SHR DUP1 PUSH4 0x3A6A4D2E EQ PUSH2 0x51 JUMPI DUP1 PUSH4 0x587DAF14 EQ PUSH2 0x5B JUMPI DUP1 PUSH4 0x61D14051 EQ PUSH2 0x77 JUMPI DUP1 PUSH4 0x7DC0D1D0 EQ PUSH2 0xA8 JUMPI JUMPDEST PUSH1 0x0 DUP1 REVERT JUMPDEST PUSH2 0x59 PUSH2 0xC6 JUMP JUMPDEST STOP JUMPDEST PUSH2 0x75 PUSH1 0x4 DUP1 CALLDATASIZE SUB DUP2 ADD SWAP1 PUSH2 0x70 SWAP2 SWAP1 PUSH2 0x778 JUMP JUMPDEST PUSH2 0x3A3 JUMP JUMPDEST STOP JUMPDEST PUSH2 0x91 PUSH1 0x4 DUP1 CALLDATASIZE SUB DUP2 ADD SWAP1 PUSH2 0x8C SWAP2 SWAP1 PUSH2 0x82F JUMP JUMPDEST PUSH2 0x632 JUMP JUMPDEST PUSH1 0x40 MLOAD PUSH2 0x9F SWAP3 SWAP2 SWAP1 PUSH2 0x8B8 JUMP JUMPDEST PUSH1 0x40 MLOAD DUP1 SWAP2 SUB SWAP1 RETURN JUMPDEST PUSH2 0xB0 PUSH2 0x68F JUMP JUMPDEST PUSH1 0x40 MLOAD PUSH2 0xBD SWAP2 SWAP1 PUSH2 0x8E1 JUMP JUMPDEST PUSH1 0x40 MLOAD DUP1 SWAP2 SUB SWAP1 RETURN JUMPDEST PUSH1 0x0 PUSH1 0x1 DUP1 SLOAD SWAP1 POP GT PUSH2 0x10E JUMPI PUSH1 0x40 MLOAD PUSH32 0x8C379A000000000000000000000000000000000000000000000000000000000 DUP2 MSTORE PUSH1 0x4 ADD PUSH2 0x105 SWAP1 PUSH2 0x959 JUMP JUMPDEST PUSH1 0x40 MLOAD DUP1 SWAP2 SUB SWAP1 REVERT JUMPDEST PUSH1 0x0 DUP1 JUMPDEST PUSH1 0x1 DUP1 SLOAD SWAP1 POP DUP2 LT ISZERO PUSH2 0x175 JUMPI PUSH1 0x1 DUP2 DUP2 SLOAD DUP2 LT PUSH2 0x133 JUMPI PUSH2 0x132 PUSH2 0x979 JUMP JUMPDEST JUMPDEST SWAP1 PUSH1 0x0 MSTORE PUSH1 0x20 PUSH1 0x0 KECCAK256 ADD PUSH1 0x0 ADD PUSH1 0x14 SWAP1 SLOAD SWAP1 PUSH2 0x100 EXP SWAP1 DIV PUSH1 0xFF AND ISZERO PUSH2 0x162 JUMPI DUP2 DUP1 PUSH2 0x15E SWAP1 PUSH2 0x9D7 JUMP JUMPDEST SWAP3 POP POP JUMPDEST DUP1 DUP1 PUSH2 0x16D SWAP1 PUSH2 0x9D7 JUMP JUMPDEST SWAP2 POP POP PUSH2 0x112 JUMP JUMPDEST POP PUSH1 0x0 DUP2 GT PUSH2 0x1B9 JUMPI PUSH1 0x40 MLOAD PUSH32 0x8C379A000000000000000000000000000000000000000000000000000000000 DUP2 MSTORE PUSH1 0x4 ADD PUSH2 0x1B0 SWAP1 PUSH2 0xA6B JUMP JUMPDEST PUSH1 0x40 MLOAD DUP1 SWAP2 SUB SWAP1 REVERT JUMPDEST PUSH1 0x0 DUP2 SELFBALANCE PUSH2 0x1C7 SWAP2 SWAP1 PUSH2 0xABA JUMP JUMPDEST SWAP1 POP PUSH1 0x0 JUMPDEST PUSH1 0x1 DUP1 SLOAD SWAP1 POP DUP2 LT ISZERO PUSH2 0x39E JUMPI PUSH1 0x1 DUP2 DUP2 SLOAD DUP2 LT PUSH2 0x1ED JUMPI PUSH2 0x1EC PUSH2 0x979 JUMP JUMPDEST JUMPDEST SWAP1 PUSH1 0x0 MSTORE PUSH1 0x20 PUSH1 0x0 KECCAK256 ADD PUSH1 0x0 ADD PUSH1 0x14 SWAP1 SLOAD SWAP1 PUSH2 0x100 EXP SWAP1 DIV PUSH1 0xFF AND ISZERO PUSH2 0x38B JUMPI PUSH1 0x0 PUSH1 0x1 DUP3 DUP2 SLOAD DUP2 LT PUSH2 0x223 JUMPI PUSH2 0x222 PUSH2 0x979 JUMP JUMPDEST JUMPDEST SWAP1 PUSH1 0x0 MSTORE PUSH1 0x20 PUSH1 0x0 KECCAK256 ADD PUSH1 0x0 ADD PUSH1 0x0 SWAP1 SLOAD SWAP1 PUSH2 0x100 EXP SWAP1 DIV PUSH20 0xFFFFFFFFFFFFFFFFFFFFFFFFFFFFFFFFFFFFFFFF AND PUSH20 0xFFFFFFFFFFFFFFFFFFFFFFFFFFFFFFFFFFFFFFFF AND DUP4 PUSH1 0x40 MLOAD PUSH2 0x274 SWAP1 PUSH2 0xB1C JUMP JUMPDEST PUSH1 0x0 PUSH1 0x40 MLOAD DUP1 DUP4 SUB DUP2 DUP6 DUP8 GAS CALL SWAP3 POP POP POP RETURNDATASIZE DUP1 PUSH1 0x0 DUP2 EQ PUSH2 0x2B1 JUMPI PUSH1 0x40 MLOAD SWAP2 POP PUSH1 0x1F NOT PUSH1 0x3F RETURNDATASIZE ADD AND DUP3 ADD PUSH1 0x40 MSTORE RETURNDATASIZE DUP3 MSTORE RETURNDATASIZE PUSH1 0x0 PUSH1 0x20 DUP5 ADD RETURNDATACOPY PUSH2 0x2B6 JUMP JUMPDEST PUSH1 0x60 SWAP2 POP JUMPDEST POP POP SWAP1 POP DUP1 PUSH2 0x2FA JUMPI PUSH1 0x40 MLOAD PUSH32 0x8C379A000000000000000000000000000000000000000000000000000000000 DUP2 MSTORE PUSH1 0x4 ADD PUSH2 0x2F1 SWAP1 PUSH2 0xB7D JUMP JUMPDEST PUSH1 0x40 MLOAD DUP1 SWAP2 SUB SWAP1 REVERT JUMPDEST PUSH1 0x1 DUP3 DUP2 SLOAD DUP2 LT PUSH2 0x30E JUMPI PUSH2 0x30D PUSH2 0x979 JUMP JUMPDEST JUMPDEST SWAP1 PUSH1 0x0 MSTORE PUSH1 0x20 PUSH1 0x0 KECCAK256 ADD PUSH1 0x0 ADD PUSH1 0x0 SWAP1 SLOAD SWAP1 PUSH2 0x100 EXP SWAP1 DIV PUSH20 0xFFFFFFFFFFFFFFFFFFFFFFFFFFFFFFFFFFFFFFFF AND PUSH20 0xFFFFFFFFFFFFFFFFFFFFFFFFFFFFFFFFFFFFFFFF AND PUSH32 0x26536799ACE2C3DBE12E638EC3ADE6B4173DCF1289BE0A58D51A5003015649BD DUP5 PUSH1 0x40 MLOAD PUSH2 0x381 SWAP2 SWAP1 PUSH2 0xBAC JUMP JUMPDEST PUSH1 0x40 MLOAD DUP1 SWAP2 SUB SWAP1 LOG2 POP JUMPDEST DUP1 DUP1 PUSH2 0x396 SWAP1 PUSH2 0x9D7 JUMP JUMPDEST SWAP2 POP POP PUSH2 0x1CC JUMP JUMPDEST POP POP POP JUMP JUMPDEST DUP2 DUP2 SWAP1 POP DUP5 DUP5 SWAP1 POP EQ PUSH2 0x3EB JUMPI PUSH1 0x40 MLOAD PUSH32 0x8C379A000000000000000000000000000000000000000000000000000000000 DUP2 MSTORE PUSH1 0x4 ADD PUSH2 0x3E2 SWAP1 PUSH2 0xC13 JUMP JUMPDEST PUSH1 0x40 MLOAD DUP1 SWAP2 SUB SWAP1 REVERT JUMPDEST PUSH1 0x0 PUSH1 0x1 DUP1 SLOAD SWAP1 POP EQ PUSH2 0x433 JUMPI PUSH1 0x40 MLOAD PUSH32 0x8C379A000000000000000000000000000000000000000000000000000000000 DUP2 MSTORE PUSH1 0x4 ADD PUSH2 0x42A SWAP1 PUSH2 0xC7F JUMP JUMPDEST PUSH1 0x40 MLOAD DUP1 SWAP2 SUB SWAP1 REVERT JUMPDEST PUSH1 0x0 DUP1 SLOAD SWAP1 PUSH2 0x100 EXP SWAP1 DIV PUSH20 0xFFFFFFFFFFFFFFFFFFFFFFFFFFFFFFFFFFFFFFFF AND PUSH20 0xFFFFFFFFFFFFFFFFFFFFFFFFFFFFFFFFFFFFFFFF AND CALLER PUSH20 0xFFFFFFFFFFFFFFFFFFFFFFFFFFFFFFFFFFFFFFFF AND EQ PUSH2 0x4C1 JUMPI PUSH1 0x40 MLOAD PUSH32 0x8C379A000000000000000000000000000000000000000000000000000000000 DUP2 MSTORE PUSH1 0x4 ADD PUSH2 0x4B8 SWAP1 PUSH2 0xD11 JUMP JUMPDEST PUSH1 0x40 MLOAD DUP1 SWAP2 SUB SWAP1 REVERT JUMPDEST PUSH1 0x0 JUMPDEST DUP5 DUP5 SWAP1 POP DUP2 LT ISZERO PUSH2 0x5F3 JUMPI PUSH1 0x0 PUSH1 0x40 MLOAD DUP1 PUSH1 0x40 ADD PUSH1 0x40 MSTORE DUP1 DUP8 DUP8 DUP6 DUP2 DUP2 LT PUSH2 0x4EF JUMPI PUSH2 0x4EE PUSH2 0x979 JUMP JUMPDEST JUMPDEST SWAP1 POP PUSH1 0x20 MUL ADD PUSH1 0x20 DUP2 ADD SWAP1 PUSH2 0x504 SWAP2 SWAP1 PUSH2 0xD5D JUMP JUMPDEST PUSH20 0xFFFFFFFFFFFFFFFFFFFFFFFFFFFFFFFFFFFFFFFF AND DUP2 MSTORE PUSH1 0x20 ADD DUP6 DUP6 DUP6 DUP2 DUP2 LT PUSH2 0x532 JUMPI PUSH2 0x531 PUSH2 0x979 JUMP JUMPDEST JUMPDEST SWAP1 POP PUSH1 0x20 MUL ADD PUSH1 0x20 DUP2 ADD SWAP1 PUSH2 0x547 SWAP2 SWAP1 PUSH2 0xDB6 JUMP JUMPDEST ISZERO ISZERO DUP2 MSTORE POP SWAP1 POP PUSH1 0x1 DUP2 SWAP1 DUP1 PUSH1 0x1 DUP2 SLOAD ADD DUP1 DUP3 SSTORE DUP1 SWAP2 POP POP PUSH1 0x1 SWAP1 SUB SWAP1 PUSH1 0x0 MSTORE PUSH1 0x20 PUSH1 0x0 KECCAK256 ADD PUSH1 0x0 SWAP1 SWAP2 SWAP1 SWAP2 SWAP1 SWAP2 POP PUSH1 0x0 DUP3 ADD MLOAD DUP2 PUSH1 0x0 ADD PUSH1 0x0 PUSH2 0x100 EXP DUP2 SLOAD DUP2 PUSH20 0xFFFFFFFFFFFFFFFFFFFFFFFFFFFFFFFFFFFFFFFF MUL NOT AND SWAP1 DUP4 PUSH20 0xFFFFFFFFFFFFFFFFFFFFFFFFFFFFFFFFFFFFFFFF AND MUL OR SWAP1 SSTORE POP PUSH1 0x20 DUP3 ADD MLOAD DUP2 PUSH1 0x0 ADD PUSH1 0x14 PUSH2 0x100 EXP DUP2 SLOAD DUP2 PUSH1 0xFF MUL NOT AND SWAP1 DUP4 ISZERO ISZERO MUL OR SWAP1 SSTORE POP POP POP POP DUP1 DUP1 PUSH2 0x5EB SWAP1 PUSH2 0x9D7 JUMP JUMPDEST SWAP2 POP POP PUSH2 0x4C4 JUMP JUMPDEST POP PUSH32 0xCEC7D2EC437428A90CF67E7E0A29B25843AA749A36EF190230D629848CC3B40C PUSH1 0x1 PUSH1 0x40 MLOAD PUSH2 0x624 SWAP2 SWAP1 PUSH2 0xF6F JUMP JUMPDEST PUSH1 0x40 MLOAD DUP1 SWAP2 SUB SWAP1 LOG1 POP POP POP POP JUMP JUMPDEST PUSH1 0x1 DUP2 DUP2 SLOAD DUP2 LT PUSH2 0x642 JUMPI PUSH1 0x0 DUP1 REVERT JUMPDEST SWAP1 PUSH1 0x0 MSTORE PUSH1 0x20 PUSH1 0x0 KECCAK256 ADD PUSH1 0x0 SWAP2 POP SWAP1 POP DUP1 PUSH1 0x0 ADD PUSH1 0x0 SWAP1 SLOAD SWAP1 PUSH2 0x100 EXP SWAP1 DIV PUSH20 0xFFFFFFFFFFFFFFFFFFFFFFFFFFFFFFFFFFFFFFFF AND SWAP1 DUP1 PUSH1 0x0 ADD PUSH1 0x14 SWAP1 SLOAD SWAP1 PUSH2 0x100 EXP SWAP1 DIV PUSH1 0xFF AND SWAP1 POP DUP3 JUMP JUMPDEST PUSH1 0x0 DUP1 SLOAD SWAP1 PUSH2 0x100 EXP SWAP1 DIV PUSH20 0xFFFFFFFFFFFFFFFFFFFFFFFFFFFFFFFFFFFFFFFF AND DUP2 JUMP JUMPDEST PUSH1 0x0 DUP1 REVERT JUMPDEST PUSH1 0x0 DUP1 REVERT JUMPDEST PUSH1 0x0 DUP1 REVERT JUMPDEST PUSH1 0x0 DUP1 REVERT JUMPDEST PUSH1 0x0 DUP1 REVERT JUMPDEST PUSH1 0x0 DUP1 DUP4 PUSH1 0x1F DUP5 ADD SLT PUSH2 0x6E2 JUMPI PUSH2 0x6E1 PUSH2 0x6BD JUMP JUMPDEST JUMPDEST DUP3 CALLDATALOAD SWAP1 POP PUSH8 0xFFFFFFFFFFFFFFFF DUP2 GT ISZERO PUSH2 0x6FF JUMPI PUSH2 0x6FE PUSH2 0x6C2 JUMP JUMPDEST JUMPDEST PUSH1 0x20 DUP4 ADD SWAP2 POP DUP4 PUSH1 0x20 DUP3 MUL DUP4 ADD GT ISZERO PUSH2 0x71B JUMPI PUSH2 0x71A PUSH2 0x6C7 JUMP JUMPDEST JUMPDEST SWAP3 POP SWAP3 SWAP1 POP JUMP JUMPDEST PUSH1 0x0 DUP1 DUP4 PUSH1 0x1F DUP5 ADD SLT PUSH2 0x738 JUMPI PUSH2 0x737 PUSH2 0x6BD JUMP JUMPDEST JUMPDEST DUP3 CALLDATALOAD SWAP1 POP PUSH8 0xFFFFFFFFFFFFFFFF DUP2 GT ISZERO PUSH2 0x755 JUMPI PUSH2 0x754 PUSH2 0x6C2 JUMP JUMPDEST JUMPDEST PUSH1 0x20 DUP4 ADD SWAP2 POP DUP4 PUSH1 0x20 DUP3 MUL DUP4 ADD GT ISZERO PUSH2 0x771 JUMPI PUSH2 0x770 PUSH2 0x6C7 JUMP JUMPDEST JUMPDEST SWAP3 POP SWAP3 SWAP1 POP JUMP JUMPDEST PUSH1 0x0 DUP1 PUSH1 0x0 DUP1 PUSH1 0x40 DUP6 DUP8 SUB SLT ISZERO PUSH2 0x792 JUMPI PUSH2 0x791 PUSH2 0x6B3 JUMP JUMPDEST JUMPDEST PUSH1 0x0 DUP6 ADD CALLDATALOAD PUSH8 0xFFFFFFFFFFFFFFFF DUP2 GT ISZERO PUSH2 0x7B0 JUMPI PUSH2 0x7AF PUSH2 0x6B8 JUMP JUMPDEST JUMPDEST PUSH2 0x7BC DUP8 DUP3 DUP9 ADD PUSH2 0x6CC JUMP JUMPDEST SWAP5 POP SWAP5 POP POP PUSH1 0x20 DUP6 ADD CALLDATALOAD PUSH8 0xFFFFFFFFFFFFFFFF DUP2 GT ISZERO PUSH2 0x7DF JUMPI PUSH2 0x7DE PUSH2 0x6B8 JUMP JUMPDEST JUMPDEST PUSH2 0x7EB DUP8 DUP3 DUP9 ADD PUSH2 0x722 JUMP JUMPDEST SWAP3 POP SWAP3 POP POP SWAP3 SWAP6 SWAP2 SWAP5 POP SWAP3 POP JUMP JUMPDEST PUSH1 0x0 DUP2 SWAP1 POP SWAP2 SWAP1 POP JUMP JUMPDEST PUSH2 0x80C DUP2 PUSH2 0x7F9 JUMP JUMPDEST DUP2 EQ PUSH2 0x817 JUMPI PUSH1 0x0 DUP1 REVERT JUMPDEST POP JUMP JUMPDEST PUSH1 0x0 DUP2 CALLDATALOAD SWAP1 POP PUSH2 0x829 DUP2 PUSH2 0x803 JUMP JUMPDEST SWAP3 SWAP2 POP POP JUMP JUMPDEST PUSH1 0x0 PUSH1 0x20 DUP3 DUP5 SUB SLT ISZERO PUSH2 0x845 JUMPI PUSH2 0x844 PUSH2 0x6B3 JUMP JUMPDEST JUMPDEST PUSH1 0x0 PUSH2 0x853 DUP5 DUP3 DUP6 ADD PUSH2 0x81A JUMP JUMPDEST SWAP2 POP POP SWAP3 SWAP2 POP POP JUMP JUMPDEST PUSH1 0x0 PUSH20 0xFFFFFFFFFFFFFFFFFFFFFFFFFFFFFFFFFFFFFFFF DUP3 AND SWAP1 POP SWAP2 SWAP1 POP JUMP JUMPDEST PUSH1 0x0 PUSH2 0x887 DUP3 PUSH2 0x85C JUMP JUMPDEST SWAP1 POP SWAP2 SWAP1 POP JUMP JUMPDEST PUSH2 0x897 DUP2 PUSH2 0x87C JUMP JUMPDEST DUP3 MSTORE POP POP JUMP JUMPDEST PUSH1 0x0 DUP2 ISZERO ISZERO SWAP1 POP SWAP2 SWAP1 POP JUMP JUMPDEST PUSH2 0x8B2 DUP2 PUSH2 0x89D JUMP JUMPDEST DUP3 MSTORE POP POP JUMP JUMPDEST PUSH1 0x0 PUSH1 0x40 DUP3 ADD SWAP1 POP PUSH2 0x8CD PUSH1 0x0 DUP4 ADD DUP6 PUSH2 0x88E JUMP JUMPDEST PUSH2 0x8DA PUSH1 0x20 DUP4 ADD DUP5 PUSH2 0x8A9 JUMP JUMPDEST SWAP4 SWAP3 POP POP POP JUMP JUMPDEST PUSH1 0x0 PUSH1 0x20 DUP3 ADD SWAP1 POP PUSH2 0x8F6 PUSH1 0x0 DUP4 ADD DUP5 PUSH2 0x88E JUMP JUMPDEST SWAP3 SWAP2 POP POP JUMP JUMPDEST PUSH1 0x0 DUP3 DUP3 MSTORE PUSH1 0x20 DUP3 ADD SWAP1 POP SWAP3 SWAP2 POP POP JUMP JUMPDEST PUSH32 0x566F74696E6720726573756C74206E6F74207365740000000000000000000000 PUSH1 0x0 DUP3 ADD MSTORE POP JUMP JUMPDEST PUSH1 0x0 PUSH2 0x943 PUSH1 0x15 DUP4 PUSH2 0x8FC JUMP JUMPDEST SWAP2 POP PUSH2 0x94E DUP3 PUSH2 0x90D JUMP JUMPDEST PUSH1 0x20 DUP3 ADD SWAP1 POP SWAP2 SWAP1 POP JUMP JUMPDEST PUSH1 0x0 PUSH1 0x20 DUP3 ADD SWAP1 POP DUP2 DUP2 SUB PUSH1 0x0 DUP4 ADD MSTORE PUSH2 0x972 DUP2 PUSH2 0x936 JUMP JUMPDEST SWAP1 POP SWAP2 SWAP1 POP JUMP JUMPDEST PUSH32 0x4E487B7100000000000000000000000000000000000000000000000000000000 PUSH1 0x0 MSTORE PUSH1 0x32 PUSH1 0x4 MSTORE PUSH1 0x24 PUSH1 0x0 REVERT JUMPDEST PUSH32 0x4E487B7100000000000000000000000000000000000000000000000000000000 PUSH1 0x0 MSTORE PUSH1 0x11 PUSH1 0x4 MSTORE PUSH1 0x24 PUSH1 0x0 REVERT JUMPDEST PUSH1 0x0 PUSH2 0x9E2 DUP3 PUSH2 0x7F9 JUMP JUMPDEST SWAP2 POP PUSH32 0xFFFFFFFFFFFFFFFFFFFFFFFFFFFFFFFFFFFFFFFFFFFFFFFFFFFFFFFFFFFFFFFF DUP3 SUB PUSH2 0xA14 JUMPI PUSH2 0xA13 PUSH2 0x9A8 JUMP JUMPDEST JUMPDEST PUSH1 0x1 DUP3 ADD SWAP1 POP SWAP2 SWAP1 POP JUMP JUMPDEST PUSH32 0x4E6F2077696E6E696E672070726F706F73616C73000000000000000000000000 PUSH1 0x0 DUP3 ADD MSTORE POP JUMP JUMPDEST PUSH1 0x0 PUSH2 0xA55 PUSH1 0x14 DUP4 PUSH2 0x8FC JUMP JUMPDEST SWAP2 POP PUSH2 0xA60 DUP3 PUSH2 0xA1F JUMP JUMPDEST PUSH1 0x20 DUP3 ADD SWAP1 POP SWAP2 SWAP1 POP JUMP JUMPDEST PUSH1 0x0 PUSH1 0x20 DUP3 ADD SWAP1 POP DUP2 DUP2 SUB PUSH1 0x0 DUP4 ADD MSTORE PUSH2 0xA84 DUP2 PUSH2 0xA48 JUMP JUMPDEST SWAP1 POP SWAP2 SWAP1 POP JUMP JUMPDEST PUSH32 0x4E487B7100000000000000000000000000000000000000000000000000000000 PUSH1 0x0 MSTORE PUSH1 0x12 PUSH1 0x4 MSTORE PUSH1 0x24 PUSH1 0x0 REVERT JUMPDEST PUSH1 0x0 PUSH2 0xAC5 DUP3 PUSH2 0x7F9 JUMP JUMPDEST SWAP2 POP PUSH2 0xAD0 DUP4 PUSH2 0x7F9 JUMP JUMPDEST SWAP3 POP DUP3 PUSH2 0xAE0 JUMPI PUSH2 0xADF PUSH2 0xA8B JUMP JUMPDEST JUMPDEST DUP3 DUP3 DIV SWAP1 POP SWAP3 SWAP2 POP POP JUMP JUMPDEST PUSH1 0x0 DUP2 SWAP1 POP SWAP3 SWAP2 POP POP JUMP JUMPDEST POP JUMP JUMPDEST PUSH1 0x0 PUSH2 0xB06 PUSH1 0x0 DUP4 PUSH2 0xAEB JUMP JUMPDEST SWAP2 POP PUSH2 0xB11 DUP3 PUSH2 0xAF6 JUMP JUMPDEST PUSH1 0x0 DUP3 ADD SWAP1 POP SWAP2 SWAP1 POP JUMP JUMPDEST PUSH1 0x0 PUSH2 0xB27 DUP3 PUSH2 0xAF9 JUMP JUMPDEST SWAP2 POP DUP2 SWAP1 POP SWAP2 SWAP1 POP JUMP JUMPDEST PUSH32 0x4661696C656420746F2020776974686472617700000000000000000000000000 PUSH1 0x0 DUP3 ADD MSTORE POP JUMP JUMPDEST PUSH1 0x0 PUSH2 0xB67 PUSH1 0x13 DUP4 PUSH2 0x8FC JUMP JUMPDEST SWAP2 POP PUSH2 0xB72 DUP3 PUSH2 0xB31 JUMP JUMPDEST PUSH1 0x20 DUP3 ADD SWAP1 POP SWAP2 SWAP1 POP JUMP JUMPDEST PUSH1 0x0 PUSH1 0x20 DUP3 ADD SWAP1 POP DUP2 DUP2 SUB PUSH1 0x0 DUP4 ADD MSTORE PUSH2 0xB96 DUP2 PUSH2 0xB5A JUMP JUMPDEST SWAP1 POP SWAP2 SWAP1 POP JUMP JUMPDEST PUSH2 0xBA6 DUP2 PUSH2 0x7F9 JUMP JUMPDEST DUP3 MSTORE POP POP JUMP JUMPDEST PUSH1 0x0 PUSH1 0x20 DUP3 ADD SWAP1 POP PUSH2 0xBC1 PUSH1 0x0 DUP4 ADD DUP5 PUSH2 0xB9D JUMP JUMPDEST SWAP3 SWAP2 POP POP JUMP JUMPDEST PUSH32 0x496E707574206172726179206C656E6774687320646F206E6F74206D61746368 PUSH1 0x0 DUP3 ADD MSTORE POP JUMP JUMPDEST PUSH1 0x0 PUSH2 0xBFD PUSH1 0x20 DUP4 PUSH2 0x8FC JUMP JUMPDEST SWAP2 POP PUSH2 0xC08 DUP3 PUSH2 0xBC7 JUMP JUMPDEST PUSH1 0x20 DUP3 ADD SWAP1 POP SWAP2 SWAP1 POP JUMP JUMPDEST PUSH1 0x0 PUSH1 0x20 DUP3 ADD SWAP1 POP DUP2 DUP2 SUB PUSH1 0x0 DUP4 ADD MSTORE PUSH2 0xC2C DUP2 PUSH2 0xBF0 JUMP JUMPDEST SWAP1 POP SWAP2 SWAP1 POP JUMP JUMPDEST PUSH32 0x566F74696E6720726573756C7420616C72656164792073657400000000000000 PUSH1 0x0 DUP3 ADD MSTORE POP JUMP JUMPDEST PUSH1 0x0 PUSH2 0xC69 PUSH1 0x19 DUP4 PUSH2 0x8FC JUMP JUMPDEST SWAP2 POP PUSH2 0xC74 DUP3 PUSH2 0xC33 JUMP JUMPDEST PUSH1 0x20 DUP3 ADD SWAP1 POP SWAP2 SWAP1 POP JUMP JUMPDEST PUSH1 0x0 PUSH1 0x20 DUP3 ADD SWAP1 POP DUP2 DUP2 SUB PUSH1 0x0 DUP4 ADD MSTORE PUSH2 0xC98 DUP2 PUSH2 0xC5C JUMP JUMPDEST SWAP1 POP SWAP2 SWAP1 POP JUMP JUMPDEST PUSH32 0x4F6E6C79206F7261636C652063616E207365742074686520766F74696E672072 PUSH1 0x0 DUP3 ADD MSTORE PUSH32 0x6573756C74000000000000000000000000000000000000000000000000000000 PUSH1 0x20 DUP3 ADD MSTORE POP JUMP JUMPDEST PUSH1 0x0 PUSH2 0xCFB PUSH1 0x25 DUP4 PUSH2 0x8FC JUMP JUMPDEST SWAP2 POP PUSH2 0xD06 DUP3 PUSH2 0xC9F JUMP JUMPDEST PUSH1 0x40 DUP3 ADD SWAP1 POP SWAP2 SWAP1 POP JUMP JUMPDEST PUSH1 0x0 PUSH1 0x20 DUP3 ADD SWAP1 POP DUP2 DUP2 SUB PUSH1 0x0 DUP4 ADD MSTORE PUSH2 0xD2A DUP2 PUSH2 0xCEE JUMP JUMPDEST SWAP1 POP SWAP2 SWAP1 POP JUMP JUMPDEST PUSH2 0xD3A DUP2 PUSH2 0x87C JUMP JUMPDEST DUP2 EQ PUSH2 0xD45 JUMPI PUSH1 0x0 DUP1 REVERT JUMPDEST POP JUMP JUMPDEST PUSH1 0x0 DUP2 CALLDATALOAD SWAP1 POP PUSH2 0xD57 DUP2 PUSH2 0xD31 JUMP JUMPDEST SWAP3 SWAP2 POP POP JUMP JUMPDEST PUSH1 0x0 PUSH1 0x20 DUP3 DUP5 SUB SLT ISZERO PUSH2 0xD73 JUMPI PUSH2 0xD72 PUSH2 0x6B3 JUMP JUMPDEST JUMPDEST PUSH1 0x0 PUSH2 0xD81 DUP5 DUP3 DUP6 ADD PUSH2 0xD48 JUMP JUMPDEST SWAP2 POP POP SWAP3 SWAP2 POP POP JUMP JUMPDEST PUSH2 0xD93 DUP2 PUSH2 0x89D JUMP JUMPDEST DUP2 EQ PUSH2 0xD9E JUMPI PUSH1 0x0 DUP1 REVERT JUMPDEST POP JUMP JUMPDEST PUSH1 0x0 DUP2 CALLDATALOAD SWAP1 POP PUSH2 0xDB0 DUP2 PUSH2 0xD8A JUMP JUMPDEST SWAP3 SWAP2 POP POP JUMP JUMPDEST PUSH1 0x0 PUSH1 0x20 DUP3 DUP5 SUB SLT ISZERO PUSH2 0xDCC JUMPI PUSH2 0xDCB PUSH2 0x6B3 JUMP JUMPDEST JUMPDEST PUSH1 0x0 PUSH2 0xDDA DUP5 DUP3 DUP6 ADD PUSH2 0xDA1 JUMP JUMPDEST SWAP2 POP POP SWAP3 SWAP2 POP POP JUMP JUMPDEST PUSH1 0x0 DUP2 SLOAD SWAP1 POP SWAP2 SWAP1 POP JUMP JUMPDEST PUSH1 0x0 DUP3 DUP3 MSTORE PUSH1 0x20 DUP3 ADD SWAP1 POP SWAP3 SWAP2 POP POP JUMP JUMPDEST PUSH1 0x0 DUP2 SWAP1 POP DUP2 PUSH1 0x0 MSTORE PUSH1 0x20 PUSH1 0x0 KECCAK256 SWAP1 POP SWAP2 SWAP1 POP JUMP JUMPDEST PUSH1 0x0 DUP2 PUSH1 0x0 SHR SWAP1 POP SWAP2 SWAP1 POP JUMP JUMPDEST PUSH1 0x0 PUSH20 0xFFFFFFFFFFFFFFFFFFFFFFFFFFFFFFFFFFFFFFFF DUP3 AND SWAP1 POP SWAP2 SWAP1 POP JUMP JUMPDEST PUSH1 0x0 PUSH2 0xE54 PUSH2 0xE4F DUP4 PUSH2 0xE14 JUMP JUMPDEST PUSH2 0xE21 JUMP JUMPDEST SWAP1 POP SWAP2 SWAP1 POP JUMP JUMPDEST PUSH2 0xE64 DUP2 PUSH2 0x87C JUMP JUMPDEST DUP3 MSTORE POP POP JUMP JUMPDEST PUSH1 0x0 DUP2 PUSH1 0xA0 SHR SWAP1 POP SWAP2 SWAP1 POP JUMP JUMPDEST PUSH1 0x0 PUSH1 0xFF DUP3 AND SWAP1 POP SWAP2 SWAP1 POP JUMP JUMPDEST PUSH1 0x0 PUSH2 0xE97 PUSH2 0xE92 DUP4 PUSH2 0xE6A JUMP JUMPDEST PUSH2 0xE77 JUMP JUMPDEST SWAP1 POP SWAP2 SWAP1 POP JUMP JUMPDEST PUSH2 0xEA7 DUP2 PUSH2 0x89D JUMP JUMPDEST DUP3 MSTORE POP POP JUMP JUMPDEST PUSH1 0x40 DUP3 ADD PUSH1 0x0 DUP1 DUP4 ADD SLOAD SWAP1 POP PUSH2 0xEC2 DUP2 PUSH2 0xE41 JUMP JUMPDEST PUSH2 0xECF PUSH1 0x0 DUP7 ADD DUP3 PUSH2 0xE5B JUMP JUMPDEST POP PUSH2 0xED9 DUP2 PUSH2 0xE84 JUMP JUMPDEST PUSH2 0xEE6 PUSH1 0x20 DUP7 ADD DUP3 PUSH2 0xE9E JUMP JUMPDEST POP POP POP POP POP JUMP JUMPDEST PUSH1 0x0 PUSH2 0xEF9 DUP4 DUP4 PUSH2 0xEAD JUMP JUMPDEST PUSH1 0x40 DUP4 ADD SWAP1 POP SWAP3 SWAP2 POP POP JUMP JUMPDEST PUSH1 0x0 PUSH1 0x1 DUP3 ADD SWAP1 POP SWAP2 SWAP1 POP JUMP JUMPDEST PUSH1 0x0 PUSH2 0xF1D DUP3 PUSH2 0xDE3 JUMP JUMPDEST PUSH2 0xF27 DUP2 DUP6 PUSH2 0xDEE JUMP JUMPDEST SWAP4 POP PUSH2 0xF32 DUP4 PUSH2 0xDFF JUMP JUMPDEST DUP1 PUSH1 0x0 JUMPDEST DUP4 DUP2 LT ISZERO PUSH2 0xF62 JUMPI DUP2 PUSH2 0xF49 DUP9 DUP3 PUSH2 0xEED JUMP JUMPDEST SWAP8 POP PUSH2 0xF54 DUP4 PUSH2 0xF05 JUMP JUMPDEST SWAP3 POP POP PUSH1 0x1 DUP2 ADD SWAP1 POP PUSH2 0xF36 JUMP JUMPDEST POP DUP6 SWAP4 POP POP POP POP SWAP3 SWAP2 POP POP JUMP JUMPDEST PUSH1 0x0 PUSH1 0x20 DUP3 ADD SWAP1 POP DUP2 DUP2 SUB PUSH1 0x0 DUP4 ADD MSTORE PUSH2 0xF89 DUP2 DUP5 PUSH2 0xF12 JUMP JUMPDEST SWAP1 POP SWAP3 SWAP2 POP POP JUMP INVALID LOG2 PUSH5 0x6970667358 0x22 SLT KECCAK256 PUSH28 0xBF894C077985E70F7DFCEBE25F757A2C40B9D7782C1441BAC71A4E70 ISZERO PUSH4 0xDA64736F PUSH13 0x63430008110033000000000000 "},"methodIdentifiers":{"distributeFunds()":"3a6a4d2e","oracle()":"7dc0d1d0","setVotingResult(address[],bool[])":"587daf14","votingResult(uint256)":"61d14051"}}}}}