{"contracts/Proposals.sol":{"ProposalVoting":{"abi":[{"inputs":[{"internalType":"uint256","name":"_hackathonEndTime","type":"uint256"},{"internalType":"address","name":"_votingTokenAddress","type":"address"}],"stateMutability":"nonpayable","type":"constructor"},{"inputs":[],"name":"not_in_proposalPeriod","type":"error"},{"inputs":[],"name":"not_in_votingPeriod","type":"error"},{"anonymous":false,"inputs":[{"indexed":true,"internalType":"address","name":"recipient","type":"address"},{"indexed":false,"internalType":"string","name":"message","type":"string"}],"name":"ProposalSubmitted","type":"event"},{"anonymous":false,"inputs":[{"indexed":true,"internalType":"address","name":"sender","type":"address"},{"indexed":true,"internalType":"address","name":"proposalOwner","type":"address"},{"indexed":false,"internalType":"uint8","name":"accept","type":"uint8"}],"name":"VoteCasted","type":"event"},{"inputs":[],"name":"SUBMISSION_PERIOD","outputs":[{"internalType":"uint256","name":"","type":"uint256"}],"stateMutability":"view","type":"function"},{"inputs":[],"name":"TRANSITION_PERIOD","outputs":[{"internalType":"uint256","name":"","type":"uint256"}],"stateMutability":"view","type":"function"},{"inputs":[],"name":"VOTING_PERIOD","outputs":[{"internalType":"uint256","name":"","type":"uint256"}],"stateMutability":"view","type":"function"},{"inputs":[{"components":[{"internalType":"uint256","name":"proposalIndex","type":"uint256"},{"internalType":"uint8","name":"decision","type":"uint8"}],"internalType":"struct ProposalVoting.Vote[]","name":"_votes","type":"tuple[]"}],"name":"castVote","outputs":[],"stateMutability":"nonpayable","type":"function"},{"inputs":[],"name":"castedVotes","outputs":[{"internalType":"uint256","name":"","type":"uint256"}],"stateMutability":"view","type":"function"},{"inputs":[],"name":"hackathonEndTime","outputs":[{"internalType":"uint256","name":"","type":"uint256"}],"stateMutability":"view","type":"function"},{"inputs":[{"internalType":"uint256","name":"","type":"uint256"}],"name":"proposals","outputs":[{"internalType":"string","name":"description","type":"string"},{"internalType":"address","name":"proposalOwner","type":"address"},{"internalType":"uint256","name":"votes","type":"uint256"},{"internalType":"bool","name":"accepted","type":"bool"}],"stateMutability":"view","type":"function"},{"inputs":[],"name":"proposalsCount","outputs":[{"internalType":"uint256","name":"","type":"uint256"}],"stateMutability":"view","type":"function"},{"inputs":[{"internalType":"string","name":"_description","type":"string"}],"name":"submitProposal","outputs":[],"stateMutability":"nonpayable","type":"function"},{"inputs":[],"name":"votingToken","outputs":[{"internalType":"contract IERC20","name":"","type":"address"}],"stateMutability":"view","type":"function"}],"evm":{"bytecode":{"linkReferences":{},"object":"60806040523480156200001157600080fd5b50604051620015233803806200152383398181016040528101906200003791906200012b565b81600281905550806000806101000a81548173ffffffffffffffffffffffffffffffffffffffff021916908373ffffffffffffffffffffffffffffffffffffffff160217905550505062000172565b600080fd5b6000819050919050565b620000a0816200008b565b8114620000ac57600080fd5b50565b600081519050620000c08162000095565b92915050565b600073ffffffffffffffffffffffffffffffffffffffff82169050919050565b6000620000f382620000c6565b9050919050565b6200010581620000e6565b81146200011157600080fd5b50565b6000815190506200012581620000fa565b92915050565b6000806040838503121562000145576200014462000086565b5b60006200015585828601620000af565b9250506020620001688582860162000114565b9150509250929050565b6113a180620001826000396000f3fe608060405234801561001057600080fd5b506004361061009e5760003560e01c8063b034012311610066578063b03401231461014a578063b1610d7e14610168578063ca9ff62914610186578063f1b095b0146101a4578063f6356d4f146101c25761009e565b8063013cf08b146100a35780630a9f46ad146100d65780631fe39da8146100f4578063373d6d5e146101105780636ead1acb1461012c575b600080fd5b6100bd60048036038101906100b89190610931565b6101e0565b6040516100cd9493929190610a59565b60405180910390f35b6100de6102d5565b6040516100eb9190610aa5565b60405180910390f35b61010e60048036038101906101099190610b25565b6102e2565b005b61012a60048036038101906101259190610bc8565b610683565b005b610134610882565b6040516101419190610aa5565b60405180910390f35b610152610888565b60405161015f9190610c74565b60405180910390f35b6101706108ac565b60405161017d9190610aa5565b60405180910390f35b61018e6108cf565b60405161019b9190610aa5565b60405180910390f35b6101ac6108d6565b6040516101b99190610aa5565b60405180910390f35b6101ca6108dc565b6040516101d79190610aa5565b60405180910390f35b600181815481106101f057600080fd5b906000526020600020906004020160009150905080600001805461021390610cbe565b80601f016020809104026020016040519081016040528092919081815260200182805461023f90610cbe565b801561028c5780601f106102615761010080835404028352916020019161028c565b820191906000526020600020905b81548152906001019060200180831161026f57829003601f168201915b5050505050908060010160009054906101000a900473ffffffffffffffffffffffffffffffffffffffff16908060020154908060030160009054906101000a900460ff16905084565b6000600180549050905090565b42621a5e006276a7006102f59190610d1e565b6002546103029190610d1e565b11806103395750620d2f00621a5e006276a70061031f9190610d1e565b6103299190610d1e565b6002546103369190610d1e565b42115b15610370576040517f1fd2f97200000000000000000000000000000000000000000000000000000000815260040160405180910390fd5b60018054905082829050146103ba576040517f08c379a00000000000000000000000000000000000000000000000000000000081526004016103b190610d9e565b60405180910390fd5b60008054906101000a900473ffffffffffffffffffffffffffffffffffffffff1673ffffffffffffffffffffffffffffffffffffffff166323b872dd3330670de0b6b3a76400006040518463ffffffff1660e01b815260040161041f93929190610df9565b6020604051808303816000875af115801561043e573d6000803e3d6000fd5b505050506040513d601f19601f820116820180604052508101906104629190610e5c565b6104a1576040517f08c379a000000000000000000000000000000000000000000000000000000000815260040161049890610ed5565b60405180910390fd5b6001600360008282546104b49190610d1e565b9250508190555060005b8282905081101561067e57368383838181106104dd576104dc610ef5565b5b905060400201905060008160200160208101906104fa9190610f5d565b60ff16148061051e575060018160200160208101906105199190610f5d565b60ff16145b61055d576040517f08c379a000000000000000000000000000000000000000000000000000000000815260040161055490610fd6565b60405180910390fd5b8060200160208101906105709190610f5d565b60ff166001838154811061058757610586610ef5565b5b906000526020600020906004020160020160008282546105a79190610d1e565b92505081905550600182815481106105c2576105c1610ef5565b5b906000526020600020906004020160010160009054906101000a900473ffffffffffffffffffffffffffffffffffffffff1673ffffffffffffffffffffffffffffffffffffffff163373ffffffffffffffffffffffffffffffffffffffff167f295c2eecb6286510cbcce4b1c262b5ca41926994dc773db67c91f036bbf3d88f8360200160208101906106559190610f5d565b6040516106629190611005565b60405180910390a350808061067690611020565b9150506104be565b505050565b42621a5e006276a7006106969190610d1e565b6002546106a39190610d1e565b10806106be57506276a7006002546106bb9190610d1e565b42105b156106f5576040517f3b21115800000000000000000000000000000000000000000000000000000000815260040160405180910390fd5b6000604051806080016040528084848080601f016020809104026020016040519081016040528093929190818152602001838380828437600081840152601f19601f8201169050808301925050505050505081526020013373ffffffffffffffffffffffffffffffffffffffff16815260200160008152602001600015158152509050600181908060018154018082558091505060019003906000526020600020906004020160009091909190915060008201518160000190816107b99190611239565b5060208201518160010160006101000a81548173ffffffffffffffffffffffffffffffffffffffff021916908373ffffffffffffffffffffffffffffffffffffffff1602179055506040820151816002015560608201518160030160006101000a81548160ff02191690831515021790555050503373ffffffffffffffffffffffffffffffffffffffff167fd1efe34a534b4d45759bb8d8f7c24cb8b465b18cf3e3710c3dc9d70ddd2b29308484604051610875929190611347565b60405180910390a2505050565b60025481565b60008054906101000a900473ffffffffffffffffffffffffffffffffffffffff1681565b620d2f00621a5e006276a7006108c29190610d1e565b6108cc9190610d1e565b81565b6276a70081565b60035481565b621a5e006276a7006108ee9190610d1e565b81565b600080fd5b600080fd5b6000819050919050565b61090e816108fb565b811461091957600080fd5b50565b60008135905061092b81610905565b92915050565b600060208284031215610947576109466108f1565b5b60006109558482850161091c565b91505092915050565b600081519050919050565b600082825260208201905092915050565b60005b8381101561099857808201518184015260208101905061097d565b60008484015250505050565b6000601f19601f8301169050919050565b60006109c08261095e565b6109ca8185610969565b93506109da81856020860161097a565b6109e3816109a4565b840191505092915050565b600073ffffffffffffffffffffffffffffffffffffffff82169050919050565b6000610a19826109ee565b9050919050565b610a2981610a0e565b82525050565b610a38816108fb565b82525050565b60008115159050919050565b610a5381610a3e565b82525050565b60006080820190508181036000830152610a7381876109b5565b9050610a826020830186610a20565b610a8f6040830185610a2f565b610a9c6060830184610a4a565b95945050505050565b6000602082019050610aba6000830184610a2f565b92915050565b600080fd5b600080fd5b600080fd5b60008083601f840112610ae557610ae4610ac0565b5b8235905067ffffffffffffffff811115610b0257610b01610ac5565b5b602083019150836040820283011115610b1e57610b1d610aca565b5b9250929050565b60008060208385031215610b3c57610b3b6108f1565b5b600083013567ffffffffffffffff811115610b5a57610b596108f6565b5b610b6685828601610acf565b92509250509250929050565b60008083601f840112610b8857610b87610ac0565b5b8235905067ffffffffffffffff811115610ba557610ba4610ac5565b5b602083019150836001820283011115610bc157610bc0610aca565b5b9250929050565b60008060208385031215610bdf57610bde6108f1565b5b600083013567ffffffffffffffff811115610bfd57610bfc6108f6565b5b610c0985828601610b72565b92509250509250929050565b6000819050919050565b6000610c3a610c35610c30846109ee565b610c15565b6109ee565b9050919050565b6000610c4c82610c1f565b9050919050565b6000610c5e82610c41565b9050919050565b610c6e81610c53565b82525050565b6000602082019050610c896000830184610c65565b92915050565b7f4e487b7100000000000000000000000000000000000000000000000000000000600052602260045260246000fd5b60006002820490506001821680610cd657607f821691505b602082108103610ce957610ce8610c8f565b5b50919050565b7f4e487b7100000000000000000000000000000000000000000000000000000000600052601160045260246000fd5b6000610d29826108fb565b9150610d34836108fb565b9250828201905080821115610d4c57610d4b610cef565b5b92915050565b7f496e76616c6964206e756d626572206f6620766f746573000000000000000000600082015250565b6000610d88601783610969565b9150610d9382610d52565b602082019050919050565b60006020820190508181036000830152610db781610d7b565b9050919050565b6000819050919050565b6000610de3610dde610dd984610dbe565b610c15565b6108fb565b9050919050565b610df381610dc8565b82525050565b6000606082019050610e0e6000830186610a20565b610e1b6020830185610a20565b610e286040830184610dea565b949350505050565b610e3981610a3e565b8114610e4457600080fd5b50565b600081519050610e5681610e30565b92915050565b600060208284031215610e7257610e716108f1565b5b6000610e8084828501610e47565b91505092915050565b7f4e6f20766f74657320617661696c61626c650000000000000000000000000000600082015250565b6000610ebf601283610969565b9150610eca82610e89565b602082019050919050565b60006020820190508181036000830152610eee81610eb2565b9050919050565b7f4e487b7100000000000000000000000000000000000000000000000000000000600052603260045260246000fd5b600060ff82169050919050565b610f3a81610f24565b8114610f4557600080fd5b50565b600081359050610f5781610f31565b92915050565b600060208284031215610f7357610f726108f1565b5b6000610f8184828501610f48565b91505092915050565b7f496e76616c696420766f7465206465636973696f6e0000000000000000000000600082015250565b6000610fc0601583610969565b9150610fcb82610f8a565b602082019050919050565b60006020820190508181036000830152610fef81610fb3565b9050919050565b610fff81610f24565b82525050565b600060208201905061101a6000830184610ff6565b92915050565b600061102b826108fb565b91507fffffffffffffffffffffffffffffffffffffffffffffffffffffffffffffffff820361105d5761105c610cef565b5b600182019050919050565b7f4e487b7100000000000000000000000000000000000000000000000000000000600052604160045260246000fd5b60008190508160005260206000209050919050565b60006020601f8301049050919050565b600082821b905092915050565b6000600883026110f97fffffffffffffffffffffffffffffffffffffffffffffffffffffffffffffffff826110bc565b61110386836110bc565b95508019841693508086168417925050509392505050565b600061113661113161112c846108fb565b610c15565b6108fb565b9050919050565b6000819050919050565b6111508361111b565b61116461115c8261113d565b8484546110c9565b825550505050565b600090565b61117961116c565b611184818484611147565b505050565b5b818110156111a85761119d600082611171565b60018101905061118a565b5050565b601f8211156111ed576111be81611097565b6111c7846110ac565b810160208510156111d6578190505b6111ea6111e2856110ac565b830182611189565b50505b505050565b600082821c905092915050565b6000611210600019846008026111f2565b1980831691505092915050565b600061122983836111ff565b9150826002028217905092915050565b6112428261095e565b67ffffffffffffffff81111561125b5761125a611068565b5b6112658254610cbe565b6112708282856111ac565b600060209050601f8311600181146112a35760008415611291578287015190505b61129b858261121d565b865550611303565b601f1984166112b186611097565b60005b828110156112d9578489015182556001820191506020850194506020810190506112b4565b868310156112f657848901516112f2601f8916826111ff565b8355505b6001600288020188555050505b505050505050565b82818337600083830152505050565b60006113268385610969565b935061133383858461130b565b61133c836109a4565b840190509392505050565b6000602082019050818103600083015261136281848661131a565b9050939250505056fea26469706673582212201be9363ea9f0e29b3375af34111c10e1b9204252496552e7212bacde7d3c6d4064736f6c63430008110033","opcodes":"PUSH1 0x80 PUSH1 0x40 MSTORE CALLVALUE DUP1 ISZERO PUSH3 0x11 JUMPI PUSH1 0x0 DUP1 REVERT JUMPDEST POP PUSH1 0x40 MLOAD PUSH3 0x1523 CODESIZE SUB DUP1 PUSH3 0x1523 DUP4 CODECOPY DUP2 DUP2 ADD PUSH1 0x40 MSTORE DUP2 ADD SWAP1 PUSH3 0x37 SWAP2 SWAP1 PUSH3 0x12B JUMP JUMPDEST DUP2 PUSH1 0x2 DUP2 SWAP1 SSTORE POP DUP1 PUSH1 0x0 DUP1 PUSH2 0x100 EXP DUP2 SLOAD DUP2 PUSH20 0xFFFFFFFFFFFFFFFFFFFFFFFFFFFFFFFFFFFFFFFF MUL NOT AND SWAP1 DUP4 PUSH20 0xFFFFFFFFFFFFFFFFFFFFFFFFFFFFFFFFFFFFFFFF AND MUL OR SWAP1 SSTORE POP POP POP PUSH3 0x172 JUMP JUMPDEST PUSH1 0x0 DUP1 REVERT JUMPDEST PUSH1 0x0 DUP2 SWAP1 POP SWAP2 SWAP1 POP JUMP JUMPDEST PUSH3 0xA0 DUP2 PUSH3 0x8B JUMP JUMPDEST DUP2 EQ PUSH3 0xAC JUMPI PUSH1 0x0 DUP1 REVERT JUMPDEST POP JUMP JUMPDEST PUSH1 0x0 DUP2 MLOAD SWAP1 POP PUSH3 0xC0 DUP2 PUSH3 0x95 JUMP JUMPDEST SWAP3 SWAP2 POP POP JUMP JUMPDEST PUSH1 0x0 PUSH20 0xFFFFFFFFFFFFFFFFFFFFFFFFFFFFFFFFFFFFFFFF DUP3 AND SWAP1 POP SWAP2 SWAP1 POP JUMP JUMPDEST PUSH1 0x0 PUSH3 0xF3 DUP3 PUSH3 0xC6 JUMP JUMPDEST SWAP1 POP SWAP2 SWAP1 POP JUMP JUMPDEST PUSH3 0x105 DUP2 PUSH3 0xE6 JUMP JUMPDEST DUP2 EQ PUSH3 0x111 JUMPI PUSH1 0x0 DUP1 REVERT JUMPDEST POP JUMP JUMPDEST PUSH1 0x0 DUP2 MLOAD SWAP1 POP PUSH3 0x125 DUP2 PUSH3 0xFA JUMP JUMPDEST SWAP3 SWAP2 POP POP JUMP JUMPDEST PUSH1 0x0 DUP1 PUSH1 0x40 DUP4 DUP6 SUB SLT ISZERO PUSH3 0x145 JUMPI PUSH3 0x144 PUSH3 0x86 JUMP JUMPDEST JUMPDEST PUSH1 0x0 PUSH3 0x155 DUP6 DUP3 DUP7 ADD PUSH3 0xAF JUMP JUMPDEST SWAP3 POP POP PUSH1 0x20 PUSH3 0x168 DUP6 DUP3 DUP7 ADD PUSH3 0x114 JUMP JUMPDEST SWAP2 POP POP SWAP3 POP SWAP3 SWAP1 POP JUMP JUMPDEST PUSH2 0x13A1 DUP1 PUSH3 0x182 PUSH1 0x0 CODECOPY PUSH1 0x0 RETURN INVALID PUSH1 0x80 PUSH1 0x40 MSTORE CALLVALUE DUP1 ISZERO PUSH2 0x10 JUMPI PUSH1 0x0 DUP1 REVERT JUMPDEST POP PUSH1 0x4 CALLDATASIZE LT PUSH2 0x9E JUMPI PUSH1 0x0 CALLDATALOAD PUSH1 0xE0 SHR DUP1 PUSH4 0xB0340123 GT PUSH2 0x66 JUMPI DUP1 PUSH4 0xB0340123 EQ PUSH2 0x14A JUMPI DUP1 PUSH4 0xB1610D7E EQ PUSH2 0x168 JUMPI DUP1 PUSH4 0xCA9FF629 EQ PUSH2 0x186 JUMPI DUP1 PUSH4 0xF1B095B0 EQ PUSH2 0x1A4 JUMPI DUP1 PUSH4 0xF6356D4F EQ PUSH2 0x1C2 JUMPI PUSH2 0x9E JUMP JUMPDEST DUP1 PUSH4 0x13CF08B EQ PUSH2 0xA3 JUMPI DUP1 PUSH4 0xA9F46AD EQ PUSH2 0xD6 JUMPI DUP1 PUSH4 0x1FE39DA8 EQ PUSH2 0xF4 JUMPI DUP1 PUSH4 0x373D6D5E EQ PUSH2 0x110 JUMPI DUP1 PUSH4 0x6EAD1ACB EQ PUSH2 0x12C JUMPI JUMPDEST PUSH1 0x0 DUP1 REVERT JUMPDEST PUSH2 0xBD PUSH1 0x4 DUP1 CALLDATASIZE SUB DUP2 ADD SWAP1 PUSH2 0xB8 SWAP2 SWAP1 PUSH2 0x931 JUMP JUMPDEST PUSH2 0x1E0 JUMP JUMPDEST PUSH1 0x40 MLOAD PUSH2 0xCD SWAP5 SWAP4 SWAP3 SWAP2 SWAP1 PUSH2 0xA59 JUMP JUMPDEST PUSH1 0x40 MLOAD DUP1 SWAP2 SUB SWAP1 RETURN JUMPDEST PUSH2 0xDE PUSH2 0x2D5 JUMP JUMPDEST PUSH1 0x40 MLOAD PUSH2 0xEB SWAP2 SWAP1 PUSH2 0xAA5 JUMP JUMPDEST PUSH1 0x40 MLOAD DUP1 SWAP2 SUB SWAP1 RETURN JUMPDEST PUSH2 0x10E PUSH1 0x4 DUP1 CALLDATASIZE SUB DUP2 ADD SWAP1 PUSH2 0x109 SWAP2 SWAP1 PUSH2 0xB25 JUMP JUMPDEST PUSH2 0x2E2 JUMP JUMPDEST STOP JUMPDEST PUSH2 0x12A PUSH1 0x4 DUP1 CALLDATASIZE SUB DUP2 ADD SWAP1 PUSH2 0x125 SWAP2 SWAP1 PUSH2 0xBC8 JUMP JUMPDEST PUSH2 0x683 JUMP JUMPDEST STOP JUMPDEST PUSH2 0x134 PUSH2 0x882 JUMP JUMPDEST PUSH1 0x40 MLOAD PUSH2 0x141 SWAP2 SWAP1 PUSH2 0xAA5 JUMP JUMPDEST PUSH1 0x40 MLOAD DUP1 SWAP2 SUB SWAP1 RETURN JUMPDEST PUSH2 0x152 PUSH2 0x888 JUMP JUMPDEST PUSH1 0x40 MLOAD PUSH2 0x15F SWAP2 SWAP1 PUSH2 0xC74 JUMP JUMPDEST PUSH1 0x40 MLOAD DUP1 SWAP2 SUB SWAP1 RETURN JUMPDEST PUSH2 0x170 PUSH2 0x8AC JUMP JUMPDEST PUSH1 0x40 MLOAD PUSH2 0x17D SWAP2 SWAP1 PUSH2 0xAA5 JUMP JUMPDEST PUSH1 0x40 MLOAD DUP1 SWAP2 SUB SWAP1 RETURN JUMPDEST PUSH2 0x18E PUSH2 0x8CF JUMP JUMPDEST PUSH1 0x40 MLOAD PUSH2 0x19B SWAP2 SWAP1 PUSH2 0xAA5 JUMP JUMPDEST PUSH1 0x40 MLOAD DUP1 SWAP2 SUB SWAP1 RETURN JUMPDEST PUSH2 0x1AC PUSH2 0x8D6 JUMP JUMPDEST PUSH1 0x40 MLOAD PUSH2 0x1B9 SWAP2 SWAP1 PUSH2 0xAA5 JUMP JUMPDEST PUSH1 0x40 MLOAD DUP1 SWAP2 SUB SWAP1 RETURN JUMPDEST PUSH2 0x1CA PUSH2 0x8DC JUMP JUMPDEST PUSH1 0x40 MLOAD PUSH2 0x1D7 SWAP2 SWAP1 PUSH2 0xAA5 JUMP JUMPDEST PUSH1 0x40 MLOAD DUP1 SWAP2 SUB SWAP1 RETURN JUMPDEST PUSH1 0x1 DUP2 DUP2 SLOAD DUP2 LT PUSH2 0x1F0 JUMPI PUSH1 0x0 DUP1 REVERT JUMPDEST SWAP1 PUSH1 0x0 MSTORE PUSH1 0x20 PUSH1 0x0 KECCAK256 SWAP1 PUSH1 0x4 MUL ADD PUSH1 0x0 SWAP2 POP SWAP1 POP DUP1 PUSH1 0x0 ADD DUP1 SLOAD PUSH2 0x213 SWAP1 PUSH2 0xCBE JUMP JUMPDEST DUP1 PUSH1 0x1F ADD PUSH1 0x20 DUP1 SWAP2 DIV MUL PUSH1 0x20 ADD PUSH1 0x40 MLOAD SWAP1 DUP2 ADD PUSH1 0x40 MSTORE DUP1 SWAP3 SWAP2 SWAP1 DUP2 DUP2 MSTORE PUSH1 0x20 ADD DUP3 DUP1 SLOAD PUSH2 0x23F SWAP1 PUSH2 0xCBE JUMP JUMPDEST DUP1 ISZERO PUSH2 0x28C JUMPI DUP1 PUSH1 0x1F LT PUSH2 0x261 JUMPI PUSH2 0x100 DUP1 DUP4 SLOAD DIV MUL DUP4 MSTORE SWAP2 PUSH1 0x20 ADD SWAP2 PUSH2 0x28C JUMP JUMPDEST DUP3 ADD SWAP2 SWAP1 PUSH1 0x0 MSTORE PUSH1 0x20 PUSH1 0x0 KECCAK256 SWAP1 JUMPDEST DUP2 SLOAD DUP2 MSTORE SWAP1 PUSH1 0x1 ADD SWAP1 PUSH1 0x20 ADD DUP1 DUP4 GT PUSH2 0x26F JUMPI DUP3 SWAP1 SUB PUSH1 0x1F AND DUP3 ADD SWAP2 JUMPDEST POP POP POP POP POP SWAP1 DUP1 PUSH1 0x1 ADD PUSH1 0x0 SWAP1 SLOAD SWAP1 PUSH2 0x100 EXP SWAP1 DIV PUSH20 0xFFFFFFFFFFFFFFFFFFFFFFFFFFFFFFFFFFFFFFFF AND SWAP1 DUP1 PUSH1 0x2 ADD SLOAD SWAP1 DUP1 PUSH1 0x3 ADD PUSH1 0x0 SWAP1 SLOAD SWAP1 PUSH2 0x100 EXP SWAP1 DIV PUSH1 0xFF AND SWAP1 POP DUP5 JUMP JUMPDEST PUSH1 0x0 PUSH1 0x1 DUP1 SLOAD SWAP1 POP SWAP1 POP SWAP1 JUMP JUMPDEST TIMESTAMP PUSH3 0x1A5E00 PUSH3 0x76A700 PUSH2 0x2F5 SWAP2 SWAP1 PUSH2 0xD1E JUMP JUMPDEST PUSH1 0x2 SLOAD PUSH2 0x302 SWAP2 SWAP1 PUSH2 0xD1E JUMP JUMPDEST GT DUP1 PUSH2 0x339 JUMPI POP PUSH3 0xD2F00 PUSH3 0x1A5E00 PUSH3 0x76A700 PUSH2 0x31F SWAP2 SWAP1 PUSH2 0xD1E JUMP JUMPDEST PUSH2 0x329 SWAP2 SWAP1 PUSH2 0xD1E JUMP JUMPDEST PUSH1 0x2 SLOAD PUSH2 0x336 SWAP2 SWAP1 PUSH2 0xD1E JUMP JUMPDEST TIMESTAMP GT JUMPDEST ISZERO PUSH2 0x370 JUMPI PUSH1 0x40 MLOAD PUSH32 0x1FD2F97200000000000000000000000000000000000000000000000000000000 DUP2 MSTORE PUSH1 0x4 ADD PUSH1 0x40 MLOAD DUP1 SWAP2 SUB SWAP1 REVERT JUMPDEST PUSH1 0x1 DUP1 SLOAD SWAP1 POP DUP3 DUP3 SWAP1 POP EQ PUSH2 0x3BA JUMPI PUSH1 0x40 MLOAD PUSH32 0x8C379A000000000000000000000000000000000000000000000000000000000 DUP2 MSTORE PUSH1 0x4 ADD PUSH2 0x3B1 SWAP1 PUSH2 0xD9E JUMP JUMPDEST PUSH1 0x40 MLOAD DUP1 SWAP2 SUB SWAP1 REVERT JUMPDEST PUSH1 0x0 DUP1 SLOAD SWAP1 PUSH2 0x100 EXP SWAP1 DIV PUSH20 0xFFFFFFFFFFFFFFFFFFFFFFFFFFFFFFFFFFFFFFFF AND PUSH20 0xFFFFFFFFFFFFFFFFFFFFFFFFFFFFFFFFFFFFFFFF AND PUSH4 0x23B872DD CALLER ADDRESS PUSH8 0xDE0B6B3A7640000 PUSH1 0x40 MLOAD DUP5 PUSH4 0xFFFFFFFF AND PUSH1 0xE0 SHL DUP2 MSTORE PUSH1 0x4 ADD PUSH2 0x41F SWAP4 SWAP3 SWAP2 SWAP1 PUSH2 0xDF9 JUMP JUMPDEST PUSH1 0x20 PUSH1 0x40 MLOAD DUP1 DUP4 SUB DUP2 PUSH1 0x0 DUP8 GAS CALL ISZERO DUP1 ISZERO PUSH2 0x43E JUMPI RETURNDATASIZE PUSH1 0x0 DUP1 RETURNDATACOPY RETURNDATASIZE PUSH1 0x0 REVERT JUMPDEST POP POP POP POP PUSH1 0x40 MLOAD RETURNDATASIZE PUSH1 0x1F NOT PUSH1 0x1F DUP3 ADD AND DUP3 ADD DUP1 PUSH1 0x40 MSTORE POP DUP2 ADD SWAP1 PUSH2 0x462 SWAP2 SWAP1 PUSH2 0xE5C JUMP JUMPDEST PUSH2 0x4A1 JUMPI PUSH1 0x40 MLOAD PUSH32 0x8C379A000000000000000000000000000000000000000000000000000000000 DUP2 MSTORE PUSH1 0x4 ADD PUSH2 0x498 SWAP1 PUSH2 0xED5 JUMP JUMPDEST PUSH1 0x40 MLOAD DUP1 SWAP2 SUB SWAP1 REVERT JUMPDEST PUSH1 0x1 PUSH1 0x3 PUSH1 0x0 DUP3 DUP3 SLOAD PUSH2 0x4B4 SWAP2 SWAP1 PUSH2 0xD1E JUMP JUMPDEST SWAP3 POP POP DUP2 SWAP1 SSTORE POP PUSH1 0x0 JUMPDEST DUP3 DUP3 SWAP1 POP DUP2 LT ISZERO PUSH2 0x67E JUMPI CALLDATASIZE DUP4 DUP4 DUP4 DUP2 DUP2 LT PUSH2 0x4DD JUMPI PUSH2 0x4DC PUSH2 0xEF5 JUMP JUMPDEST JUMPDEST SWAP1 POP PUSH1 0x40 MUL ADD SWAP1 POP PUSH1 0x0 DUP2 PUSH1 0x20 ADD PUSH1 0x20 DUP2 ADD SWAP1 PUSH2 0x4FA SWAP2 SWAP1 PUSH2 0xF5D JUMP JUMPDEST PUSH1 0xFF AND EQ DUP1 PUSH2 0x51E JUMPI POP PUSH1 0x1 DUP2 PUSH1 0x20 ADD PUSH1 0x20 DUP2 ADD SWAP1 PUSH2 0x519 SWAP2 SWAP1 PUSH2 0xF5D JUMP JUMPDEST PUSH1 0xFF AND EQ JUMPDEST PUSH2 0x55D JUMPI PUSH1 0x40 MLOAD PUSH32 0x8C379A000000000000000000000000000000000000000000000000000000000 DUP2 MSTORE PUSH1 0x4 ADD PUSH2 0x554 SWAP1 PUSH2 0xFD6 JUMP JUMPDEST PUSH1 0x40 MLOAD DUP1 SWAP2 SUB SWAP1 REVERT JUMPDEST DUP1 PUSH1 0x20 ADD PUSH1 0x20 DUP2 ADD SWAP1 PUSH2 0x570 SWAP2 SWAP1 PUSH2 0xF5D JUMP JUMPDEST PUSH1 0xFF AND PUSH1 0x1 DUP4 DUP2 SLOAD DUP2 LT PUSH2 0x587 JUMPI PUSH2 0x586 PUSH2 0xEF5 JUMP JUMPDEST JUMPDEST SWAP1 PUSH1 0x0 MSTORE PUSH1 0x20 PUSH1 0x0 KECCAK256 SWAP1 PUSH1 0x4 MUL ADD PUSH1 0x2 ADD PUSH1 0x0 DUP3 DUP3 SLOAD PUSH2 0x5A7 SWAP2 SWAP1 PUSH2 0xD1E JUMP JUMPDEST SWAP3 POP POP DUP2 SWAP1 SSTORE POP PUSH1 0x1 DUP3 DUP2 SLOAD DUP2 LT PUSH2 0x5C2 JUMPI PUSH2 0x5C1 PUSH2 0xEF5 JUMP JUMPDEST JUMPDEST SWAP1 PUSH1 0x0 MSTORE PUSH1 0x20 PUSH1 0x0 KECCAK256 SWAP1 PUSH1 0x4 MUL ADD PUSH1 0x1 ADD PUSH1 0x0 SWAP1 SLOAD SWAP1 PUSH2 0x100 EXP SWAP1 DIV PUSH20 0xFFFFFFFFFFFFFFFFFFFFFFFFFFFFFFFFFFFFFFFF AND PUSH20 0xFFFFFFFFFFFFFFFFFFFFFFFFFFFFFFFFFFFFFFFF AND CALLER PUSH20 0xFFFFFFFFFFFFFFFFFFFFFFFFFFFFFFFFFFFFFFFF AND PUSH32 0x295C2EECB6286510CBCCE4B1C262B5CA41926994DC773DB67C91F036BBF3D88F DUP4 PUSH1 0x20 ADD PUSH1 0x20 DUP2 ADD SWAP1 PUSH2 0x655 SWAP2 SWAP1 PUSH2 0xF5D JUMP JUMPDEST PUSH1 0x40 MLOAD PUSH2 0x662 SWAP2 SWAP1 PUSH2 0x1005 JUMP JUMPDEST PUSH1 0x40 MLOAD DUP1 SWAP2 SUB SWAP1 LOG3 POP DUP1 DUP1 PUSH2 0x676 SWAP1 PUSH2 0x1020 JUMP JUMPDEST SWAP2 POP POP PUSH2 0x4BE JUMP JUMPDEST POP POP POP JUMP JUMPDEST TIMESTAMP PUSH3 0x1A5E00 PUSH3 0x76A700 PUSH2 0x696 SWAP2 SWAP1 PUSH2 0xD1E JUMP JUMPDEST PUSH1 0x2 SLOAD PUSH2 0x6A3 SWAP2 SWAP1 PUSH2 0xD1E JUMP JUMPDEST LT DUP1 PUSH2 0x6BE JUMPI POP PUSH3 0x76A700 PUSH1 0x2 SLOAD PUSH2 0x6BB SWAP2 SWAP1 PUSH2 0xD1E JUMP JUMPDEST TIMESTAMP LT JUMPDEST ISZERO PUSH2 0x6F5 JUMPI PUSH1 0x40 MLOAD PUSH32 0x3B21115800000000000000000000000000000000000000000000000000000000 DUP2 MSTORE PUSH1 0x4 ADD PUSH1 0x40 MLOAD DUP1 SWAP2 SUB SWAP1 REVERT JUMPDEST PUSH1 0x0 PUSH1 0x40 MLOAD DUP1 PUSH1 0x80 ADD PUSH1 0x40 MSTORE DUP1 DUP5 DUP5 DUP1 DUP1 PUSH1 0x1F ADD PUSH1 0x20 DUP1 SWAP2 DIV MUL PUSH1 0x20 ADD PUSH1 0x40 MLOAD SWAP1 DUP2 ADD PUSH1 0x40 MSTORE DUP1 SWAP4 SWAP3 SWAP2 SWAP1 DUP2 DUP2 MSTORE PUSH1 0x20 ADD DUP4 DUP4 DUP1 DUP3 DUP5 CALLDATACOPY PUSH1 0x0 DUP2 DUP5 ADD MSTORE PUSH1 0x1F NOT PUSH1 0x1F DUP3 ADD AND SWAP1 POP DUP1 DUP4 ADD SWAP3 POP POP POP POP POP POP POP DUP2 MSTORE PUSH1 0x20 ADD CALLER PUSH20 0xFFFFFFFFFFFFFFFFFFFFFFFFFFFFFFFFFFFFFFFF AND DUP2 MSTORE PUSH1 0x20 ADD PUSH1 0x0 DUP2 MSTORE PUSH1 0x20 ADD PUSH1 0x0 ISZERO ISZERO DUP2 MSTORE POP SWAP1 POP PUSH1 0x1 DUP2 SWAP1 DUP1 PUSH1 0x1 DUP2 SLOAD ADD DUP1 DUP3 SSTORE DUP1 SWAP2 POP POP PUSH1 0x1 SWAP1 SUB SWAP1 PUSH1 0x0 MSTORE PUSH1 0x20 PUSH1 0x0 KECCAK256 SWAP1 PUSH1 0x4 MUL ADD PUSH1 0x0 SWAP1 SWAP2 SWAP1 SWAP2 SWAP1 SWAP2 POP PUSH1 0x0 DUP3 ADD MLOAD DUP2 PUSH1 0x0 ADD SWAP1 DUP2 PUSH2 0x7B9 SWAP2 SWAP1 PUSH2 0x1239 JUMP JUMPDEST POP PUSH1 0x20 DUP3 ADD MLOAD DUP2 PUSH1 0x1 ADD PUSH1 0x0 PUSH2 0x100 EXP DUP2 SLOAD DUP2 PUSH20 0xFFFFFFFFFFFFFFFFFFFFFFFFFFFFFFFFFFFFFFFF MUL NOT AND SWAP1 DUP4 PUSH20 0xFFFFFFFFFFFFFFFFFFFFFFFFFFFFFFFFFFFFFFFF AND MUL OR SWAP1 SSTORE POP PUSH1 0x40 DUP3 ADD MLOAD DUP2 PUSH1 0x2 ADD SSTORE PUSH1 0x60 DUP3 ADD MLOAD DUP2 PUSH1 0x3 ADD PUSH1 0x0 PUSH2 0x100 EXP DUP2 SLOAD DUP2 PUSH1 0xFF MUL NOT AND SWAP1 DUP4 ISZERO ISZERO MUL OR SWAP1 SSTORE POP POP POP CALLER PUSH20 0xFFFFFFFFFFFFFFFFFFFFFFFFFFFFFFFFFFFFFFFF AND PUSH32 0xD1EFE34A534B4D45759BB8D8F7C24CB8B465B18CF3E3710C3DC9D70DDD2B2930 DUP5 DUP5 PUSH1 0x40 MLOAD PUSH2 0x875 SWAP3 SWAP2 SWAP1 PUSH2 0x1347 JUMP JUMPDEST PUSH1 0x40 MLOAD DUP1 SWAP2 SUB SWAP1 LOG2 POP POP POP JUMP JUMPDEST PUSH1 0x2 SLOAD DUP2 JUMP JUMPDEST PUSH1 0x0 DUP1 SLOAD SWAP1 PUSH2 0x100 EXP SWAP1 DIV PUSH20 0xFFFFFFFFFFFFFFFFFFFFFFFFFFFFFFFFFFFFFFFF AND DUP2 JUMP JUMPDEST PUSH3 0xD2F00 PUSH3 0x1A5E00 PUSH3 0x76A700 PUSH2 0x8C2 SWAP2 SWAP1 PUSH2 0xD1E JUMP JUMPDEST PUSH2 0x8CC SWAP2 SWAP1 PUSH2 0xD1E JUMP JUMPDEST DUP2 JUMP JUMPDEST PUSH3 0x76A700 DUP2 JUMP JUMPDEST PUSH1 0x3 SLOAD DUP2 JUMP JUMPDEST PUSH3 0x1A5E00 PUSH3 0x76A700 PUSH2 0x8EE SWAP2 SWAP1 PUSH2 0xD1E JUMP JUMPDEST DUP2 JUMP JUMPDEST PUSH1 0x0 DUP1 REVERT JUMPDEST PUSH1 0x0 DUP1 REVERT JUMPDEST PUSH1 0x0 DUP2 SWAP1 POP SWAP2 SWAP1 POP JUMP JUMPDEST PUSH2 0x90E DUP2 PUSH2 0x8FB JUMP JUMPDEST DUP2 EQ PUSH2 0x919 JUMPI PUSH1 0x0 DUP1 REVERT JUMPDEST POP JUMP JUMPDEST PUSH1 0x0 DUP2 CALLDATALOAD SWAP1 POP PUSH2 0x92B DUP2 PUSH2 0x905 JUMP JUMPDEST SWAP3 SWAP2 POP POP JUMP JUMPDEST PUSH1 0x0 PUSH1 0x20 DUP3 DUP5 SUB SLT ISZERO PUSH2 0x947 JUMPI PUSH2 0x946 PUSH2 0x8F1 JUMP JUMPDEST JUMPDEST PUSH1 0x0 PUSH2 0x955 DUP5 DUP3 DUP6 ADD PUSH2 0x91C JUMP JUMPDEST SWAP2 POP POP SWAP3 SWAP2 POP POP JUMP JUMPDEST PUSH1 0x0 DUP2 MLOAD SWAP1 POP SWAP2 SWAP1 POP JUMP JUMPDEST PUSH1 0x0 DUP3 DUP3 MSTORE PUSH1 0x20 DUP3 ADD SWAP1 POP SWAP3 SWAP2 POP POP JUMP JUMPDEST PUSH1 0x0 JUMPDEST DUP4 DUP2 LT ISZERO PUSH2 0x998 JUMPI DUP1 DUP3 ADD MLOAD DUP2 DUP5 ADD MSTORE PUSH1 0x20 DUP2 ADD SWAP1 POP PUSH2 0x97D JUMP JUMPDEST PUSH1 0x0 DUP5 DUP5 ADD MSTORE POP POP POP POP JUMP JUMPDEST PUSH1 0x0 PUSH1 0x1F NOT PUSH1 0x1F DUP4 ADD AND SWAP1 POP SWAP2 SWAP1 POP JUMP JUMPDEST PUSH1 0x0 PUSH2 0x9C0 DUP3 PUSH2 0x95E JUMP JUMPDEST PUSH2 0x9CA DUP2 DUP6 PUSH2 0x969 JUMP JUMPDEST SWAP4 POP PUSH2 0x9DA DUP2 DUP6 PUSH1 0x20 DUP7 ADD PUSH2 0x97A JUMP JUMPDEST PUSH2 0x9E3 DUP2 PUSH2 0x9A4 JUMP JUMPDEST DUP5 ADD SWAP2 POP POP SWAP3 SWAP2 POP POP JUMP JUMPDEST PUSH1 0x0 PUSH20 0xFFFFFFFFFFFFFFFFFFFFFFFFFFFFFFFFFFFFFFFF DUP3 AND SWAP1 POP SWAP2 SWAP1 POP JUMP JUMPDEST PUSH1 0x0 PUSH2 0xA19 DUP3 PUSH2 0x9EE JUMP JUMPDEST SWAP1 POP SWAP2 SWAP1 POP JUMP JUMPDEST PUSH2 0xA29 DUP2 PUSH2 0xA0E JUMP JUMPDEST DUP3 MSTORE POP POP JUMP JUMPDEST PUSH2 0xA38 DUP2 PUSH2 0x8FB JUMP JUMPDEST DUP3 MSTORE POP POP JUMP JUMPDEST PUSH1 0x0 DUP2 ISZERO ISZERO SWAP1 POP SWAP2 SWAP1 POP JUMP JUMPDEST PUSH2 0xA53 DUP2 PUSH2 0xA3E JUMP JUMPDEST DUP3 MSTORE POP POP JUMP JUMPDEST PUSH1 0x0 PUSH1 0x80 DUP3 ADD SWAP1 POP DUP2 DUP2 SUB PUSH1 0x0 DUP4 ADD MSTORE PUSH2 0xA73 DUP2 DUP8 PUSH2 0x9B5 JUMP JUMPDEST SWAP1 POP PUSH2 0xA82 PUSH1 0x20 DUP4 ADD DUP7 PUSH2 0xA20 JUMP JUMPDEST PUSH2 0xA8F PUSH1 0x40 DUP4 ADD DUP6 PUSH2 0xA2F JUMP JUMPDEST PUSH2 0xA9C PUSH1 0x60 DUP4 ADD DUP5 PUSH2 0xA4A JUMP JUMPDEST SWAP6 SWAP5 POP POP POP POP POP JUMP JUMPDEST PUSH1 0x0 PUSH1 0x20 DUP3 ADD SWAP1 POP PUSH2 0xABA PUSH1 0x0 DUP4 ADD DUP5 PUSH2 0xA2F JUMP JUMPDEST SWAP3 SWAP2 POP POP JUMP JUMPDEST PUSH1 0x0 DUP1 REVERT JUMPDEST PUSH1 0x0 DUP1 REVERT JUMPDEST PUSH1 0x0 DUP1 REVERT JUMPDEST PUSH1 0x0 DUP1 DUP4 PUSH1 0x1F DUP5 ADD SLT PUSH2 0xAE5 JUMPI PUSH2 0xAE4 PUSH2 0xAC0 JUMP JUMPDEST JUMPDEST DUP3 CALLDATALOAD SWAP1 POP PUSH8 0xFFFFFFFFFFFFFFFF DUP2 GT ISZERO PUSH2 0xB02 JUMPI PUSH2 0xB01 PUSH2 0xAC5 JUMP JUMPDEST JUMPDEST PUSH1 0x20 DUP4 ADD SWAP2 POP DUP4 PUSH1 0x40 DUP3 MUL DUP4 ADD GT ISZERO PUSH2 0xB1E JUMPI PUSH2 0xB1D PUSH2 0xACA JUMP JUMPDEST JUMPDEST SWAP3 POP SWAP3 SWAP1 POP JUMP JUMPDEST PUSH1 0x0 DUP1 PUSH1 0x20 DUP4 DUP6 SUB SLT ISZERO PUSH2 0xB3C JUMPI PUSH2 0xB3B PUSH2 0x8F1 JUMP JUMPDEST JUMPDEST PUSH1 0x0 DUP4 ADD CALLDATALOAD PUSH8 0xFFFFFFFFFFFFFFFF DUP2 GT ISZERO PUSH2 0xB5A JUMPI PUSH2 0xB59 PUSH2 0x8F6 JUMP JUMPDEST JUMPDEST PUSH2 0xB66 DUP6 DUP3 DUP7 ADD PUSH2 0xACF JUMP JUMPDEST SWAP3 POP SWAP3 POP POP SWAP3 POP SWAP3 SWAP1 POP JUMP JUMPDEST PUSH1 0x0 DUP1 DUP4 PUSH1 0x1F DUP5 ADD SLT PUSH2 0xB88 JUMPI PUSH2 0xB87 PUSH2 0xAC0 JUMP JUMPDEST JUMPDEST DUP3 CALLDATALOAD SWAP1 POP PUSH8 0xFFFFFFFFFFFFFFFF DUP2 GT ISZERO PUSH2 0xBA5 JUMPI PUSH2 0xBA4 PUSH2 0xAC5 JUMP JUMPDEST JUMPDEST PUSH1 0x20 DUP4 ADD SWAP2 POP DUP4 PUSH1 0x1 DUP3 MUL DUP4 ADD GT ISZERO PUSH2 0xBC1 JUMPI PUSH2 0xBC0 PUSH2 0xACA JUMP JUMPDEST JUMPDEST SWAP3 POP SWAP3 SWAP1 POP JUMP JUMPDEST PUSH1 0x0 DUP1 PUSH1 0x20 DUP4 DUP6 SUB SLT ISZERO PUSH2 0xBDF JUMPI PUSH2 0xBDE PUSH2 0x8F1 JUMP JUMPDEST JUMPDEST PUSH1 0x0 DUP4 ADD CALLDATALOAD PUSH8 0xFFFFFFFFFFFFFFFF DUP2 GT ISZERO PUSH2 0xBFD JUMPI PUSH2 0xBFC PUSH2 0x8F6 JUMP JUMPDEST JUMPDEST PUSH2 0xC09 DUP6 DUP3 DUP7 ADD PUSH2 0xB72 JUMP JUMPDEST SWAP3 POP SWAP3 POP POP SWAP3 POP SWAP3 SWAP1 POP JUMP JUMPDEST PUSH1 0x0 DUP2 SWAP1 POP SWAP2 SWAP1 POP JUMP JUMPDEST PUSH1 0x0 PUSH2 0xC3A PUSH2 0xC35 PUSH2 0xC30 DUP5 PUSH2 0x9EE JUMP JUMPDEST PUSH2 0xC15 JUMP JUMPDEST PUSH2 0x9EE JUMP JUMPDEST SWAP1 POP SWAP2 SWAP1 POP JUMP JUMPDEST PUSH1 0x0 PUSH2 0xC4C DUP3 PUSH2 0xC1F JUMP JUMPDEST SWAP1 POP SWAP2 SWAP1 POP JUMP JUMPDEST PUSH1 0x0 PUSH2 0xC5E DUP3 PUSH2 0xC41 JUMP JUMPDEST SWAP1 POP SWAP2 SWAP1 POP JUMP JUMPDEST PUSH2 0xC6E DUP2 PUSH2 0xC53 JUMP JUMPDEST DUP3 MSTORE POP POP JUMP JUMPDEST PUSH1 0x0 PUSH1 0x20 DUP3 ADD SWAP1 POP PUSH2 0xC89 PUSH1 0x0 DUP4 ADD DUP5 PUSH2 0xC65 JUMP JUMPDEST SWAP3 SWAP2 POP POP JUMP JUMPDEST PUSH32 0x4E487B7100000000000000000000000000000000000000000000000000000000 PUSH1 0x0 MSTORE PUSH1 0x22 PUSH1 0x4 MSTORE PUSH1 0x24 PUSH1 0x0 REVERT JUMPDEST PUSH1 0x0 PUSH1 0x2 DUP3 DIV SWAP1 POP PUSH1 0x1 DUP3 AND DUP1 PUSH2 0xCD6 JUMPI PUSH1 0x7F DUP3 AND SWAP2 POP JUMPDEST PUSH1 0x20 DUP3 LT DUP2 SUB PUSH2 0xCE9 JUMPI PUSH2 0xCE8 PUSH2 0xC8F JUMP JUMPDEST JUMPDEST POP SWAP2 SWAP1 POP JUMP JUMPDEST PUSH32 0x4E487B7100000000000000000000000000000000000000000000000000000000 PUSH1 0x0 MSTORE PUSH1 0x11 PUSH1 0x4 MSTORE PUSH1 0x24 PUSH1 0x0 REVERT JUMPDEST PUSH1 0x0 PUSH2 0xD29 DUP3 PUSH2 0x8FB JUMP JUMPDEST SWAP2 POP PUSH2 0xD34 DUP4 PUSH2 0x8FB JUMP JUMPDEST SWAP3 POP DUP3 DUP3 ADD SWAP1 POP DUP1 DUP3 GT ISZERO PUSH2 0xD4C JUMPI PUSH2 0xD4B PUSH2 0xCEF JUMP JUMPDEST JUMPDEST SWAP3 SWAP2 POP POP JUMP JUMPDEST PUSH32 0x496E76616C6964206E756D626572206F6620766F746573000000000000000000 PUSH1 0x0 DUP3 ADD MSTORE POP JUMP JUMPDEST PUSH1 0x0 PUSH2 0xD88 PUSH1 0x17 DUP4 PUSH2 0x969 JUMP JUMPDEST SWAP2 POP PUSH2 0xD93 DUP3 PUSH2 0xD52 JUMP JUMPDEST PUSH1 0x20 DUP3 ADD SWAP1 POP SWAP2 SWAP1 POP JUMP JUMPDEST PUSH1 0x0 PUSH1 0x20 DUP3 ADD SWAP1 POP DUP2 DUP2 SUB PUSH1 0x0 DUP4 ADD MSTORE PUSH2 0xDB7 DUP2 PUSH2 0xD7B JUMP JUMPDEST SWAP1 POP SWAP2 SWAP1 POP JUMP JUMPDEST PUSH1 0x0 DUP2 SWAP1 POP SWAP2 SWAP1 POP JUMP JUMPDEST PUSH1 0x0 PUSH2 0xDE3 PUSH2 0xDDE PUSH2 0xDD9 DUP5 PUSH2 0xDBE JUMP JUMPDEST PUSH2 0xC15 JUMP JUMPDEST PUSH2 0x8FB JUMP JUMPDEST SWAP1 POP SWAP2 SWAP1 POP JUMP JUMPDEST PUSH2 0xDF3 DUP2 PUSH2 0xDC8 JUMP JUMPDEST DUP3 MSTORE POP POP JUMP JUMPDEST PUSH1 0x0 PUSH1 0x60 DUP3 ADD SWAP1 POP PUSH2 0xE0E PUSH1 0x0 DUP4 ADD DUP7 PUSH2 0xA20 JUMP JUMPDEST PUSH2 0xE1B PUSH1 0x20 DUP4 ADD DUP6 PUSH2 0xA20 JUMP JUMPDEST PUSH2 0xE28 PUSH1 0x40 DUP4 ADD DUP5 PUSH2 0xDEA JUMP JUMPDEST SWAP5 SWAP4 POP POP POP POP JUMP JUMPDEST PUSH2 0xE39 DUP2 PUSH2 0xA3E JUMP JUMPDEST DUP2 EQ PUSH2 0xE44 JUMPI PUSH1 0x0 DUP1 REVERT JUMPDEST POP JUMP JUMPDEST PUSH1 0x0 DUP2 MLOAD SWAP1 POP PUSH2 0xE56 DUP2 PUSH2 0xE30 JUMP JUMPDEST SWAP3 SWAP2 POP POP JUMP JUMPDEST PUSH1 0x0 PUSH1 0x20 DUP3 DUP5 SUB SLT ISZERO PUSH2 0xE72 JUMPI PUSH2 0xE71 PUSH2 0x8F1 JUMP JUMPDEST JUMPDEST PUSH1 0x0 PUSH2 0xE80 DUP5 DUP3 DUP6 ADD PUSH2 0xE47 JUMP JUMPDEST SWAP2 POP POP SWAP3 SWAP2 POP POP JUMP JUMPDEST PUSH32 0x4E6F20766F74657320617661696C61626C650000000000000000000000000000 PUSH1 0x0 DUP3 ADD MSTORE POP JUMP JUMPDEST PUSH1 0x0 PUSH2 0xEBF PUSH1 0x12 DUP4 PUSH2 0x969 JUMP JUMPDEST SWAP2 POP PUSH2 0xECA DUP3 PUSH2 0xE89 JUMP JUMPDEST PUSH1 0x20 DUP3 ADD SWAP1 POP SWAP2 SWAP1 POP JUMP JUMPDEST PUSH1 0x0 PUSH1 0x20 DUP3 ADD SWAP1 POP DUP2 DUP2 SUB PUSH1 0x0 DUP4 ADD MSTORE PUSH2 0xEEE DUP2 PUSH2 0xEB2 JUMP JUMPDEST SWAP1 POP SWAP2 SWAP1 POP JUMP JUMPDEST PUSH32 0x4E487B7100000000000000000000000000000000000000000000000000000000 PUSH1 0x0 MSTORE PUSH1 0x32 PUSH1 0x4 MSTORE PUSH1 0x24 PUSH1 0x0 REVERT JUMPDEST PUSH1 0x0 PUSH1 0xFF DUP3 AND SWAP1 POP SWAP2 SWAP1 POP JUMP JUMPDEST PUSH2 0xF3A DUP2 PUSH2 0xF24 JUMP JUMPDEST DUP2 EQ PUSH2 0xF45 JUMPI PUSH1 0x0 DUP1 REVERT JUMPDEST POP JUMP JUMPDEST PUSH1 0x0 DUP2 CALLDATALOAD SWAP1 POP PUSH2 0xF57 DUP2 PUSH2 0xF31 JUMP JUMPDEST SWAP3 SWAP2 POP POP JUMP JUMPDEST PUSH1 0x0 PUSH1 0x20 DUP3 DUP5 SUB SLT ISZERO PUSH2 0xF73 JUMPI PUSH2 0xF72 PUSH2 0x8F1 JUMP JUMPDEST JUMPDEST PUSH1 0x0 PUSH2 0xF81 DUP5 DUP3 DUP6 ADD PUSH2 0xF48 JUMP JUMPDEST SWAP2 POP POP SWAP3 SWAP2 POP POP JUMP JUMPDEST PUSH32 0x496E76616C696420766F7465206465636973696F6E0000000000000000000000 PUSH1 0x0 DUP3 ADD MSTORE POP JUMP JUMPDEST PUSH1 0x0 PUSH2 0xFC0 PUSH1 0x15 DUP4 PUSH2 0x969 JUMP JUMPDEST SWAP2 POP PUSH2 0xFCB DUP3 PUSH2 0xF8A JUMP JUMPDEST PUSH1 0x20 DUP3 ADD SWAP1 POP SWAP2 SWAP1 POP JUMP JUMPDEST PUSH1 0x0 PUSH1 0x20 DUP3 ADD SWAP1 POP DUP2 DUP2 SUB PUSH1 0x0 DUP4 ADD MSTORE PUSH2 0xFEF DUP2 PUSH2 0xFB3 JUMP JUMPDEST SWAP1 POP SWAP2 SWAP1 POP JUMP JUMPDEST PUSH2 0xFFF DUP2 PUSH2 0xF24 JUMP JUMPDEST DUP3 MSTORE POP POP JUMP JUMPDEST PUSH1 0x0 PUSH1 0x20 DUP3 ADD SWAP1 POP PUSH2 0x101A PUSH1 0x0 DUP4 ADD DUP5 PUSH2 0xFF6 JUMP JUMPDEST SWAP3 SWAP2 POP POP JUMP JUMPDEST PUSH1 0x0 PUSH2 0x102B DUP3 PUSH2 0x8FB JUMP JUMPDEST SWAP2 POP PUSH32 0xFFFFFFFFFFFFFFFFFFFFFFFFFFFFFFFFFFFFFFFFFFFFFFFFFFFFFFFFFFFFFFFF DUP3 SUB PUSH2 0x105D JUMPI PUSH2 0x105C PUSH2 0xCEF JUMP JUMPDEST JUMPDEST PUSH1 0x1 DUP3 ADD SWAP1 POP SWAP2 SWAP1 POP JUMP JUMPDEST PUSH32 0x4E487B7100000000000000000000000000000000000000000000000000000000 PUSH1 0x0 MSTORE PUSH1 0x41 PUSH1 0x4 MSTORE PUSH1 0x24 PUSH1 0x0 REVERT JUMPDEST PUSH1 0x0 DUP2 SWAP1 POP DUP2 PUSH1 0x0 MSTORE PUSH1 0x20 PUSH1 0x0 KECCAK256 SWAP1 POP SWAP2 SWAP1 POP JUMP JUMPDEST PUSH1 0x0 PUSH1 0x20 PUSH1 0x1F DUP4 ADD DIV SWAP1 POP SWAP2 SWAP1 POP JUMP JUMPDEST PUSH1 0x0 DUP3 DUP3 SHL SWAP1 POP SWAP3 SWAP2 POP POP JUMP JUMPDEST PUSH1 0x0 PUSH1 0x8 DUP4 MUL PUSH2 0x10F9 PUSH32 0xFFFFFFFFFFFFFFFFFFFFFFFFFFFFFFFFFFFFFFFFFFFFFFFFFFFFFFFFFFFFFFFF DUP3 PUSH2 0x10BC JUMP JUMPDEST PUSH2 0x1103 DUP7 DUP4 PUSH2 0x10BC JUMP JUMPDEST SWAP6 POP DUP1 NOT DUP5 AND SWAP4 POP DUP1 DUP7 AND DUP5 OR SWAP3 POP POP POP SWAP4 SWAP3 POP POP POP JUMP JUMPDEST PUSH1 0x0 PUSH2 0x1136 PUSH2 0x1131 PUSH2 0x112C DUP5 PUSH2 0x8FB JUMP JUMPDEST PUSH2 0xC15 JUMP JUMPDEST PUSH2 0x8FB JUMP JUMPDEST SWAP1 POP SWAP2 SWAP1 POP JUMP JUMPDEST PUSH1 0x0 DUP2 SWAP1 POP SWAP2 SWAP1 POP JUMP JUMPDEST PUSH2 0x1150 DUP4 PUSH2 0x111B JUMP JUMPDEST PUSH2 0x1164 PUSH2 0x115C DUP3 PUSH2 0x113D JUMP JUMPDEST DUP5 DUP5 SLOAD PUSH2 0x10C9 JUMP JUMPDEST DUP3 SSTORE POP POP POP POP JUMP JUMPDEST PUSH1 0x0 SWAP1 JUMP JUMPDEST PUSH2 0x1179 PUSH2 0x116C JUMP JUMPDEST PUSH2 0x1184 DUP2 DUP5 DUP5 PUSH2 0x1147 JUMP JUMPDEST POP POP POP JUMP JUMPDEST JUMPDEST DUP2 DUP2 LT ISZERO PUSH2 0x11A8 JUMPI PUSH2 0x119D PUSH1 0x0 DUP3 PUSH2 0x1171 JUMP JUMPDEST PUSH1 0x1 DUP2 ADD SWAP1 POP PUSH2 0x118A JUMP JUMPDEST POP POP JUMP JUMPDEST PUSH1 0x1F DUP3 GT ISZERO PUSH2 0x11ED JUMPI PUSH2 0x11BE DUP2 PUSH2 0x1097 JUMP JUMPDEST PUSH2 0x11C7 DUP5 PUSH2 0x10AC JUMP JUMPDEST DUP2 ADD PUSH1 0x20 DUP6 LT ISZERO PUSH2 0x11D6 JUMPI DUP2 SWAP1 POP JUMPDEST PUSH2 0x11EA PUSH2 0x11E2 DUP6 PUSH2 0x10AC JUMP JUMPDEST DUP4 ADD DUP3 PUSH2 0x1189 JUMP JUMPDEST POP POP JUMPDEST POP POP POP JUMP JUMPDEST PUSH1 0x0 DUP3 DUP3 SHR SWAP1 POP SWAP3 SWAP2 POP POP JUMP JUMPDEST PUSH1 0x0 PUSH2 0x1210 PUSH1 0x0 NOT DUP5 PUSH1 0x8 MUL PUSH2 0x11F2 JUMP JUMPDEST NOT DUP1 DUP4 AND SWAP2 POP POP SWAP3 SWAP2 POP POP JUMP JUMPDEST PUSH1 0x0 PUSH2 0x1229 DUP4 DUP4 PUSH2 0x11FF JUMP JUMPDEST SWAP2 POP DUP3 PUSH1 0x2 MUL DUP3 OR SWAP1 POP SWAP3 SWAP2 POP POP JUMP JUMPDEST PUSH2 0x1242 DUP3 PUSH2 0x95E JUMP JUMPDEST PUSH8 0xFFFFFFFFFFFFFFFF DUP2 GT ISZERO PUSH2 0x125B JUMPI PUSH2 0x125A PUSH2 0x1068 JUMP JUMPDEST JUMPDEST PUSH2 0x1265 DUP3 SLOAD PUSH2 0xCBE JUMP JUMPDEST PUSH2 0x1270 DUP3 DUP3 DUP6 PUSH2 0x11AC JUMP JUMPDEST PUSH1 0x0 PUSH1 0x20 SWAP1 POP PUSH1 0x1F DUP4 GT PUSH1 0x1 DUP2 EQ PUSH2 0x12A3 JUMPI PUSH1 0x0 DUP5 ISZERO PUSH2 0x1291 JUMPI DUP3 DUP8 ADD MLOAD SWAP1 POP JUMPDEST PUSH2 0x129B DUP6 DUP3 PUSH2 0x121D JUMP JUMPDEST DUP7 SSTORE POP PUSH2 0x1303 JUMP JUMPDEST PUSH1 0x1F NOT DUP5 AND PUSH2 0x12B1 DUP7 PUSH2 0x1097 JUMP JUMPDEST PUSH1 0x0 JUMPDEST DUP3 DUP2 LT ISZERO PUSH2 0x12D9 JUMPI DUP5 DUP10 ADD MLOAD DUP3 SSTORE PUSH1 0x1 DUP3 ADD SWAP2 POP PUSH1 0x20 DUP6 ADD SWAP5 POP PUSH1 0x20 DUP2 ADD SWAP1 POP PUSH2 0x12B4 JUMP JUMPDEST DUP7 DUP4 LT ISZERO PUSH2 0x12F6 JUMPI DUP5 DUP10 ADD MLOAD PUSH2 0x12F2 PUSH1 0x1F DUP10 AND DUP3 PUSH2 0x11FF JUMP JUMPDEST DUP4 SSTORE POP JUMPDEST PUSH1 0x1 PUSH1 0x2 DUP9 MUL ADD DUP9 SSTORE POP POP POP JUMPDEST POP POP POP POP POP POP JUMP JUMPDEST DUP3 DUP2 DUP4 CALLDATACOPY PUSH1 0x0 DUP4 DUP4 ADD MSTORE POP POP POP JUMP JUMPDEST PUSH1 0x0 PUSH2 0x1326 DUP4 DUP6 PUSH2 0x969 JUMP JUMPDEST SWAP4 POP PUSH2 0x1333 DUP4 DUP6 DUP5 PUSH2 0x130B JUMP JUMPDEST PUSH2 0x133C DUP4 PUSH2 0x9A4 JUMP JUMPDEST DUP5 ADD SWAP1 POP SWAP4 SWAP3 POP POP POP JUMP JUMPDEST PUSH1 0x0 PUSH1 0x20 DUP3 ADD SWAP1 POP DUP2 DUP2 SUB PUSH1 0x0 DUP4 ADD MSTORE PUSH2 0x1362 DUP2 DUP5 DUP7 PUSH2 0x131A JUMP JUMPDEST SWAP1 POP SWAP4 SWAP3 POP POP POP JUMP INVALID LOG2 PUSH5 0x6970667358 0x22 SLT KECCAK256 SHL 0xE9 CALLDATASIZE RETURNDATACOPY 0xA9 CREATE 0xE2 SWAP12 CALLER PUSH22 0xAF34111C10E1B9204252496552E7212BACDE7D3C6D40 PUSH5 0x736F6C6343 STOP ADDMOD GT STOP CALLER "},"methodIdentifiers":{"SUBMISSION_PERIOD()":"f6356d4f","TRANSITION_PERIOD()":"ca9ff629","VOTING_PERIOD()":"b1610d7e","castVote((uint256,uint8)[])":"1fe39da8","castedVotes()":"f1b095b0","hackathonEndTime()":"6ead1acb","proposals(uint256)":"013cf08b","proposalsCount()":"0a9f46ad","submitProposal(string)":"373d6d5e","votingToken()":"b0340123"}}}}}