{
  "_format": "hh-sol-artifact-1",
  "contractName": "ProposalVoting",
  "sourceName": "contracts/Proposals.sol",
  "abi": [
    {
      "inputs": [],
      "stateMutability": "nonpayable",
      "type": "constructor"
    },
    {
      "inputs": [],
      "name": "not_in_proposalPeriod",
      "type": "error"
    },
    {
      "inputs": [],
      "name": "not_in_votingPeriod",
      "type": "error"
    },
    {
      "anonymous": false,
      "inputs": [
        {
          "indexed": true,
          "internalType": "address",
          "name": "recipient",
          "type": "address"
        },
        {
          "indexed": false,
          "internalType": "string",
          "name": "message",
          "type": "string"
        }
      ],
      "name": "ProposalSubmitted",
      "type": "event"
    },
    {
      "anonymous": false,
      "inputs": [
        {
          "indexed": true,
          "internalType": "address",
          "name": "sender",
          "type": "address"
        },
        {
          "indexed": true,
          "internalType": "address",
          "name": "proposalOwner",
          "type": "address"
        },
        {
          "indexed": false,
          "internalType": "uint8",
          "name": "accept",
          "type": "uint8"
        }
      ],
      "name": "VoteCasted",
      "type": "event"
    },
    {
      "inputs": [],
      "name": "SUBMISSION_PERIOD",
      "outputs": [
        {
          "internalType": "uint256",
          "name": "",
          "type": "uint256"
        }
      ],
      "stateMutability": "view",
      "type": "function"
    },
    {
      "inputs": [],
      "name": "TRANSITION_PERIOD",
      "outputs": [
        {
          "internalType": "uint256",
          "name": "",
          "type": "uint256"
        }
      ],
      "stateMutability": "view",
      "type": "function"
    },
    {
      "inputs": [],
      "name": "VOTING_PERIOD",
      "outputs": [
        {
          "internalType": "uint256",
          "name": "",
          "type": "uint256"
        }
      ],
      "stateMutability": "view",
      "type": "function"
    },
    {
      "inputs": [
        {
          "components": [
            {
              "internalType": "uint256",
              "name": "proposalIndex",
              "type": "uint256"
            },
            {
              "internalType": "uint8",
              "name": "decision",
              "type": "uint8"
            }
          ],
          "internalType": "struct ProposalVoting.Vote[]",
          "name": "_votes",
          "type": "tuple[]"
        }
      ],
      "name": "castVote",
      "outputs": [],
      "stateMutability": "nonpayable",
      "type": "function"
    },
    {
      "inputs": [],
      "name": "castedVotes",
      "outputs": [
        {
          "internalType": "uint256",
          "name": "",
          "type": "uint256"
        }
      ],
      "stateMutability": "view",
      "type": "function"
    },
    {
      "inputs": [],
      "name": "hackathonEndTime",
      "outputs": [
        {
          "internalType": "uint256",
          "name": "",
          "type": "uint256"
        }
      ],
      "stateMutability": "view",
      "type": "function"
    },
    {
      "inputs": [
        {
          "internalType": "uint256",
          "name": "",
          "type": "uint256"
        }
      ],
      "name": "proposals",
      "outputs": [
        {
          "internalType": "string",
          "name": "description",
          "type": "string"
        },
        {
          "internalType": "address",
          "name": "proposalOwner",
          "type": "address"
        },
        {
          "internalType": "uint256",
          "name": "votes",
          "type": "uint256"
        },
        {
          "internalType": "bool",
          "name": "accepted",
          "type": "bool"
        }
      ],
      "stateMutability": "view",
      "type": "function"
    },
    {
      "inputs": [],
      "name": "proposalsCount",
      "outputs": [
        {
          "internalType": "uint256",
          "name": "",
          "type": "uint256"
        }
      ],
      "stateMutability": "view",
      "type": "function"
    },
    {
      "inputs": [
        {
          "internalType": "uint256",
          "name": "_hackathonEndTime",
          "type": "uint256"
        },
        {
          "internalType": "uint256",
          "name": "_transitionPeriod",
          "type": "uint256"
        },
        {
          "internalType": "uint256",
          "name": "_submissionEndDate",
          "type": "uint256"
        },
        {
          "internalType": "uint256",
          "name": "votingEndDate",
          "type": "uint256"
        },
        {
          "internalType": "address",
          "name": "_votingTokenAddress",
          "type": "address"
        }
      ],
      "name": "setTimes",
      "outputs": [],
      "stateMutability": "nonpayable",
      "type": "function"
    },
    {
      "inputs": [
        {
          "internalType": "string",
          "name": "_description",
          "type": "string"
        }
      ],
      "name": "submitProposal",
      "outputs": [],
      "stateMutability": "nonpayable",
      "type": "function"
    },
    {
      "inputs": [],
      "name": "votingToken",
      "outputs": [
        {
          "internalType": "contract IERC20",
          "name": "",
          "type": "address"
        }
      ],
      "stateMutability": "view",
      "type": "function"
    }
  ],
  "bytecode": "0x60806040526276a70060035562278d006003546200001e919062000084565b600455620d2f0060045462000034919062000084565b6005553480156200004457600080fd5b50620000bf565b6000819050919050565b7f4e487b7100000000000000000000000000000000000000000000000000000000600052601160045260246000fd5b600062000091826200004b565b91506200009e836200004b565b9250828201905080821115620000b957620000b862000055565b5b92915050565b61146980620000cf6000396000f3fe608060405234801561001057600080fd5b50600436106100a95760003560e01c8063b034012311610071578063b034012314610155578063b1610d7e14610173578063ca9ff62914610191578063ea1bf4c4146101af578063f1b095b0146101cb578063f6356d4f146101e9576100a9565b8063013cf08b146100ae5780630a9f46ad146100e15780631fe39da8146100ff578063373d6d5e1461011b5780636ead1acb14610137575b600080fd5b6100c860048036038101906100c39190610952565b610207565b6040516100d89493929190610a7a565b60405180910390f35b6100e96102fc565b6040516100f69190610ac6565b60405180910390f35b61011960048036038101906101149190610b46565b610309565b005b61013560048036038101906101309190610be9565b61067e565b005b61013f61086d565b60405161014c9190610ac6565b60405180910390f35b61015d610873565b60405161016a9190610c95565b60405180910390f35b61017b610897565b6040516101889190610ac6565b60405180910390f35b61019961089d565b6040516101a69190610ac6565b60405180910390f35b6101c960048036038101906101c49190610cdc565b6108a3565b005b6101d3610906565b6040516101e09190610ac6565b60405180910390f35b6101f161090c565b6040516101fe9190610ac6565b60405180910390f35b6001818154811061021757600080fd5b906000526020600020906004020160009150905080600001805461023a90610d86565b80601f016020809104026020016040519081016040528092919081815260200182805461026690610d86565b80156102b35780601f10610288576101008083540402835291602001916102b3565b820191906000526020600020905b81548152906001019060200180831161029657829003601f168201915b5050505050908060010160009054906101000a900473ffffffffffffffffffffffffffffffffffffffff16908060020154908060030160009054906101000a900460ff16905084565b6000600180549050905090565b4260045460025461031a9190610de6565b118061033457506005546002546103319190610de6565b42115b1561036b576040517f1fd2f97200000000000000000000000000000000000000000000000000000000815260040160405180910390fd5b60018054905082829050146103b5576040517f08c379a00000000000000000000000000000000000000000000000000000000081526004016103ac90610e66565b60405180910390fd5b60008054906101000a900473ffffffffffffffffffffffffffffffffffffffff1673ffffffffffffffffffffffffffffffffffffffff166323b872dd3330670de0b6b3a76400006040518463ffffffff1660e01b815260040161041a93929190610ec1565b6020604051808303816000875af1158015610439573d6000803e3d6000fd5b505050506040513d601f19601f8201168201806040525081019061045d9190610f24565b61049c576040517f08c379a000000000000000000000000000000000000000000000000000000000815260040161049390610f9d565b60405180910390fd5b6001600660008282546104af9190610de6565b9250508190555060005b8282905081101561067957368383838181106104d8576104d7610fbd565b5b905060400201905060008160200160208101906104f59190611025565b60ff161480610519575060018160200160208101906105149190611025565b60ff16145b610558576040517f08c379a000000000000000000000000000000000000000000000000000000000815260040161054f9061109e565b60405180910390fd5b80602001602081019061056b9190611025565b60ff166001838154811061058257610581610fbd565b5b906000526020600020906004020160020160008282546105a29190610de6565b92505081905550600182815481106105bd576105bc610fbd565b5b906000526020600020906004020160010160009054906101000a900473ffffffffffffffffffffffffffffffffffffffff1673ffffffffffffffffffffffffffffffffffffffff163373ffffffffffffffffffffffffffffffffffffffff167f295c2eecb6286510cbcce4b1c262b5ca41926994dc773db67c91f036bbf3d88f8360200160208101906106509190611025565b60405161065d91906110cd565b60405180910390a3508080610671906110e8565b9150506104b9565b505050565b4260045460025461068f9190610de6565b10806106a957506003546002546106a69190610de6565b42105b156106e0576040517f3b21115800000000000000000000000000000000000000000000000000000000815260040160405180910390fd5b6000604051806080016040528084848080601f016020809104026020016040519081016040528093929190818152602001838380828437600081840152601f19601f8201169050808301925050505050505081526020013373ffffffffffffffffffffffffffffffffffffffff16815260200160008152602001600015158152509050600181908060018154018082558091505060019003906000526020600020906004020160009091909190915060008201518160000190816107a49190611301565b5060208201518160010160006101000a81548173ffffffffffffffffffffffffffffffffffffffff021916908373ffffffffffffffffffffffffffffffffffffffff1602179055506040820151816002015560608201518160030160006101000a81548160ff02191690831515021790555050503373ffffffffffffffffffffffffffffffffffffffff167fd1efe34a534b4d45759bb8d8f7c24cb8b465b18cf3e3710c3dc9d70ddd2b2930848460405161086092919061140f565b60405180910390a2505050565b60025481565b60008054906101000a900473ffffffffffffffffffffffffffffffffffffffff1681565b60055481565b60035481565b83600381905550826004819055508160058190555084600281905550806000806101000a81548173ffffffffffffffffffffffffffffffffffffffff021916908373ffffffffffffffffffffffffffffffffffffffff1602179055505050505050565b60065481565b60045481565b600080fd5b600080fd5b6000819050919050565b61092f8161091c565b811461093a57600080fd5b50565b60008135905061094c81610926565b92915050565b60006020828403121561096857610967610912565b5b60006109768482850161093d565b91505092915050565b600081519050919050565b600082825260208201905092915050565b60005b838110156109b957808201518184015260208101905061099e565b60008484015250505050565b6000601f19601f8301169050919050565b60006109e18261097f565b6109eb818561098a565b93506109fb81856020860161099b565b610a04816109c5565b840191505092915050565b600073ffffffffffffffffffffffffffffffffffffffff82169050919050565b6000610a3a82610a0f565b9050919050565b610a4a81610a2f565b82525050565b610a598161091c565b82525050565b60008115159050919050565b610a7481610a5f565b82525050565b60006080820190508181036000830152610a9481876109d6565b9050610aa36020830186610a41565b610ab06040830185610a50565b610abd6060830184610a6b565b95945050505050565b6000602082019050610adb6000830184610a50565b92915050565b600080fd5b600080fd5b600080fd5b60008083601f840112610b0657610b05610ae1565b5b8235905067ffffffffffffffff811115610b2357610b22610ae6565b5b602083019150836040820283011115610b3f57610b3e610aeb565b5b9250929050565b60008060208385031215610b5d57610b5c610912565b5b600083013567ffffffffffffffff811115610b7b57610b7a610917565b5b610b8785828601610af0565b92509250509250929050565b60008083601f840112610ba957610ba8610ae1565b5b8235905067ffffffffffffffff811115610bc657610bc5610ae6565b5b602083019150836001820283011115610be257610be1610aeb565b5b9250929050565b60008060208385031215610c0057610bff610912565b5b600083013567ffffffffffffffff811115610c1e57610c1d610917565b5b610c2a85828601610b93565b92509250509250929050565b6000819050919050565b6000610c5b610c56610c5184610a0f565b610c36565b610a0f565b9050919050565b6000610c6d82610c40565b9050919050565b6000610c7f82610c62565b9050919050565b610c8f81610c74565b82525050565b6000602082019050610caa6000830184610c86565b92915050565b610cb981610a2f565b8114610cc457600080fd5b50565b600081359050610cd681610cb0565b92915050565b600080600080600060a08688031215610cf857610cf7610912565b5b6000610d068882890161093d565b9550506020610d178882890161093d565b9450506040610d288882890161093d565b9350506060610d398882890161093d565b9250506080610d4a88828901610cc7565b9150509295509295909350565b7f4e487b7100000000000000000000000000000000000000000000000000000000600052602260045260246000fd5b60006002820490506001821680610d9e57607f821691505b602082108103610db157610db0610d57565b5b50919050565b7f4e487b7100000000000000000000000000000000000000000000000000000000600052601160045260246000fd5b6000610df18261091c565b9150610dfc8361091c565b9250828201905080821115610e1457610e13610db7565b5b92915050565b7f496e76616c6964206e756d626572206f6620766f746573000000000000000000600082015250565b6000610e5060178361098a565b9150610e5b82610e1a565b602082019050919050565b60006020820190508181036000830152610e7f81610e43565b9050919050565b6000819050919050565b6000610eab610ea6610ea184610e86565b610c36565b61091c565b9050919050565b610ebb81610e90565b82525050565b6000606082019050610ed66000830186610a41565b610ee36020830185610a41565b610ef06040830184610eb2565b949350505050565b610f0181610a5f565b8114610f0c57600080fd5b50565b600081519050610f1e81610ef8565b92915050565b600060208284031215610f3a57610f39610912565b5b6000610f4884828501610f0f565b91505092915050565b7f4e6f20766f74657320617661696c61626c650000000000000000000000000000600082015250565b6000610f8760128361098a565b9150610f9282610f51565b602082019050919050565b60006020820190508181036000830152610fb681610f7a565b9050919050565b7f4e487b7100000000000000000000000000000000000000000000000000000000600052603260045260246000fd5b600060ff82169050919050565b61100281610fec565b811461100d57600080fd5b50565b60008135905061101f81610ff9565b92915050565b60006020828403121561103b5761103a610912565b5b600061104984828501611010565b91505092915050565b7f496e76616c696420766f7465206465636973696f6e0000000000000000000000600082015250565b600061108860158361098a565b915061109382611052565b602082019050919050565b600060208201905081810360008301526110b78161107b565b9050919050565b6110c781610fec565b82525050565b60006020820190506110e260008301846110be565b92915050565b60006110f38261091c565b91507fffffffffffffffffffffffffffffffffffffffffffffffffffffffffffffffff820361112557611124610db7565b5b600182019050919050565b7f4e487b7100000000000000000000000000000000000000000000000000000000600052604160045260246000fd5b60008190508160005260206000209050919050565b60006020601f8301049050919050565b600082821b905092915050565b6000600883026111c17fffffffffffffffffffffffffffffffffffffffffffffffffffffffffffffffff82611184565b6111cb8683611184565b95508019841693508086168417925050509392505050565b60006111fe6111f96111f48461091c565b610c36565b61091c565b9050919050565b6000819050919050565b611218836111e3565b61122c61122482611205565b848454611191565b825550505050565b600090565b611241611234565b61124c81848461120f565b505050565b5b8181101561127057611265600082611239565b600181019050611252565b5050565b601f8211156112b5576112868161115f565b61128f84611174565b8101602085101561129e578190505b6112b26112aa85611174565b830182611251565b50505b505050565b600082821c905092915050565b60006112d8600019846008026112ba565b1980831691505092915050565b60006112f183836112c7565b9150826002028217905092915050565b61130a8261097f565b67ffffffffffffffff81111561132357611322611130565b5b61132d8254610d86565b611338828285611274565b600060209050601f83116001811461136b5760008415611359578287015190505b61136385826112e5565b8655506113cb565b601f1984166113798661115f565b60005b828110156113a15784890151825560018201915060208501945060208101905061137c565b868310156113be57848901516113ba601f8916826112c7565b8355505b6001600288020188555050505b505050505050565b82818337600083830152505050565b60006113ee838561098a565b93506113fb8385846113d3565b611404836109c5565b840190509392505050565b6000602082019050818103600083015261142a8184866113e2565b9050939250505056fea2646970667358221220e360e1eda0da6e3d0812b9af63418524190d6bae11177283f78199c1c703b43c64736f6c63430008110033",
  "linkReferences": {},
  "deployedLinkReferences": {}
}