{
  "_format": "hh-sol-artifact-1",
  "contractName": "ProposalVoting",
  "sourceName": "contracts/Proposals.sol",
  "abi": [
    {
      "inputs": [
        {
          "internalType": "uint256",
          "name": "_hackathonEndTime",
          "type": "uint256"
        },
        {
          "internalType": "address",
          "name": "_votingTokenAddress",
          "type": "address"
        }
      ],
      "stateMutability": "nonpayable",
      "type": "constructor"
    },
    {
      "anonymous": false,
      "inputs": [
        {
          "indexed": true,
          "internalType": "address",
          "name": "recipient",
          "type": "address"
        },
        {
          "indexed": false,
          "internalType": "string",
          "name": "message",
          "type": "string"
        }
      ],
      "name": "ProposalSubmitted",
      "type": "event"
    },
    {
      "anonymous": false,
      "inputs": [
        {
          "indexed": true,
          "internalType": "address",
          "name": "sender",
          "type": "address"
        },
        {
          "indexed": true,
          "internalType": "address",
          "name": "proposalOwner",
          "type": "address"
        },
        {
          "indexed": false,
          "internalType": "uint8",
          "name": "accept",
          "type": "uint8"
        }
      ],
      "name": "VoteCasted",
      "type": "event"
    },
    {
      "inputs": [],
      "name": "SUBMISSION_PERIOD",
      "outputs": [
        {
          "internalType": "uint256",
          "name": "",
          "type": "uint256"
        }
      ],
      "stateMutability": "view",
      "type": "function"
    },
    {
      "inputs": [],
      "name": "TRANSITION_PERIOD",
      "outputs": [
        {
          "internalType": "uint256",
          "name": "",
          "type": "uint256"
        }
      ],
      "stateMutability": "view",
      "type": "function"
    },
    {
      "inputs": [],
      "name": "VOTING_PERIOD",
      "outputs": [
        {
          "internalType": "uint256",
          "name": "",
          "type": "uint256"
        }
      ],
      "stateMutability": "view",
      "type": "function"
    },
    {
      "inputs": [
        {
          "components": [
            {
              "internalType": "uint256",
              "name": "proposalIndex",
              "type": "uint256"
            },
            {
              "internalType": "uint8",
              "name": "decision",
              "type": "uint8"
            }
          ],
          "internalType": "struct ProposalVoting.Vote[]",
          "name": "_votes",
          "type": "tuple[]"
        }
      ],
      "name": "castVote",
      "outputs": [],
      "stateMutability": "nonpayable",
      "type": "function"
    },
    {
      "inputs": [],
      "name": "castedVotes",
      "outputs": [
        {
          "internalType": "uint256",
          "name": "",
          "type": "uint256"
        }
      ],
      "stateMutability": "view",
      "type": "function"
    },
    {
      "inputs": [],
      "name": "hackathonEndTime",
      "outputs": [
        {
          "internalType": "uint256",
          "name": "",
          "type": "uint256"
        }
      ],
      "stateMutability": "view",
      "type": "function"
    },
    {
      "inputs": [
        {
          "internalType": "uint256",
          "name": "",
          "type": "uint256"
        }
      ],
      "name": "proposals",
      "outputs": [
        {
          "internalType": "string",
          "name": "description",
          "type": "string"
        },
        {
          "internalType": "address",
          "name": "proposalOwner",
          "type": "address"
        },
        {
          "internalType": "uint256",
          "name": "votes",
          "type": "uint256"
        },
        {
          "internalType": "bool",
          "name": "accepted",
          "type": "bool"
        }
      ],
      "stateMutability": "view",
      "type": "function"
    },
    {
      "inputs": [],
      "name": "proposalsCount",
      "outputs": [
        {
          "internalType": "uint256",
          "name": "",
          "type": "uint256"
        }
      ],
      "stateMutability": "view",
      "type": "function"
    },
    {
      "inputs": [
        {
          "internalType": "string",
          "name": "_description",
          "type": "string"
        }
      ],
      "name": "submitProposal",
      "outputs": [],
      "stateMutability": "nonpayable",
      "type": "function"
    },
    {
      "inputs": [],
      "name": "votingToken",
      "outputs": [
        {
          "internalType": "contract IERC20",
          "name": "",
          "type": "address"
        }
      ],
      "stateMutability": "view",
      "type": "function"
    }
  ],
  "bytecode": "0x60806040523480156200001157600080fd5b506040516200177d3803806200177d83398181016040528101906200003791906200012b565b81600281905550806000806101000a81548173ffffffffffffffffffffffffffffffffffffffff021916908373ffffffffffffffffffffffffffffffffffffffff160217905550505062000172565b600080fd5b6000819050919050565b620000a0816200008b565b8114620000ac57600080fd5b50565b600081519050620000c08162000095565b92915050565b600073ffffffffffffffffffffffffffffffffffffffff82169050919050565b6000620000f382620000c6565b9050919050565b6200010581620000e6565b81146200011157600080fd5b50565b6000815190506200012581620000fa565b92915050565b6000806040838503121562000145576200014462000086565b5b60006200015585828601620000af565b9250506020620001688582860162000114565b9150509250929050565b6115fb80620001826000396000f3fe608060405234801561001057600080fd5b506004361061009e5760003560e01c8063b034012311610066578063b03401231461014a578063b1610d7e14610168578063ca9ff62914610186578063f1b095b0146101a4578063f6356d4f146101c25761009e565b8063013cf08b146100a35780630a9f46ad146100d65780631fe39da8146100f4578063373d6d5e146101105780636ead1acb1461012c575b600080fd5b6100bd60048036038101906100b891906109b5565b6101e0565b6040516100cd9493929190610add565b60405180910390f35b6100de6102d5565b6040516100eb9190610b29565b60405180910390f35b61010e60048036038101906101099190610ba9565b6102e2565b005b61012a60048036038101906101259190610c4c565b6106c5565b005b610134610906565b6040516101419190610b29565b60405180910390f35b61015261090c565b60405161015f9190610cf8565b60405180910390f35b610170610930565b60405161017d9190610b29565b60405180910390f35b61018e610953565b60405161019b9190610b29565b60405180910390f35b6101ac61095a565b6040516101b99190610b29565b60405180910390f35b6101ca610960565b6040516101d79190610b29565b60405180910390f35b600181815481106101f057600080fd5b906000526020600020906004020160009150905080600001805461021390610d42565b80601f016020809104026020016040519081016040528092919081815260200182805461023f90610d42565b801561028c5780601f106102615761010080835404028352916020019161028c565b820191906000526020600020905b81548152906001019060200180831161026f57829003601f168201915b5050505050908060010160009054906101000a900473ffffffffffffffffffffffffffffffffffffffff16908060020154908060030160009054906101000a900460ff16905084565b6000600180549050905090565b621a5e006276a7006102f49190610da2565b6002546103019190610da2565b421015610343576040517f08c379a000000000000000000000000000000000000000000000000000000000815260040161033a90610e22565b60405180910390fd5b620d2f00621a5e006276a7006103599190610da2565b6103639190610da2565b6002546103709190610da2565b4211156103b2576040517f08c379a00000000000000000000000000000000000000000000000000000000081526004016103a990610e8e565b60405180910390fd5b60018054905082829050146103fc576040517f08c379a00000000000000000000000000000000000000000000000000000000081526004016103f390610efa565b60405180910390fd5b60008054906101000a900473ffffffffffffffffffffffffffffffffffffffff1673ffffffffffffffffffffffffffffffffffffffff166323b872dd3330670de0b6b3a76400006040518463ffffffff1660e01b815260040161046193929190610f55565b6020604051808303816000875af1158015610480573d6000803e3d6000fd5b505050506040513d601f19601f820116820180604052508101906104a49190610fb8565b6104e3576040517f08c379a00000000000000000000000000000000000000000000000000000000081526004016104da90611031565b60405180910390fd5b6001600360008282546104f69190610da2565b9250508190555060005b828290508110156106c0573683838381811061051f5761051e611051565b5b9050604002019050600081602001602081019061053c91906110b9565b60ff1614806105605750600181602001602081019061055b91906110b9565b60ff16145b61059f576040517f08c379a000000000000000000000000000000000000000000000000000000000815260040161059690611132565b60405180910390fd5b8060200160208101906105b291906110b9565b60ff16600183815481106105c9576105c8611051565b5b906000526020600020906004020160020160008282546105e99190610da2565b925050819055506001828154811061060457610603611051565b5b906000526020600020906004020160010160009054906101000a900473ffffffffffffffffffffffffffffffffffffffff1673ffffffffffffffffffffffffffffffffffffffff163373ffffffffffffffffffffffffffffffffffffffff167f295c2eecb6286510cbcce4b1c262b5ca41926994dc773db67c91f036bbf3d88f83602001602081019061069791906110b9565b6040516106a49190611161565b60405180910390a35080806106b89061117c565b915050610500565b505050565b6276a7006002546106d69190610da2565b421015610718576040517f08c379a000000000000000000000000000000000000000000000000000000000815260040161070f90611236565b60405180910390fd5b621a5e006276a70061072a9190610da2565b6002546107379190610da2565b421115610779576040517f08c379a0000000000000000000000000000000000000000000000000000000008152600401610770906112a2565b60405180910390fd5b6000604051806080016040528084848080601f016020809104026020016040519081016040528093929190818152602001838380828437600081840152601f19601f8201169050808301925050505050505081526020013373ffffffffffffffffffffffffffffffffffffffff168152602001600081526020016000151581525090506001819080600181540180825580915050600190039060005260206000209060040201600090919091909150600082015181600001908161083d9190611493565b5060208201518160010160006101000a81548173ffffffffffffffffffffffffffffffffffffffff021916908373ffffffffffffffffffffffffffffffffffffffff1602179055506040820151816002015560608201518160030160006101000a81548160ff02191690831515021790555050503373ffffffffffffffffffffffffffffffffffffffff167fd1efe34a534b4d45759bb8d8f7c24cb8b465b18cf3e3710c3dc9d70ddd2b293084846040516108f99291906115a1565b60405180910390a2505050565b60025481565b60008054906101000a900473ffffffffffffffffffffffffffffffffffffffff1681565b620d2f00621a5e006276a7006109469190610da2565b6109509190610da2565b81565b6276a70081565b60035481565b621a5e006276a7006109729190610da2565b81565b600080fd5b600080fd5b6000819050919050565b6109928161097f565b811461099d57600080fd5b50565b6000813590506109af81610989565b92915050565b6000602082840312156109cb576109ca610975565b5b60006109d9848285016109a0565b91505092915050565b600081519050919050565b600082825260208201905092915050565b60005b83811015610a1c578082015181840152602081019050610a01565b60008484015250505050565b6000601f19601f8301169050919050565b6000610a44826109e2565b610a4e81856109ed565b9350610a5e8185602086016109fe565b610a6781610a28565b840191505092915050565b600073ffffffffffffffffffffffffffffffffffffffff82169050919050565b6000610a9d82610a72565b9050919050565b610aad81610a92565b82525050565b610abc8161097f565b82525050565b60008115159050919050565b610ad781610ac2565b82525050565b60006080820190508181036000830152610af78187610a39565b9050610b066020830186610aa4565b610b136040830185610ab3565b610b206060830184610ace565b95945050505050565b6000602082019050610b3e6000830184610ab3565b92915050565b600080fd5b600080fd5b600080fd5b60008083601f840112610b6957610b68610b44565b5b8235905067ffffffffffffffff811115610b8657610b85610b49565b5b602083019150836040820283011115610ba257610ba1610b4e565b5b9250929050565b60008060208385031215610bc057610bbf610975565b5b600083013567ffffffffffffffff811115610bde57610bdd61097a565b5b610bea85828601610b53565b92509250509250929050565b60008083601f840112610c0c57610c0b610b44565b5b8235905067ffffffffffffffff811115610c2957610c28610b49565b5b602083019150836001820283011115610c4557610c44610b4e565b5b9250929050565b60008060208385031215610c6357610c62610975565b5b600083013567ffffffffffffffff811115610c8157610c8061097a565b5b610c8d85828601610bf6565b92509250509250929050565b6000819050919050565b6000610cbe610cb9610cb484610a72565b610c99565b610a72565b9050919050565b6000610cd082610ca3565b9050919050565b6000610ce282610cc5565b9050919050565b610cf281610cd7565b82525050565b6000602082019050610d0d6000830184610ce9565b92915050565b7f4e487b7100000000000000000000000000000000000000000000000000000000600052602260045260246000fd5b60006002820490506001821680610d5a57607f821691505b602082108103610d6d57610d6c610d13565b5b50919050565b7f4e487b7100000000000000000000000000000000000000000000000000000000600052601160045260246000fd5b6000610dad8261097f565b9150610db88361097f565b9250828201905080821115610dd057610dcf610d73565b5b92915050565b7f566f74696e6720706572696f64206e6f74207374617274656420796574000000600082015250565b6000610e0c601d836109ed565b9150610e1782610dd6565b602082019050919050565b60006020820190508181036000830152610e3b81610dff565b9050919050565b7f566f74696e6720706572696f642068617320656e646564000000000000000000600082015250565b6000610e786017836109ed565b9150610e8382610e42565b602082019050919050565b60006020820190508181036000830152610ea781610e6b565b9050919050565b7f496e76616c6964206e756d626572206f6620766f746573000000000000000000600082015250565b6000610ee46017836109ed565b9150610eef82610eae565b602082019050919050565b60006020820190508181036000830152610f1381610ed7565b9050919050565b6000819050919050565b6000610f3f610f3a610f3584610f1a565b610c99565b61097f565b9050919050565b610f4f81610f24565b82525050565b6000606082019050610f6a6000830186610aa4565b610f776020830185610aa4565b610f846040830184610f46565b949350505050565b610f9581610ac2565b8114610fa057600080fd5b50565b600081519050610fb281610f8c565b92915050565b600060208284031215610fce57610fcd610975565b5b6000610fdc84828501610fa3565b91505092915050565b7f4e6f20766f74657320617661696c61626c650000000000000000000000000000600082015250565b600061101b6012836109ed565b915061102682610fe5565b602082019050919050565b6000602082019050818103600083015261104a8161100e565b9050919050565b7f4e487b7100000000000000000000000000000000000000000000000000000000600052603260045260246000fd5b600060ff82169050919050565b61109681611080565b81146110a157600080fd5b50565b6000813590506110b38161108d565b92915050565b6000602082840312156110cf576110ce610975565b5b60006110dd848285016110a4565b91505092915050565b7f496e76616c696420766f7465206465636973696f6e0000000000000000000000600082015250565b600061111c6015836109ed565b9150611127826110e6565b602082019050919050565b6000602082019050818103600083015261114b8161110f565b9050919050565b61115b81611080565b82525050565b60006020820190506111766000830184611152565b92915050565b60006111878261097f565b91507fffffffffffffffffffffffffffffffffffffffffffffffffffffffffffffffff82036111b9576111b8610d73565b5b600182019050919050565b7f5375626d697373696f6e20706572696f64206e6f74207374617274656420796560008201527f7400000000000000000000000000000000000000000000000000000000000000602082015250565b60006112206021836109ed565b915061122b826111c4565b604082019050919050565b6000602082019050818103600083015261124f81611213565b9050919050565b7f5375626d697373696f6e20706572696f642068617320656e6465640000000000600082015250565b600061128c601b836109ed565b915061129782611256565b602082019050919050565b600060208201905081810360008301526112bb8161127f565b9050919050565b7f4e487b7100000000000000000000000000000000000000000000000000000000600052604160045260246000fd5b60008190508160005260206000209050919050565b60006020601f8301049050919050565b600082821b905092915050565b6000600883026113537fffffffffffffffffffffffffffffffffffffffffffffffffffffffffffffffff82611316565b61135d8683611316565b95508019841693508086168417925050509392505050565b600061139061138b6113868461097f565b610c99565b61097f565b9050919050565b6000819050919050565b6113aa83611375565b6113be6113b682611397565b848454611323565b825550505050565b600090565b6113d36113c6565b6113de8184846113a1565b505050565b5b81811015611402576113f76000826113cb565b6001810190506113e4565b5050565b601f82111561144757611418816112f1565b61142184611306565b81016020851015611430578190505b61144461143c85611306565b8301826113e3565b50505b505050565b600082821c905092915050565b600061146a6000198460080261144c565b1980831691505092915050565b60006114838383611459565b9150826002028217905092915050565b61149c826109e2565b67ffffffffffffffff8111156114b5576114b46112c2565b5b6114bf8254610d42565b6114ca828285611406565b600060209050601f8311600181146114fd57600084156114eb578287015190505b6114f58582611477565b86555061155d565b601f19841661150b866112f1565b60005b828110156115335784890151825560018201915060208501945060208101905061150e565b86831015611550578489015161154c601f891682611459565b8355505b6001600288020188555050505b505050505050565b82818337600083830152505050565b600061158083856109ed565b935061158d838584611565565b61159683610a28565b840190509392505050565b600060208201905081810360008301526115bc818486611574565b9050939250505056fea2646970667358221220ab52f1c05f94269f95c5ac185218bf65b646c8888e52ccc7c0ba41947441ce4564736f6c63430008110033",
  "linkReferences": {},
  "deployedLinkReferences": {}
}